:020000040800F2
:10000000000001201D3200085707000859070008AA
:100010005B0700085D0700085F070008000000009C
:100020000000000000000000000000006107000860
:100030006307000800000000650700086707000864
:100040006532000865320008653200086532000834
:100050006532000865320008653200086532000824
:100060006532000865320008653200086532000814
:100070006532000865320008653200086532000804
:100080007107000865320008653200086532000813
:1000900065320008653200086532000865320008E4
:1000A00065320008653200086532000865320008D4
:1000B00065320008653200086532000881070008D3
:1000C00065320008653200086532000865320008B4
:1000D00065320008653200086532000865320008A4
:1000E0006532000865320008653200086532000894
:1000F0006532000865320008653200086532000884
:100100006532000865320008653200086532000873
:100110006532000865320008653200086532000863
:100120006532000865320008653200086532000853
:1001300000000000000000000000000000000000BF
:1001400000000000000000000000000000000000AF
:10015000000000000000000000000000000000009F
:10016000000000000000000000000000000000008F
:10017000000000000000000000000000000000007F
:10018000000000000000000000000000000000006F
:10019000000000000000000000000000000000005F
:1001A000000000000000000000000000000000004F
:1001B000000000000000000000000000000000003F
:1001C000000000000000000000000000000000002F
:1001D000000000000000000000000000000000001F
:0401E0005FF8E0F1F3
:1001E40010B5054C237833B9044B13B10448AFF36D
:1001F40000800123237010BD0C00002000000000CB
:10020400C032000808B5034B1BB103490348AFF3E0
:10021400008008BD0000000010000020C03200086B
:1002240072B6FEE700B591B02822002106A803F0BB
:100234003DF8002301930293039304930593012251
:1002440006924FF4803307930A9202220D920E9382
:100254004FF4E0130F9306A802F064F880B90F235B
:10026400019302210291002303934FF480620492CC
:10027400059301A802F088FA20B911B05DF804FBD7
:10028400FFF7CEFFFFF7CCFF00B587B001F0FCFF0E
:10029400FFF7C8FF00F038F802F0A4FF00F07AF886
:1002A400164B02AC0FCB07C4237000F053F900F0D7
:1002B40007F900F011F90D2302AA0021084600F005
:1002C40027FA00F053F94FF47A7002F001F80C4C5D
:1002D40023680133236000F0FFF81023094A022148
:1002E4001E2000F015FA1023009305232268042130
:1002F400192000F0C5F900F039F9E4E7E03200080C
:1003040028000020D832000830B589B000240494B5
:100314000594069407941C4B9A6942F040029A6132
:100324009A6902F040020192019A9A6942F0040229
:100334009A619A6902F004020292029A9A6942F05E
:1003440008029A619B6903F008030393039B0F4D12
:1003540001222021284602F003FC10230493059473
:10036400012406940DEB0301094802F0D9FA202375
:100374000493059406940323079304A9284602F0E2
:10038400CFFA09B030BD00BF00100240000C01409C
:100394000018014008B50B480B4B03600B4B43603E
:1003A40000238360C3604FF4804202614361836130
:1003B400C361036200F0DAFD00B908BDFFF730FF46
:1003C400FBE700BF7000002000540040801A0600C4
:1003D40030B587B000230293039304930593026816
:1003E400204B9A4201D007B030BD04461E4DAB6984
:1003F40043F00803AB61AB6903F008030093009B6F
:10040400C0230293122303930323059302A91748DD
:1004140002F086FAEB6943F40013EB61EB6903F431
:1004240000130193019B1248124B03601023436095
:10043400002383608022C260036143618361C361DE
:1004440002F0AAFB58B90A4B63635C6200221146AE
:100454001F2002F06BFE1F2002F0A0FEC3E7FFF78F
:10046400DFFEF0E70054004000100240000C0140A1
:100474002C0000206C00024000B587B08DF81700F6
:100484004FF0FF330293012301930DF11702009201
:1004940000227821024800F003FF07B05DF804FB56
:1004A4007000002010B5002405E0044B185DFFF730
:1004B400E3FF0134E4B21A2CF7D910BDF03200087E
:1004C40008B58D20FFF7D8FF1420FFF7D5FFAF2024
:1004D400FFF7D2FF08BD000008B54FF48062002189
:1004E400014802F0E3FE08BDC400002010B5044634
:1004F400A1F15000C0B2FFF7BFFF200940F0100087
:10050400FFF7BAFF04F00F00FFF7B6FF10BD0000BD
:1005140010B584B0002414E021460020FFF7E6FF64
:100524000A4B03EBC4134FF0FF3202928022019274
:100534000093012340227821054800F0B1FE0134E4
:10054400E4B2072CE8D904B010BD00BFC4000020F9
:100554007000002008B5642001F0BAFEFFF7A2FF86
:10056400FFF7BAFFFFF7D4FF08BD000030B585B030
:10057400002428E000238DF80C30A4F150028DF8FB
:100584000D208DF80E3010238DF80F30104D4FF0E4
:10059400FF330093042303AA7821284600F0C4FD06
:1005A4000C4B03EBC41380220192009301234022DD
:1005B4007821284600F026FF054801F03BFE20285C
:1005C400FAD10134E4B2072CD4D905B030BD00BF50
:1005D40070000020C40000200246012002E002FB5B
:1005E40000F019464B1EDBB20029F8D17047000019
:1005F40070B5203AD2B27E2802D90231C9B20020A5
:10060400102B10D0002332E003EB0214C518194E4E
:10061400365D194C04EBC11466550133DBB2072B6C
:10062400F2D9002311E00023F9E703EB02150835A2
:100634004C1C00EB030C0F4E16F805E00E4D05EBB9
:10064400C41404F80CE00133DBB2072BEDD910E03D
:1006540000EB030E02EB4204084D05EB4404E55C99
:10066400054C04EBC11C0CF80E500133DBB2052B16
:10067400EED970BD34350008C40000200C330008E6
:100684002DE9F0478246894690461D469DF8206034
:1006940000273C4619E0700804FB00F0C0B2504447
:1006A400334620224946C0B2FFF7A2FF0BE0700890
:1006B40004FB00F0C0B2303250443346D2B2494653
:1006C400C0B2FFF795FF0134E4B2AC421CD2291B3F
:1006D400C9B20139C9B20A20FFF77EFFB8FBF0F0B6
:1006E4000A4AA2FB003C4FEADC0C0CEB8C0CA0EB9E
:1006F4004C0C5FFA8CF2002FD9D16B1E9C42D6DAD7
:10070400002AC8D00127D2E7BDE8F087CDCCCCCCF5
:100714002DE9F04105460E4690461F46002403E0AD
:1007240008200CE00134E4B218F804207AB13B4606
:1007340031462846FFF75CFF102FF1D00620054410
:10074400EDB2782DEED90236F6B20025EAE7BDE81F
:10075400F081FEE7FEE7FEE7FEE7FEE7704770473D
:10076400704708B501F0A2FD08BD000008B50248B5
:1007740002F050FB08BD00BF2C00002008B5024861
:1007840001F088FC08BD00BF7000002082B00E4B51
:100794009A6942F001029A619A6902F00102009298
:1007A400009ADA6942F08052DA61DB6903F080531F
:1007B4000193019B054A536823F0E06343F00073FF
:1007C400536002B0704700BF0010024000000140B7
:1007D40003685A6912F0800F01D000221A61704731
:1007E40090F83E30DBB2402B10D00369B3F5804F54
:1007F4001BD0036D002B39D1436CC3F3C8130268BB
:1008040003F0060343F0F00313617047036D2BB943
:10081400436C026803F0FE0313617047436C026883
:1008240043F00103DBB21361704790F83D30DBB253
:10083400212B0FD0436C026843F00103DBB2136138
:10084400436B6BB19B6A5BB10268536843F400630A
:1008540053607047436C026803F0FE031361EFE7D3
:10086400836B33B19B6A002BEED102E0036D012B45
:1008740000D07047436CC3F3C813026803F0060347
:1008840043F0F1031361F4E7436C0268DBB21361D4
:10089400436B3BB19B6A2BB10268536843F400631A
:1008A40053607047836B002BFBD09B6A002BF3D102
:1008B400F7E710B48DB090F83E30DAB2C16A046B39
:1008C40090F83D30DBB2222B0AD000230B9303684F
:1008D4005A690B929B690B930B9B0DB010BC70472C
:1008E400036D0BB9402A17D0036D1BB90369B3F527
:1008F400404F19D0438D9BB2002B25D1039303683D
:100904005A6903929A690392039A1A6842F400722C
:100914001A6000230365E0E7019303685A690192B2
:100924009B690193019BD8E70023029303685A69EA
:1009340002929A690292029A1A6842F480721A60C8
:10094400036D01330365C8E7438D9BB2012B25D0AA
:10095400438D9BB2022B7BD00268136843F48063FF
:10096400136003685A6812F4006F0ED011F5803FCB
:1009740007D0012905D0082903D0102901D0202946
:1009840003D15A6842F480525A6000230A930368E0
:100994005A690A929B690A930A9BBAE711F5803F48
:1009A40011D0082934D0202932D0122C2ED0042979
:1009B40040D002293ED010293CD00268136823F4A9
:1009C400806313603BE00268136823F48063136060
:1009D40003685A6812F4006F0CD01A6822F480621B
:1009E4001A600023049303685A6904929B69049370
:1009F400049B8EE7002205925A6905929A69059232
:100A0400059A1A6842F400721A6082E70129CED06E
:100A14000268136823F48063136000230793036858
:100A24005A6907929A690792079A1A6842F40072FF
:100A34001A606EE70268136843F48063136000234E
:100A4400069303685A6906929B690693069B60E7BE
:100A5400042915D0022913D0102911D00268136873
:100A640043F4006313600023089303685A690892EF
:100A74009A690892089A1A6822F480621A600CE053
:100A84000268136843F480631360002309930368C6
:100A94005A6909929B690993099B03685A6812F47D
:100AA400006F3FF436AF11F5803F08D0012906D01E
:100AB400082904D0102902D020297FF42AAF5A68CB
:100AC40042F480525A6024E7438D9BB25BB1426A80
:100AD400036812781A61436A01334362438D9BB2FF
:100AE400013B9BB243857047438D9BB25BB1036866
:100AF4001A69436A1A70436A01334362438D9BB295
:100B0400013B9BB24385704782B0002301930E4B97
:100B14001B68DB080D4AA2FB03231B0A03EB8303B8
:100B24000193019B013B0193019B33B103681B6853
:100B340013F4007FF5D1002004E0036C43F020039C
:100B44000364012002B070470800002089B5F8143E
:100B540003685A6912F4806F01D1002070476FF462
:100B640080625A6100230363202280F83D2080F8CC
:100B74003E30026C42F00402026480F83C300120F2
:100B84007047C36AB3F52A0F04D0C36AB3F12A4F7E
:100B940003D070470123C36270470823C362F8E798
:100BA4002DE9F04106460C46174698463BE001F015
:100BB40089FB069BC01A404502D8B8F1000F32D118
:100BC400012D18D033689B6924EA03039BB2B3FA5E
:100BD40083F35B099F4226D100233363202286F8E6
:100BE4003D2086F83E30326C42F02002326486F8B2
:100BF4003C30012027E033685B6924EA03039BB29D
:100C0400B3FA83F35B09E5E733685B6924EA030C11
:100C14001FFA8CFCBCFA8CFC4FEA5C1C674511D1B2
:100C2400B8F1FF3FC3D1C4F30745012DECD03368BD
:100C34009B6924EA030C1FFA8CFCBCFA8CFC4FEA77
:100C44005C1CEBE70020BDE8F0812DE9F843054684
:100C54000E469046994653E01A6842F400721A60B0
:100C64002B686FF480625A6100232B63202285F87D
:100C74003D2085F83E302A6C42F004022A6485F84F
:100C84003C3001204AE001F01DFBA0EB0900404587
:100C940002D8B8F1000F33D1012F17D02B689B690C
:100CA40026EA03039BB2003B18BF012343B300238E
:100CB4002B63202285F83D2085F83E302A6C42F0D3
:100CC40020022A6485F83C30012027E02B685B6908
:100CD40026EA03039BB2003B18BF0123E6E72B6817
:100CE4009C6926EA0404A4B2003C18BF0124A4B100
:100CF4002B685A6912F4806FAED1B8F1FF3FC2D1AC
:100D0400C6F30747012FEAD12B685C6926EA04047D
:100D1400A4B2003C18BF0124E9E70020BDE8F88331
:100D2400F0B583B004460D4616461F46C36A082B29
:100D34000DD0012B0BD013F5803F08D0036B122B81
:100D44000AD10268136843F48073136004E02268D4
:100D5400136843F4807313600097334600224FF006
:100D640001112046FFF71CFF80B92369B3F5804FBA
:100D740016D1236805F0FE051D613B463246134932
:100D84002046FFF762FFF8B903B0F0BD23681B6883
:100D940013F4807F02D04FF4007323640320F3E73D
:100DA400EB11226803F0060343F0F00313613B46A2
:100DB400324607492046FFF748FF18B92368EDB2C9
:100DC4001D61DAE70120DFE70120DDE70200010011
:100DD4000800010070B504460D46164623685B6999
:100DE40013F0800F21D12046FFF7B2FEF8B9B5F118
:100DF400FF3FF3D001F066FA801BA84201D8002D12
:100E0400ECD123685B6913F0800FE7D100232363DF
:100E1400202284F83D2084F83E30226C42F02002E7
:100E2400226484F83C30012000E0002070BD0120E1
:100E3400FCE700002DE9F04385B004460D469146D9
:100E44001F46DDF830800D9E0368196841F48071F7
:100E540019600096434600224FF00111FFF7A0FEEF
:100E640060B9236805F0FE051D61334642462649F4
:100E74002046FFF7EAFE68B1012008E023681B68FA
:100E840013F4807F02D04FF400732364032005B071
:100E9400BDE8F0830023039323685A6903929B6996
:100EA4000393039B324641462046FFF793FF30B934
:100EB400012F0FD123685FFA89F61E61E7E7236CDF
:100EC400042B01D00120E2E72268136843F4007385
:100ED4001360F7E723684FEA19221A613246414644
:100EE4002046FFF777FF20B923685FFA89F61E6171
:100EF400CDE7236C042B01D00120C8E722681368D6
:100F040043F400731360F7E70200010070B5044670
:100F14000D46164623685B6913F0040F21D1204661
:100F2400FFF716FEF8B9B5F1FF3FF3D001F0CAF9A7
:100F3400801BA84201D8002DECD123685B6913F013
:100F4400040FE7D100232363202284F83D2084F892
:100F54003E30226C42F02002226484F83C300120AE
:100F640000E0002070BD0120FCE70000002800F034
:100F7400CC8070B5044690F83D30002B77D0242304
:100F840084F83D302268136823F00103136022685B
:100F9400136843F4004313602268136823F4004386
:100FA400136001F0ADFC62685A4B9A4264D85A4B04
:100FB40098428CBF00230123002B40F0A88057499E
:100FC400A1FB00318B0C25686A6822F03F0242EADB
:100FD40091426A6021680A6A22F03F0266684D4DB8
:100FE400AE424FD8013313430B622168CA6922F41D
:100FF4004F4222F0FF026668464B9E424CD8431E85
:101004007600B3FBF6F3013340F6FC70034278D06C
:10101400C3F30B031343CB6121680B6823F0C003B4
:10102400E269206A024313430B6021688B6823F44E
:10103400034323F0FF032269E068024313438B60F8
:101044002168CB6823F0FF036269A069024313435C
:10105400CB602268136843F001031360002020640E
:10106400202384F83D30206384F83E0070BD80F86E
:101074003C30FFF7ADF982E7294B98428CBF00233F
:10108400012399E74FF4967505FB03F3254DA5FB62
:1010940003539B090133A6E7A368BBB9451E06EBBE
:1010A400460CB5FBFCF50135C5F30B05B5FA85F522
:1010B4006D0945BBC3B9013806EB4603B0FBF3F336
:1010C4000133C3F30B0343F40043A3E7451E06EBCC
:1010D400860C0CEB8C0CB5FBFCF50135C5F30B054C
:1010E400B5FA85F56D09E4E7013806EB860303EBF1
:1010F4008303B0FBF3F30133C3F30B0343F4404323
:1011040088E7042386E7012384E701207047012050
:10111400ACE700BFA08601007F841E0083DE1B4372
:10112400FF083D00D34D62102DE9F04385B004461D
:101134000F46914698460C9E01F0C4F8054694F873
:101144003D00C0B2202804D00227384605B0BDE8CF
:10115400F0830095192301224F492046FFF720FD13
:10116400002840F0928094F83C30012B00F08F80EE
:10117400012384F83C3023681A6812F0010F03D16C
:101184001A6842F001021A602268136823F40063AB
:101194001360212384F83D30102384F83E3000236B
:1011A4002364C4F82490A4F82A80638D23853B4BE0
:1011B400E3622B46324639462046FFF7B1FD074627
:1011C400002866D10023039323685A6903929B691C
:1011D4000393039B11E0236C042B01D00127B4E794
:1011E4002268136843F400731360F7E72A46314614
:1011F4002046FFF78BFE00282ED1238D002B36D0FE
:101204002A4631462046FFF7E5FD0028E3D1626A0D
:10121400236812781A61606A431C6362618D89B223
:10122400013989B26185238D013B9BB223852268F4
:10123400516911F0040FD9D0002BD7D04378136132
:10124400636A01336362638D9BB2013B9BB2638526
:10125400238D013B2385C9E7236C042B01D001278F
:1012640073E72268136843F400731360F7E7226896
:10127400136843F400731360202384F83D30002383
:1012840084F83E3084F83C305FE702275DE70227AC
:101294005BE7012759E700BF020010000000FFFFD1
:1012A4002DE9F04383B004460F46904699460C9EC0
:1012B40001F008F8054694F83D00C0B2202803D098
:1012C400022003B0BDE8F0830095192301224B49A5
:1012D4002046FFF765FC002840F0898094F83C30F4
:1012E400012B00F08680012384F83C3023681A68BF
:1012F40012F0010F03D11A6842F001021A60226849
:10130400136823F400631360212384F83D304023E1
:1013140084F83E30002323640A9B6362BDF82C30BA
:101324006385638D2385364BE362019500964B46B6
:10133400424639462046FFF77DFD00285BD1238DC8
:10134400002B35D02A4631462046FFF743FD20BB0B
:10135400626A236812781A61626A531C6362218D7F
:10136400013989B22185638D9BB2013B9BB26385B0
:101374002368586910F0040FE1D00029DFD05278B7
:101384001A61636A01336362238D013B2385638D94
:101394009BB2013B9BB26385D1E7236C042B01D044
:1013A40001208EE72268136843F400731360F7E7A3
:1013B4002A4631462046FFF7A9FD50B1236C042B81
:1013C40001D001207DE72268136843F400731360A1
:1013D400F7E72268136843F400731360202384F84A
:1013E4003D30002384F83E3084F83C3069E7022025
:1013F40067E7022065E7012063E700BF02001000F1
:101404000000FFFF2DE9F04385B005460E46174660
:1014140098460023039300F055FF95F83D30DBB266
:10142400202B40F0C3808146634B1B68DB08634A72
:10143400A2FB03231B0A03EB830303EB8303039342
:10144400039C013C0394039C002C54D02B689A69A0
:1014540012F0020FF4D195F83C20012A00F0AA8082
:10146400012285F83C201A6812F0010F03D11A6892
:1014740042F001021A602A68136823F400631360BF
:10148400212385F83D30402385F83E3000222A642C
:101494000C9B6B62BDF834306B856B8D9BB22B85D6
:1014A4004749E9626E64AF64C5F84C802A65002B35
:1014B4006ED06B6B5BB3434A9A626B6B424A1A639E
:1014C4006A6B0023D3626A6B53632A682B8D1032D4
:1014D400696A686B01F0ACFB38B3202385F83D30B2
:1014E400002285F83E202B6C43F010032B6485F812
:1014F4003C2001205BE000232B63202285F83D2063
:1015040085F83E302B6C13432B6402204FE02023DC
:1015140085F83D30002285F83E202B6C43F0800393
:101524002B6485F83C20012041E0CDF8049023236E
:10153400009343463A4631462846FFF77BFC98B968
:10154400002202922B6859690291996902910299C9
:1015540085F83C205A6842F480725A602A685368BD
:1015640043F40063536022E0686B01F09DFB6A6BF7
:101574000023936229680A6822F480620A602B853A
:101584006B852A68136823F00103136001200EE0C1
:10159400202385F83D30002285F83E202B6C43F053
:1015A40040032B6485F83C20012000E0022005B0B4
:1015B400BDE8F0830220FAE70800002089B5F8149A
:1015C4000000FFFF771A00083D1A000870477047B3
:1015D400704708B590F83D30DAB2438D9BB283B1C1
:1015E400416A036809781961436A01334362438D90
:1015F4009BB2013B9BB24385438D9BB20BB9292A15
:1016040000D008BD0268536823F48063536021232B
:101614000363282380F83D30FFF7DAFFF1E77047D2
:1016240008B590F83D30DAB2438D9BB283B10368BC
:101634001969436A1970436A01334362438D9BB24B
:10164400013B9BB24385438D9BB20BB92A2A00D040
:1016540008BD0268536823F4806353602223036344
:10166400282380F83D30FFF7DAFFF1E7704700B533
:1016740083B090F83D3003F02803282B0CD00023CE
:10168400019302685169019192690192019A80F86B
:101694003C3003B05DF804FB0268536823F48063B4
:1016A400536011F0040F0BD0002311F0800F09D107
:1016B4008289002180F83C101946FFF7D7FFE8E73C
:1016C4000123F2E7028BF4E77047704708B5C26A5A
:1016D40090F83D30DBB2212B00D008BD438D9BB286
:1016E40063B1426A036812781A61436A0133436240
:1016F400438D9BB2013B9BB24385EEE7082A04D09D
:10170400202A02D012F5803F19D10268536823F4CD
:10171400E06353600268136843F4007313600023AA
:101724000363202380F83D3090F83E30DBB2402B39
:1017340015D0002380F83E30FFF748FFCDE702685C
:10174400536823F4E063536011230363002380F898
:101754003E30202380F83D30FFF738FFBDE70023FB
:1017640080F83E30FFF7B1FFB7E708B590F83D3099
:10177400026D9AB9C36C012B08D0836CC3F30723A1
:1017840002681361036D0133036508BD836C02684D
:10179400DBB21361036D02330365F6E7DBB2026D5E
:1017A400012A23D0026D022A3ED1222B26D0428D5B
:1017B40092B20AB1212B2AD0428D92B2002AE4D1EE
:1017C400212BE2D10268536823F4E063536002687A
:1017D400136843F40073136000230363202280F82A
:1017E4003D2080F83E30FFF770FFCEE7836C02683F
:1017F400DBB21361036D01330365C6E70268136846
:1018040043F480731360036D01330365BDE7426ADB
:10181400036812781A61436A01334362438D9BB2B1
:10182400013B9BB24385B0E7FEF7D2FFADE710B5AD
:1018340090F83D30DBB290F83E20D2B2C46A018DFC
:1018440009B9212B04D0212B3BD0402A37D010BD1D
:10185400082C04D0202C02D014F5803F19D1026842
:10186400536823F4E06353600268136843F400731D
:10187400136000230363202380F83D3090F83E304A
:10188400DBB2402B15D0002380F83E30FFF79EFEDC
:10189400DDE70268536823F4E063536011230363B4
:1018A400002380F83E30202380F83D30FFF78EFE81
:1018B400CDE7002380F83E30FFF707FFC7E7222B70
:1018C400C5D1438D9BB22BB90268536823F480635E
:1018D4005360BCE790F83E30DBB2402B0CD0426A38
:1018E400036812781A61436A01334362438D9BB2E1
:1018F400013B9BB24385AAE7FFF737FFA7E7704791
:1019040008B5C26A438D9BB2042B14D0438D9BB29D
:10191400032B22D0438D9BB2022B39D003681A6962
:10192400436A1A70436A01334362438D9BB2013B9D
:101934009BB2438510E00268536823F480635360CC
:1019440003681A69436A1A70436A01334362438D18
:101954009BB2013B9BB2438508BD01684B6823F4ED
:1019640080634B60042A06D0022A04D002681368FC
:1019740023F48063136003681A69436A1A70436A24
:1019840001334362438D9BB2013B9BB24385E3E742
:10199400012A0BD0102A09D0042A3AD0022A38D0BE
:1019A40001680B6843F400730B6004E001680B6882
:1019B40023F480630B6003681969436A1970416AF0
:1019C4004B1C4362438D9BB2013B9BB2438503682E
:1019D4001B694B70436A01334362438D9BB2013BE5
:1019E4009BB2438501684B6823F440734B6020230A
:1019F40080F83D3090F83E30DBB2402B0FD000230E
:101A040080F83E30082A11D0202A0FD01223036315
:101A14000EE001680B6843F480630B60CBE700239E
:101A240080F83E300363FFF76AFF95E70023036302
:101A3400FFF7CDFD90E7704708B5406A436B0BB1E3
:101A440000229A62836B0BB100229A6202681368C7
:101A540023F48063136000234385202280F83D2013
:101A640080F83E30036C43F010030364FFF7E3FF98
:101A740008BD38B5446A94F83D30DBB294F83E2092
:101A8400D1B2E56A2068426822F440724260626B17
:101A94000AB100209062A26B0AB10020906203F0A8
:101AA4002102212A42D003F02202222A3CD094F8B7
:101AB4003E30002B4AD0638D9BB2012B59D0226853
:101AC400536823F44073536015F5803F06D0082D06
:101AD40004D0B5F12A4F01D0202D04D12268136817
:101AE40043F4007313602268536823F480535360F3
:101AF4002268536823F40063536000236385236CD6
:101B0400002B3CD1202384F83D3094F83E30DBB2E6
:101B1400402B38D0002384F83E30082D3BD0202DB4
:101B240039D01223236338E02029C0D121684A68C0
:101B340022F400624A6000226285292B07D02A2BF6
:101B44000ED02268536843F44073536038BD212398
:101B54002363282384F83D302046FFF739FDF0E75E
:101B640022232363282384F83D302046FFF757FDC2
:101B7400E7E72268136823F4806313609FE7204635
:101B8400FFF759FFE2E7002384F83E302363204641
:101B9400FFF7B5FEDAE7002323632046FFF717FDBE
:101BA400D4E738B590F83D30DBB2222B00D038BDF5
:101BB4000446C56A438D9BB2032B15D903681A6981
:101BC400436A1A70436A01334362438D9BB2013BFB
:101BD4009BB24385438D9BB2032BE8D102685368C3
:101BE40023F480635360E2E7C26A022A01D0012B26
:101BF40005D92268536823F480635360D7E7FEF75E
:101C040083FF002835D12268136823F480631360AE
:101C14002268536823F4E063536023681A69636A93
:101C24001A70636A01336362638D9BB2013B9BB29A
:101C34006385202384F83D3094F83E30DBB2402B9A
:101C440009D0002384F83E30082D0CD0202D0AD072
:101C54001223236309E0002384F83E3023632046E3
:101C6400FFF74DFEA3E7002323632046FFF7AFFCF5
:101C74009DE72268536823F4E063536023681A697C
:101C8400636A1A70636A01336362638D9BB2013BBA
:101C94009BB26385202384F83D30002384F83E30D2
:101CA4002046FFF7C8FE82E77047000000B583B006
:101CB40000230193406A90F83D20D2B2324B1B6856
:101CC400DB083249A1FB03131B0A03EB8303C3EBB9
:101CD400C3030193019B43B1019B013B019303683F
:101CE4001B6813F4007FF5D103E0036C43F0200379
:101CF4000364436B0BB100219962836B0BB1002128
:101D0400996201680B6823F480630B6000234385A8
:101D1400436B0BB100215963836B0BB100215963F1
:101D240001680B6823F001030B6090F83D30DBB2CF
:101D3400602B0ED002F02802282A14D0202380F829
:101D44003D30002380F83E30FFF775FE03B05DF8A8
:101D540004FB202380F83D30002380F83E300364E8
:101D6400FFF7A2FFF2E70268136843F00103136070
:101D74000268136843F48063136000230363282319
:101D840080F83D30E0E700BF0800002089B5F81472
:101D940010B5044690F83D30DBB290F83E20D2B244
:101DA400102A36D0402A34D003F02802282A38D00A
:101DB4002268526812F4006F07D1602B05D02023EB
:101DC40084F83D30002384F83E30002323632368E5
:101DD4005A6812F4006F48D05A6822F400625A60BC
:101DE400626B92F82130DBB2012B20D0444B536359
:101DF400606B00F059FF002849D02268136823F073
:101E040001031360202384F83D30606B436B9847D3
:101E14003DE0222BC8D121680A6822F400620A60DE
:101E2400C2E700232363282384F83D30CFE7A36B64
:101E3400334A5A63A06B00F037FF40B323685A69F2
:101E440012F0400F05D01A69636A1A70636A01338D
:101E540063622268136823F001031360202384F86B
:101E64003D30A06B436B984711E094F83D20D2B20B
:101E7400602A1FD05A6912F0400F05D01A69636AAC
:101E84001A70636A013363622046FFF7D4FD236C42
:101E940013F00F0F04D02268536823F4E0635360F7
:101EA40094F83D30DBB2226C12F0040F01D0282BE1
:101EB40018D010BD202284F83D20002222645A69E3
:101EC40012F0400F05D01A69636A1A70636A01330D
:101ED40063622268136823F0010313602046FFF74E
:101EE400E3FED4E7074BE36200232363202284F854
:101EF4003D2084F83E302046FFF7E6FBD9E700BFDB
:101F0400B11C00080000FFFF30B583B0044690F810
:101F14003D50EDB20268536823F4E063536000233C
:101F2400019303685A6901921A6842F001021A6027
:101F3400019B0268136823F48063136003685A6882
:101F440012F4006F38D0222D21D02A2D1FD0426BDD
:101F54001268526892B24285428D92B21AB1026CF2
:101F640042F0040202645A6822F400625A60606B10
:101F740001F0C6F801281FD0636B444A5A63606BB2
:101F840000F092FEC0B1606B436B984714E0A26B03
:101F94001268526892B26285628D92B21AB1226C52
:101FA40042F0040222645A6822F400625A60A06B70
:101FB40001F0A6F8012842D1638D9BB233B32368A4
:101FC4005A6912F0040F0AD01A69636A1A70636AB4
:101FD40001336362638D9BB2013B9BB263852368CB
:101FE4005A6912F0400F0AD01A69636A1A70636A58
:101FF40001336362638D9BB2013B9BB26385638D46
:102004009BB21BB1236C43F004032364236C13BB06
:102014002A2D25D094F83D30DBB2282B29D0236B10
:10202400222B01D0222D19D100232363202284F8EE
:102034003D2084F83E302046FFF7F1FA0EE0A36B12
:10204400124A5A63A06B00F02FFE0028B4D0A06B94
:10205400436B9847B0E72046FFF79AFE03B030BDC4
:1020640000232363282384F83D302046FFF7D7FA62
:10207400D0E7074BE36200232363202284F83D204A
:1020840084F83E302046FFF71FFBE7E7B11C000849
:102094000000FFFFF8B5044602685568C66A90F868
:1020A4003E30DBB290F83D10C8B2102B13D0402B59
:1020B40011D0236C002B7AD05369002113F0020F46
:1020C40078D015F4007F75D0236C03B19169204654
:1020D400FFF7CDFAF8BDD2F818C0516911F0010725
:1020E40005D1B6F52A0FF5D0B6F12A4FF2D017B1C3
:1020F40015F4007F29D111F0080F02D015F4007FE8
:102104002AD111F0020F02D015F4007F28D11CF05F
:10211400040F31D0526812F4006FDBD111F0800F3C
:1021240005D015F4806F02D011F0040F1CD011F00B
:10213400040FCFD015F4007FCCD0212818D0402B29
:10214400C8D12046FFF711FBC4E72046FEF719FD6E
:102154002046FEF745FBBDE72046FEF795FBB9E7B1
:102164002046FEF7A6FBB5E72046FFF760FBB1E784
:102174002046FFF7ABFAADE7536813F4006FA9D11B
:1021840011F0400F05D015F4806F02D011F0040F48
:1021940009D011F0040F9DD015F4007F9AD0204689
:1021A400FFF7AEFB96E72046FFF7FBFC92E7916949
:1021B400536983E713F0100F02D015F4007F18D190
:1021C40021281AD0292818D013F0400F05D015F46F
:1021D400806F02D013F0040F28D013F0040F3FF4E3
:1021E40079AF15F4007F3FF475AF2046FEF77CFC11
:1021F40070E72046FFF788FE6CE713F0800F05D0E8
:1022040015F4806F02D013F0040F0BD013F0040FF9
:102214003FF460AF15F4007F3FF45CAF2046FEF757
:1022240053FC57E72046FFF7D4F953E72046FFF75E
:10223400F7F94FE790F83D007047000010B50446E9
:102244000E4B18784FF47A73B3FBF0F30C4A106812
:10225400B0FBF3F000F0B0FF68B90F2C01D90120F6
:102264000AE0002221464FF0FF3000F05FFF054BEB
:102274001C60002000E0012010BD00BF0000002011
:10228400080000200400002008B5074A136843F042
:1022940010031360032000F037FF0F20FFF7CEFF79
:1022A400FEF774FA002008BD00200240034A1168BA
:1022B400034B1B780B441360704700BFC404002019
:1022C40000000020014B1868704700BFC4040020C0
:1022D40038B50446FFF7F6FF0546B4F1FF3F02D0D8
:1022E400044B1B781C44FFF7EDFF401BA042FAD3BC
:1022F40038BD00BF0000002082B0084B1B68084AAC
:10230400A2FB03235B0A00FB03F3019300BF019BC1
:102314005A1E0192002BF9D102B070470800002028
:10232400D34D6210002800F0F18170B582B00446EC
:10233400036813F0010F2CD0994B5B6803F00C0376
:10234400042B1DD0964B5B6803F00C03082B12D0B2
:102354006368B3F5803F41D0002B55D103F180432E
:1023640003F504331A6822F480321A601A6822F4DE
:1023740080221A6037E08A4B5B6813F4803FE7D011
:10238400874B1B6813F4003F03D06368002B00F0F5
:10239400BF81236813F0020F75D0814B5B6813F083
:1023A4000C0F5FD07E4B5B6803F00C03082B54D0FA
:1023B4002369002B00F08A807A4B01221A60FFF710
:1023C40081FF0546764B1B6813F0020F75D1FFF7AA
:1023D40079FF401B0228F5D903209EE1704A136857
:1023E40043F480331360636843B3FFF76BFF054620
:1023F4006B4B1B6813F4003FCBD1FFF763FF401B0B
:102404006428F5D9032088E1B3F5A02F09D0644BE3
:102414001A6822F480321A601A6822F480221A6040
:10242400E1E703F18043A3F53C331A6842F48022C8
:102434001A601A6842F480321A60D4E7FFF742FF48
:102444000546574B1B6813F4003FA2D0FFF73AFF31
:10245400401B6428F5D903205FE1514B5B6813F4FA
:10246400803FA5D14E4B1B6813F0020F03D02369A4
:10247400012B40F04F814A4A136823F0F803616945
:1024840043EAC1031360236813F0080F33D0A36930
:10249400002B5CD0434B0122C3F88024FFF712FFCA
:1024A40005463F4B5B6A13F0020F21D1FFF70AFF89
:1024B400401B0228F5D903202FE1394A136823F081
:1024C400F803616943EAC1031360DCE7354B00227A
:1024D4001A60FFF7F7FE0546314B1B6813F0020F35
:1024E400D1D0FFF7EFFE401B0228F5D9032014E1F9
:1024F4000120FFF701FF236813F0040F00F096801A
:10250400274BDB6913F0805F34D1254BDA6942F045
:102514008052DA61DB6903F080530193019B01254A
:10252400214B1B6813F4807F26D0E368012B3DD038
:10253400002B53D103F1804303F504331A6A22F0CC
:1025440001021A621A6A22F004021A6233E0154B7D
:102554000022C3F88024FFF7B5FE0546104B5B6AE2
:1025640013F0020FC7D0FFF7ADFE401B0228F5D9C8
:102574000320D2E00025D3E70B4A136843F48073A9
:102584001360FFF79FFE0646074B1B6813F4807F1A
:10259400CBD1FFF797FE801B6428F5D90320BCE05C
:1025A4000010024000004242007000405F4A136A7B
:1025B40043F001031362E36833B3FFF783FE064677
:1025C4005A4B1B6A13F0020F2FD1FFF77BFE801BBF
:1025D40041F288339842F3D903209EE0052B09D0B9
:1025E400524B1A6A22F001021A621A6A22F0040299
:1025F4001A62E0E74D4B1A6A42F004021A621A6A40
:1026040042F001021A62D6E7FFF75CFE0646474B2A
:102614001B6A13F0020F08D0FFF754FE801B41F22F
:1026240088339842F3D9032077E0E5B9E369002BB6
:1026340072D03E4A526802F00C02082A56D0022B8D
:1026440017D03B4B00221A66FFF73CFE0446374B7B
:102654001B6813F0007F47D0FFF734FE001B0228ED
:10266400F5D9032059E0314AD36923F08053D3616B
:10267400DCE72F4B00221A66FFF724FE05462B4B9E
:102684001B6813F0007F06D0FFF71CFE401B0228D6
:10269400F5D9032041E0236AB3F5803F1AD02349DA
:1026A4004B6823F47413226A606A024313434B6039
:1026B4001F4B01221A66FFF705FE04461B4B1B68DD
:1026C40013F0007F0ED1FFF7FDFD001B0228F5D9A2
:1026D400032022E0154A536823F40033A1680B4316
:1026E4005360DCE7002018E0002016E0012B16D030
:1026F4000E4B5B6803F48031226A914211D103F4DA
:102704007013626A93420ED1002006E001207047E4
:10271400012002E0012000E0002002B070BD012091
:10272400FBE70120F9E70120F7E700BF00100240B2
:10273400000042420F4B5B6803F00C02082A01D0F0
:102744000D487047C3F383420C49885C13F4803FFF
:102754000BD0084B5B68C3F34043094AD35C064A79
:1027640002FB00F0B0FBF3F07047064B03FB00F0F4
:10277400704700BF0010024000127A00243B00089A
:10278400343B000800093D00002800F0A08070B52B
:102794000D460446524B1B6803F007038B420BD2D1
:1027A4004F4A136823F007030B431360136803F0C5
:1027B40007038B4240F08D80236813F0020F17D07B
:1027C40013F0040F04D0474A536843F4E0635360A2
:1027D400236813F0080F04D0424A536843F460534B
:1027E4005360404A536823F0F003A1680B435360DD
:1027F400236813F0010F31D06368012B20D0022B22
:1028040025D0384A126812F0020F64D035494A685C
:1028140022F0030213434B60FFF754FD0646314B8D
:102824005B6803F00C036268B3EB820F16D0FFF70A
:1028340049FD801B41F288339842F0D9032045E0DA
:10284400284A126812F4003FE0D101203EE0254AF4
:10285400126812F0007FD9D1012037E0204B1B68A9
:1028640003F00703AB420AD91D4A136823F0070398
:102874002B431360136803F00703AB422DD1236885
:1028840013F0040F06D0174A536823F4E063E16899
:102894000B435360236813F0080F07D0114A5368A1
:1028A40023F46053216943EAC1035360FFF742FFF5
:1028B4000C4B5B68C3F303130B4AD35CD8400B4B3C
:1028C40018600B4B1868FFF7B9FC002070BD01209D
:1028D40070470120FAE70120F8E70120F6E700BF7E
:1028E4000020024000100240383B0008080000208D
:1028F40004000020014B1868704700BF0800002046
:1029040008B5FFF7F7FF044B5B68C3F30223034AE0
:10291400D35CD84008BD00BF00100240483B00080B
:1029240070B582B00024A446B0E0874DAA4210D00E
:1029340007D9864DAA420CD005F58035AA4208D0A5
:1029440013E0A5F58015AA4203D005F57025AA4227
:1029540007D18A68002A62D0012A5BD04361082427
:1029640003E0A5F58015AA42F3D0BEF1FF0F58D8B5
:102974000646BEF1FF0F56D84FEA8C0233680F2586
:10298400954023EA050304FA02F2134333604B68CB
:1029940013F0805F78D06E4B9A6942F001029A611D
:1029A4009B6903F001030193019B4FEA9C02951C70
:1029B400684B53F825600CF003039D000F23AB40D4
:1029C40026EA0306644B984233D003F580639842A9
:1029D40000F0988003F58063984200F0958003F539
:1029E4008063984200F0928003F58063984200F07F
:1029F4008F8003F58063984219D006231AE0CC68CF
:102A0400B3E7CC680434B0E7CC680834ADE7CC68ED
:102A14000C34AAE703610824A7E70024A5E70424EB
:102A2400A3E7061DA5E7ACF108029200A6E705237B
:102A340000E00023AB4033430232464D45F82230D8
:102A44004B6813F4801F65D0444A936843EA0E032D
:102A540093604B6813F4001F62D0404AD36843EA82
:102A64000E03D3604B6813F4003F5FD03B4A5368B6
:102A740043EA0E0353604B6813F4803F5CD0374A3B
:102A8400136843EA0E0313600CF1010C0A6832FA6E
:102A94000CF357D0012303FA0CF302EA030E33EAD2
:102AA4000202F1D14A68122A3FF63FAF122A3FF6DA
:102AB4005CAF01A555F822F057290008032A000845
:102AC4000D2A00081F2A00086F2900086F29000832
:102AD4006F2900086F2900086F2900086F29000872
:102AE4006F2900086F2900086F2900086F29000862
:102AF4006F2900086F2900086F290008072A0008B9
:102B0400132A0008012395E7022393E7032391E79F
:102B140004238FE7114A936823EA0E03936098E72E
:102B24000E4AD36823EA0E03D3609BE70B4A53682B
:102B340023EA0E0353609EE7084A136823EA0E0350
:102B44001360A1E702B070BD000022100000311034
:102B54000010024000000140000801400004014050
:102B64000AB10161704709040161704730B401245E
:102B7400056CAC40C56B6C60046863604368102BE3
:102B840005D0036899600368DA6030BC7047036855
:102B94009A600368D960F8E700283AD010B4024676
:102BA40000681D4B984229D81C4B03441C49A1FBC7
:102BB40003131B099B0013641A4BD363022382F88B
:102BC4002130016821F47F5121F030015368946869
:102BD4002343D468234314692343546923439469E6
:102BE4002343D46923430B430360002090630123F0
:102BF40082F8213082F8200010BC70470A4B03444D
:102C04000749A1FB03131B099B001364074BD36300
:102C1400D4E70120704700BF07040240F8FFFDBF5E
:102C2400CDCCCCCC00000240F8FBFDBF0004024038
:102C340038B5044690F82000012832D0012084F8E9
:102C4400200094F82100C0B2012804D0002384F8A5
:102C54002030022038BD022084F821000020A06327
:102C64002568286820F0010028602046FFF77EFFD1
:102C7400E36A5BB12268136843F00E0313602268B1
:102C8400136843F0010313600020E3E7226813682C
:102C940023F0040313602268136843F00A031360EB
:102CA400EDE70220D6E7000008B590F82130DBB24A
:102CB400022B03D004238363012008BD0268136838
:102CC40023F00E0313600268136823F001031360FA
:102CD40003684C4A93424ED9783A934224D0143232
:102CE400934230D0143293422FD0143293422FD0D7
:102CF400143293422FD0143293422FD01432934281
:102D04002FD002F5627293422ED0143293422DD00A
:102D1400143293422CD01432934202D04FF48032B6
:102D240003E04FF4805200E00122374B5A60012344
:102D340080F82130002380F82030436B002B5ED0D4
:102D440098470020B9E71022EFE74FF48072ECE7D0
:102D54004FF48052E9E74FF48032E6E74FF48012F3
:102D6400E3E74FF08072E0E70122DEE71022DCE7C0
:102D74004FF48072D9E7254A934224D01432934207
:102D840025D01432934224D01432934224D01432E6
:102D9400934224D01432934224D01432934224D048
:102DA40002F56272934223D01432934222D0143239
:102DB400934221D01432934202D04FF4803203E084
:102DC4004FF4805200E00122114B5A60AFE7102209
:102DD400FAE74FF48072F7E74FF48052F4E74FF4C8
:102DE4008032F1E74FF48012EEE74FF08072EBE7A8
:102DF4000122E9E71022E7E74FF48072E4E70020BC
:102E04005BE700BF8000024000040240080002406B
:102E14000000024038B5C36B1A6804682568016C69
:102E240004238B40134200F09B8015F0040F00F044
:102E34009780236813F0200F03D1236823F0040341
:102E4400236003689A4A934246D9783A934224D03D
:102E54001432934228D01432934227D0143293422E
:102E640027D01432934227D01432934227D01432FD
:102E7400934227D002F56272934226D014329342D1
:102E840025D01432934224D01432934202D04FF40A
:102E9400802203E04FF4804200E00422854B5A6014
:102EA400C36A03B1984738BD4022F7E74FF4806204
:102EB400F4E74FF48042F1E74FF48022EEE74FF459
:102EC4008002EBE74FF08062E8E70422E6E7402265
:102ED400E4E74FF48062E1E7774A934224D0143266
:102EE400934225D01432934224D01432934224D0F6
:102EF4001432934224D01432934224D01432934295
:102F040024D002F56272934223D01432934222D029
:102F14001432934221D01432934202D04FF48022CF
:102F240003E04FF4804200E00422644B5A60B7E7A8
:102F34004022FAE74FF48062F7E74FF48042F4E767
:102F44004FF48022F1E74FF48002EEE74FF0806205
:102F5400EBE70422E9E74022E7E74FF48062E4E785
:102F640002238B40134200F0AB8015F0020F00F0F7
:102F7400A780236813F0200F06D1236823F00A03E7
:102F84002360012380F821300368494A93424BD9D6
:102F9400783A934224D0143293422DD0143293427F
:102FA4002CD0143293422CD0143293422CD01432AD
:102FB40093422CD0143293422CD002F56272934285
:102FC4002BD0143293422AD01432934229D0143293
:102FD400934202D04FF4003203E04FF4005200E079
:102FE4000222344B5A60002380F82030836A002B7D
:102FF4003FF459AF984756E72022F2E74FF40072A6
:10300400EFE74FF40052ECE74FF40032E9E74FF4F6
:103014000012E6E74FF00072E3E70222E1E7202224
:10302400DFE74FF40072DCE7234A934224D01432E2
:10303400934225D01432934224D01432934224D0A4
:103044001432934224D01432934224D01432934243
:1030540024D002F56272934223D01432934222D0D8
:103064001432934221D01432934202D04FF40032EE
:1030740003E04FF4005200E00222104B5A60B2E722
:103084002022FAE74FF40072F7E74FF40052F4E716
:103094004FF40032F1E74FF40012EEE74FF0007204
:1030A400EBE70222E9E72022E7E74FF40072E4E7C6
:1030B4008000024000040240080002400000024078
:1030C400082303FA01F111423FF4EDAE15F0080FA5
:1030D4003FF4E9AE236823F00E032360026CC16B56
:1030E400012303FA02F24A60836380F8213000234B
:1030F40080F82030036B002B3FF4D5AE9847D2E61E
:1031040090F8210070470000074AD36823F4E06375
:103114001B041B0C000200F4E060034343F0BF6394
:1031240043F40033D360704700ED00E000B5194B61
:10313400DB68C3F30223C3F1070CBCF1040F28BFFF
:103144004FF0040C03F1040EBEF1060F18D9033B33
:103154004FF0FF3E0EFA0CFC21EA0C0199400EFAE6
:1031640003F322EA0303194300280BDB0901C9B264
:1031740000F1604000F5614080F800135DF804FB45
:103184000023E5E700F00F000901C9B2024B19540E
:10319400F4E700BF00ED00E014ED00E0002807DBD9
:1031A40000F01F02400901239340024A42F82030F4
:1031B400704700BF00E100E00138B0F1807F0BD21E
:1031C4004FF0E0235861054AF02182F823100020D3
:1031D400986107221A6170470120704700ED00E0F2
:1031E4007047000000B583B00A4B5A6942F00102EF
:1031F4005A615B6903F001030193019B00221146AC
:103204001020FFF793FF1020FFF7C8FF03B05DF80D
:1032140004FB00BF00100240FFF7E2FF0B480C491B
:103224000C4A002302E0D458C4500433C4188C421E
:10323400F9D3094A094C002301E013600432A24285
:10324400FBD300F00FF8FDF71FF8704700000020D3
:103254000C000020583B00080C000020C80400208B
:10326400FEE7000070B500260C4D0D4C641BA41045
:10327400A64209D100F022F800260A4D0A4C641B2C
:10328400A410A64205D170BD55F8043B98470136F9
:10329400EEE755F8043B98470136F2E7503B000847
:1032A400503B0008503B0008543B000803460244CE
:1032B400934200D1704703F8011BF9E7F8B500BF4A
:1032C400F8BC08BC9E467047F8B500BFF8BC08BC03
:0432D4009E4670475B
:1032D800436F756E7465720068656C6C6F20776FEC
:1032E800726C642100000000AE001040B081FFA1A4
:1032F800A6A83FC8D300D580D805D9F1DA12D830AE
:103308008D14AF000000000000000000002F000036
:1033180000000700070000147F147F1400242A7F90
:103328002A1200626408132300364955225000000F
:103338000503000000001C224100000041221C007F
:103348000014083E08140008083E0808000000A001
:1033580060000008080808080000606000000020FD
:1033680010080402003E5149453E0000427F4000DB
:10337800004261514946002141454B310018141261
:103388007F10002745454539003C4A49493000012E
:103398007109050300364949493600064949291E7D
:1033A80000003636000000005636000000081422DF
:1033B80041000014141414140000412214080002DF
:1033C8000151090600324959513E007C1211127C04
:1033D800007F49494936003E41414122007F414131
:1033E800221C007F49494941007F09090901003E23
:1033F8004149497A007F0808087F0000417F410061
:10340800002040413F01007F08142241007F4040D6
:103418004040007F020C027F007F0408107F003EBE
:103428004141413E007F09090906003E4151215EA4
:10343800007F091929460046494949310001017FA1
:103448000101003F4040403F001F2040201F003F37
:103458004038403F006314081463000708700807E9
:1034680000615149454300007F41410000552A55FC
:103478002A55000041417F00000402010204004077
:103488004040404000000102040000205454547899
:10349800007F4844443800384444442000384444B9
:1034A800487F00385454541800087E090102001857
:1034B800A4A4A47C007F080404780000447D400094
:1034C800004080847D00007F102844000000417F78
:1034D8004000007C04180478007C08040478003854
:1034E8004444443800FC242424180018242418FCDC
:1034F800007C0804040800485454542000043F4445
:103508004020003C4040207C001C2040201C003C07
:103518004030403C004428102844001CA0A0A07C57
:10352800004464544C44141414141414000000008F
:10353800000000000000000000000000000000F88B
:1035480000000000000000333000000000100C06EE
:10355800100C0600000000000000000040C0784089
:10356800C0784000043F04043F040400007088FC55
:1035780008300000001820FF211E0000F008F000AD
:10358800E018000000211C031E211E0000F008881E
:10359800700000001E2123241927211010160E0088
:1035A800000000000000000000000000000000E033
:1035B8001804020000000007182040000002041848
:1035C800E00000000040201807000000404080F0A4
:1035D800804040000202010F01020200000000F0DA
:1035E800000000000101011F0101010000000000AE
:1035F8000000000080B07000000000000000000023
:1036080000000000000101010101010100000000AB
:103618000000000000303000000000000000000042
:1036280080601804006018060100000000E010081F
:103638000810E000000F102020100F00001010F8F4
:10364800000000000020203F202000000070080833
:1036580008887000003028242221300000300888B3
:10366800884830000018202020110E000000C020DB
:1036780010F8000000070424243F240000F80888FC
:10368800880808000019212020110E0000E0108889
:1036980088180000000F112020110E0000380808BB
:1036A800C83808000000003F0000000000708808CB
:1036B80008887000001C222121221C0000E010084C
:1036C8000810E0000000312222110F00000000C0A5
:1036D800C000000000000030300000000000008042
:1036E8000000000000008060000000000000804032
:1036F800201008000001020408102000404040404B
:10370800404040000404040404040400000810209D
:1037180040800000002010080402010000704808E2
:103728000808F0000000003036010000C030C8284A
:10373800E810E0000718272423140B000000C03805
:10374800E0000000203C23020227382008F888887F
:1037580088700000203F202020110E00C03008088B
:1037680008083800071820202010080008F8080862
:103778000810E000203F202020100F0008F888885B
:10378800E8081000203F20202320180008F8888827
:10379800E8081000203F200003000000C03008089F
:1037A8000838000007182020221E020008F8080028
:1037B8000008F808203F210101213F20000808F8EF
:1037C800080800000020203F202000000000080812
:1037D800F8080800C08080807F00000008F888C0D2
:1037E80028180800203F20012638200008F8080083
:1037F80000000000203F20202020300008F8F800BA
:10380800F8F80800203F003F003F200008F830C0CB
:103818000008F808203F200007183F00E0100808BB
:103828000810E0000F10202020100F0008F80808EA
:103838000808F000203F210101010000E0100808FD
:103848000810E0000F18242438504F0008F8888822
:1038580088887000203F2000030C30200070880802
:10386800080838000038202121221C00180808F810
:10387800080818000000203F2000000008F8080091
:103888000008F808001F202020201F000878880062
:1038980000C83808000007380E010000F80800F8D2
:1038A8000008F800033C0700073C0300081868807C
:1038B8008068180820302C03032C30200838C800F2
:1038C800C83808000000203F200000001008080841
:1038D800C83808002038262120201800000000FEE3
:1038E800020202000000007F40404000000C30C08F
:1038F80000000000000000010638C00000020202BB
:10390800FE000000004040407F000000000004026C
:103918000202040000000000000000000000000097
:103928000000000080808080808080800002020487
:10393800000000000000000000000000000080807F
:10394800808000000019242222223F2008F80080ED
:1039580080000000003F112020110E0000000080B0
:1039680080800000000E112020201100000000803F
:103978008088F800000E112020103F200000808071
:1039880080800000001F222222221300008080F085
:10399800888888180020203F2020000000008080B0
:1039A80080808000006B94949493600008F80080F5
:1039B80080800000203F210000203F200080989850
:1039C800000000000020203F2020000000000080B0
:1039D8009898000000C08080807F000008F80000F0
:1039E80080808000203F24022D302000000808F845
:1039F800000000000020203F202000008080808000
:103A080080808000203F20003F20003F8080008091
:103A180080800000203F210000203F20000080809F
:103A280080800000001F202020201F008080008050
:103A38008000000080FFA12020110E0000000080FF
:103A480080808000000E112020A0FF8080808000F0
:103A58008080800020203F2120000100000080801D
:103A6800808080000033242424241900008080E012
:103A7800808000000000001F2020000080800000DF
:103A880000808000001F202020103F2080808000C0
:103A98000080808000010E300806010080800080D0
:103AA800008080800F300C030C300F0000808000F5
:103AB800808080000020312E0E3120008080800020
:103AC8000080808080818E701806010000808080D0
:103AD800808080000021302C22213000000000006E
:103AE800807C020200000000003F4040000000000F
:103AF800FF00000000000000FF0000000002027C40
:103B0800800000000040403F000000000006010166
:103B18000202040400000000000000000203040583
:103B2800060708090A0B0C0D0E0F10100102000001
:103B38000000000000000000010203040607080955
:083B480000000000010203046B
:043B5000090200085E
:043B5400E50100087F
:0C3B5800010000001000000000127A00C4
:040000050800321DA0
:00000001FF
