:020000040800F2
:1000000000000120D1190008550500085705000817
:10001000590500085B0500085D05000800000000A8
:100020000000000000000000000000005F05000864
:100030006105000800000000630500086505000870
:10004000191A0008191A0008191A0008191A0008C4
:10005000191A0008191A0008191A0008191A0008B4
:10006000191A0008191A0008191A0008191A0008A4
:10007000191A0008191A0008191A0008191A000894
:10008000191A0008191A0008191A0008191A000884
:10009000191A0008191A0008191A0008191A000874
:1000A000191A0008191A0008191A0008191A000864
:1000B000191A0008191A0008191A0008191A000854
:1000C000191A0008191A0008191A0008191A000844
:1000D000191A0008191A0008191A0008191A000834
:1000E000191A0008191A0008191A0008191A000824
:1000F000191A0008191A0008191A0008191A000814
:10010000191A0008191A00086D050008191A0008C4
:10011000191A0008191A0008191A0008191A0008F3
:10012000191A0008191A0008191A0008191A0008E3
:1001300000000000000000000000000000000000BF
:1001400000000000000000000000000000000000AF
:10015000000000000000000000000000000000009F
:10016000000000000000000000000000000000008F
:10017000000000000000000000000000000000007F
:10018000000000000000000000000000000000006F
:10019000000000000000000000000000000000005F
:1001A000000000000000000000000000000000004F
:1001B000000000000000000000000000000000003F
:1001C000000000000000000000000000000000002F
:1001D000000000000000000000000000000000001F
:0401E0005FF8E0F1F3
:1001E40010B5054C237833B9044B13B10448AFF36D
:1001F40000800123237010BD700000200000000067
:10020400182A000808B5034B1BB103490348AFF390
:10021400008008BD0000000074000020182A0008B7
:1002240072B6FEE700B591B02822002106A801F0BD
:1002340017FC002301930293039304930593012273
:1002440006924FF4803307930A9202220D920E9382
:100254004FF4E0130F9306A800F03CFE80B90F237F
:10026400019302210291002303934FF480620492CC
:10027400059301A801F060F820B911B05DF804FB02
:10028400FFF7CEFFFFF7CCFF10B500F0D5FDFFF769
:10029400C9FF00F02DF800F05DF801F0C7FA002462
:1002A40014E00F4B1B8803F03F0103EB01410D48A1
:1002B40001F0DEFB0C4B00221A700CE020210B48ED
:1002C40001F03CFA00240A2000F0DAFD064B93F911
:1002D4000030002BE5DB0134E4B2142CEED8F2E755
:1002E4008E000020302A00088C00002000180140F5
:1002F40010B586B00023029303930493059303F18E
:10030400804303F504339A6942F040029A619A6982
:1003140002F040020092009A9A6942F004029A6143
:100324009B6903F004030193019B094C01222021E2
:10033400204601F0FDF92023029301230393049343
:100344000323059302A9204601F0D2F806B010BD9C
:100354000018014000B58BB000230693079308935F
:100364000993049305930093019302930393244800
:10037400244A02604722426083604FF6FF72C260E3
:100384000361836100F0B8FA50BB4FF480530693C5
:1003940006A91B4800F0AAFB28BB194800F0D8FAAC
:1003A40020BB00230493059304A9154800F0DEFC48
:1003B400F8B9002200920123019302920392694644
:1003C4000F4800F025FBB8B90D480268D36843F024
:1003D4000103D360002100F017FC0BB05DF804FBAF
:1003E400FFF71EFFD1E7FFF71BFFD6E7FFF718FF64
:1003F400D7E7FFF715FFDCE7FFF712FFE4E700BFDD
:1004040090000020000C004010B586B00023029339
:100414000393049305930268144B9A4201D006B0E7
:1004240010BD03F50133DA6942F00802DA61DA69D2
:1004340002F008020092009A9A6942F004029A615A
:100444009B6903F004030193019B0124029402239A
:10045400049302A9064801F04BF8002221463220F9
:1004640001F088F9322001F0BDF9D8E7000C004012
:10047400000801400268134B9A4200D07047124BA7
:100484001A7893F90030002BF8DB12F0400FF5D006
:1004940002F03F033F2B03D001320B4B1A70EDE700
:1004A4000A4B1B68196A21F00A011962196A196258
:1004B40062F07F02044B1A70054B4FF6FF721A80EC
:1004C400704700BF000C00408C000020900000200A
:1004D4008E00002002681A4B9A4200D07047194BD4
:1004E4001A7893F90030002BF8DB12F0400F12D188
:1004F400144B00221A7014490A8040211970134BBE
:100504001B685A621A6A22F00A021A621A6A42F0D4
:1005140002021A62704710B562F07F02094B1A702A
:100524000A4C0021204600F0C8F8074B18802368C5
:100534001A6A22F00A021A621A6A1A6210BD00BF0D
:10054400000C00408C0000208E0000209000002051
:10055400FEE7FEE7FEE7FEE7FEE7704770477047F9
:1005640008B500F07BFC08BD08B5024800F0C1F8EE
:1005740008BD00BF9000002082B00E4B9A6942F083
:1005840001029A619A6902F001020092009ADA6902
:1005940042F08052DA61DB6903F080530193019BDE
:1005A400054A536823F0E06343F00073536002B0DC
:1005B400704700BF001002400000014010B4036AFD
:1005C400046A24F001040462846924F0F00C4CEA07
:1005D400021223F00A030B438261036210BC7047CA
:1005E40030B4056A046A24F010040462846924F4B3
:1005F400407C4CEA022C2CF4704C1B039BB243EA63
:100604000C0325F0A005090101F0A0012943836131
:10061400016230BC704710B4036A046A24F0100409
:100624000462846924F4704C4CEA023223F0A0037F
:1006340043EA01138261036210BC704730B4056A57
:10064400046A24F480740462C46924F0030C4CEA40
:10065400020C2CF0F00C1B01DBB243EA0C0325F472
:100664000075090201F400712943C361016230BCC1
:10067400704730B4056A046A24F480540462C4697F
:1006840024F4407C4CEA022C2CF4704C1B039BB2E7
:1006940043EA0C0325F40055090301F400512943EE
:1006A400C361016230BC7047836823F070030B435D
:1006B40043F007038360704770470C2914D8DFE8C0
:1006C40001F0071313130A1313130D13131310005C
:1006D4000368586B70470368986B70470368D86B5E
:1006E40070470368186C7047002070477047704764
:1006F400704770B504460368DE681D6915F0020F83
:1007040010D016F0020F0DD06FF002021A6101230F
:10071400037703689B6913F0030F5ED0FFF7DAFEDB
:100724000023237715F0040F12D016F0040F0FD016
:1007340023686FF004021A610223237723689B69FC
:1007440013F4407F4FD02046FFF7C4FE00232377E5
:1007540015F0080F12D016F0080F0FD023686FF0B1
:1007640008021A61042323772368DB6913F0030F5B
:1007740040D02046FFF7AEFE0023237715F0100F7C
:1007840012D016F0100F0FD023686FF010021A6108
:10079400082323772368DB6913F4407F31D0204694
:1007A400FFF798FE0023237715F0010F02D016F00F
:1007B400010F2DD115F0800F02D016F0800F2FD12C
:1007C40015F0400F02D016F0400F31D115F0200F74
:1007D40002D016F0200F33D170BDFFF787FF2046FB
:1007E400FFF785FF9CE72046FFF780FF2046FFF7D1
:1007F4007EFFABE72046FFF779FF2046FFF777FF40
:10080400BAE72046FFF772FF2046FFF770FFC9E7FB
:1008140023686FF001021A612046FFF72BFEC9E737
:1008240023686FF080021A61204600F0DEFAC7E701
:1008340023686FF040021A612046FFF759FFC5E7AD
:1008440023686FF020021A61204600F0CDFAC3E756
:100854000368284A904212D002F5006290420ED0FA
:10086400B0F1804F0BD0A2F59832904207D002F538
:100874008062904203D002F58062904203D123F05B
:1008840070034A6813431B4A904212D002F5006277
:1008940090420ED0B0F1804F0BD0A2F59832904226
:1008A40007D002F58062904203D002F58062904244
:1008B40003D123F44073CA68134323F080034A69C5
:1008C400134303608B68C3620B688362094B9842CD
:1008D40003D003F50063984201D10B69036301233C
:1008E4004361036913F0010F03D0036923F001038B
:1008F40003617047002C014040B310B5044690F8E2
:100904003D30F3B1022384F83D30214651F8040B05
:10091400FFF79EFF012384F8463084F83E3084F8C4
:100924003F3084F8403084F8413084F8423084F811
:10093400433084F8443084F8453084F83D30002056
:1009440010BD80F83C30FFF75FFDDBE70120704706
:1009540040B310B5044690F83D30F3B1022384F857
:100964003D30214651F8040BFFF772FF012384F850
:10097400463084F83E3084F83F3084F8403084F8C0
:10098400413084F8423084F8433084F8443084F8A9
:10099400453084F83D30002010BD80F83C30FFF72E
:1009A4008BFEDBE70120704770B4066A046A24F00A
:1009B400010404628469154DA84215D005F500654B
:1009C400A84211D0B0F1804F0ED0A5F59835A842B9
:1009D4000AD005F58065A84206D005F58065A842D1
:1009E40002D044F0010202E024F00304224322F086
:1009F400F0021B01DBB2134326F00A0201F00A01E4
:100A040011438361016270BC704700BF002C014038
:100A140038B590F83C30012B5AD004460D460123DA
:100A240080F83C3052B1042A1AD0082A2BD00C2A60
:100A34003BD00120002384F83C3038BDCB684A68A1
:100A440009680068FFF7B0FF2268936923F00C037C
:100A5400936122689369A9680B4393610020E9E7D5
:100A6400CB684A6809680068FFF7BAFD2268936991
:100A740023F44063936122689369A96843EA0123DC
:100A840093610020D6E7CB684A6809680068FFF7DD
:100A9400D5FD2268D36923F00C03D3612268D3699E
:100AA400A9680B43D3610020C4E7CB684A6809688E
:100AB4000068FFF7DEFD2268D36923F44063D36145
:100AC4002268D369A96843EA0123D3610020B1E70E
:100AD4000220B2E710B4846824F47F4C42EA032273
:100AE4000A4342EA0C02826010BC704790F83C3022
:100AF400012B78D010B50446012380F83C30022342
:100B040080F83D300268936823F47F4323F0770331
:100B140093600B68602B4CD029D8402B54D00CD94F
:100B2400502B22D1CA6849680068FFF747FD50215D
:100B34002068FFF7B9FD002005E0202B0DD009D96E
:100B4400302B0AD00120012384F83D30002384F89F
:100B54003C3010BD0BB1102B05D119462068FFF7AE
:100B6400A3FD0020EFE70120EDE70120EBE7B3F55B
:100B7400805F34D0B3F5005F0CD1CB684A688968D4
:100B84000068FFF7A7FF2268936843F480439360EB
:100B94000020D8E7702B24D1CB684A6889680068A4
:100BA400FFF798FF2268936843F07703936000206F
:100BB400C9E7CA6849680068FFF72DFD602120680D
:100BC400FFF772FD0020BEE7CA6849680068FFF7B6
:100BD400F5FC40212068FFF767FD0020B3E7002003
:100BE400B1E70120AFE70220704701F01F010123A4
:100BF40003FA01FC036A23EA0C030362036A02FAA0
:100C040001F10B430362704710B504460B4609BB60
:100C140090F83E00C0B26BBB94F84220D2B20128D7
:100C240040F09C80012A40F09A809BBB022184F80A
:100C34003E10002B3ED1022184F842100C2B00F20E
:100C44008F80DFE803F0478D8D8D6E8D8D8D748DD3
:100C54008D8D7A00042905D0082907D090F8410029
:100C6400C0B2D8E790F83F00C0B2D4E790F8400093
:100C7400C0B2D0E7042B05D0082B07D094F8452048
:100C8400D2B2CCE794F84320D2B2C8E794F8442017
:100C9400D2B2C4E7042B05D0082B07D0022184F874
:100CA4004110C6E7022184F83F10C2E7022184F80C
:100CB4004010BEE7042B05D0082B07D0022184F88E
:100CC4004510BBE7022184F84310B7E7022184F8FA
:100CD4004410B3E72168CA6842F00202CA600122E4
:100CE40019462068FFF781FF23681F4A93422AD0E0
:100CF40002F50062934226D0B3F1804F23D0A2F5CF
:100D0400983293421FD002F5806293421BD002F5C1
:100D14008062934217D01A6842F001021A600020E0
:100D24001DE02168CA6842F00402CA60D7E721685E
:100D3400CA6842F00802CA60D1E72168CA6842F072
:100D44001002CA60CBE79A6802F00702062A09D0AB
:100D54001A6842F001021A60002000E0012010BD70
:100D64001046FCE70020FAE7002C014090F83C30E4
:100D7400012B34D010B4012380F83C30022380F8D6
:100D84003D3003685A689C6822F0700C0A6842EA95
:100D94000C025A600368134A934212D002F50062AF
:100DA40093420ED0B3F1804F0BD0A2F59832934208
:100DB40007D002F58062934203D002F58062934229
:100DC40004D124F080044A6814439C60012380F811
:100DD4003D30002380F83C30184610BC7047022098
:100DE400704700BF002C01407047704710B504469F
:100DF4000E4B18784FF47A73B3FBF0F30C4A106877
:100E0400B0FBF3F000F0FCFC68B90F2C01D9012011
:100E14000AE0002221464FF0FF3000F0ABFC054B06
:100E24001C60002000E0012010BD00BF0000002075
:100E3400080000200400002008B5074A136843F0A6
:100E440010031360032000F083FC0F20FFF7CEFF94
:100E5400FFF792FB002008BD00200240034A1168FE
:100E6400034B1B780B441360704700BFD80000206D
:100E740000000020014B1868704700BFD800002014
:100E840038B50446FFF7F6FF0546B4F1FF3F02D03C
:100E9400044B1B781C44FFF7EDFF401BA042FAD320
:100EA40038BD00BF0000002082B0084B1B68084A10
:100EB400A2FB03235B0A00FB03F3019300BF019B26
:100EC4005A1E0192002BF9D102B07047080000208D
:100ED400D34D6210002800F0F18170B582B0044651
:100EE400036813F0010F2CD0994B5B6803F00C03DB
:100EF400042B1DD0964B5B6803F00C03082B12D017
:100F04006368B3F5803F41D0002B55D103F1804392
:100F140003F504331A6822F480321A601A6822F442
:100F240080221A6037E08A4B5B6813F4803FE7D075
:100F3400874B1B6813F4003F03D06368002B00F059
:100F4400BF81236813F0020F75D0814B5B6813F0E7
:100F54000C0F5FD07E4B5B6803F00C03082B54D05E
:100F64002369002B00F08A807A4B01221A60FFF774
:100F740081FF0546764B1B6813F0020F75D1FFF70E
:100F840079FF401B0228F5D903209EE1704A1368BB
:100F940043F480331360636843B3FFF76BFF054684
:100FA4006B4B1B6813F4003FCBD1FFF763FF401B6F
:100FB4006428F5D9032088E1B3F5A02F09D0644B48
:100FC4001A6822F480321A601A6822F480221A60A5
:100FD400E1E703F18043A3F53C331A6842F480222D
:100FE4001A601A6842F480321A60D4E7FFF742FFAD
:100FF4000546574B1B6813F4003FA2D0FFF73AFF96
:10100400401B6428F5D903205FE1514B5B6813F45E
:10101400803FA5D14E4B1B6813F0020F03D0236908
:10102400012B40F04F814A4A136823F0F8036169A9
:1010340043EAC1031360236813F0080F33D0A36994
:10104400002B5CD0434B0122C3F88024FFF712FF2E
:1010540005463F4B5B6A13F0020F21D1FFF70AFFED
:10106400401B0228F5D903202FE1394A136823F0E5
:10107400F803616943EAC1031360DCE7354B0022DE
:101084001A60FFF7F7FE0546314B1B6813F0020F99
:10109400D1D0FFF7EFFE401B0228F5D9032014E15D
:1010A4000120FFF701FF236813F0040F00F096807E
:1010B400274BDB6913F0805F34D1254BDA6942F0AA
:1010C4008052DA61DB6903F080530193019B0125AF
:1010D400214B1B6813F4807F26D0E368012B3DD09D
:1010E400002B53D103F1804303F504331A6A22F031
:1010F40001021A621A6A22F004021A6233E0154BE2
:101104000022C3F88024FFF7B5FE0546104B5B6A46
:1011140013F0020FC7D0FFF7ADFE401B0228F5D92C
:101124000320D2E00025D3E70B4A136843F480730D
:101134001360FFF79FFE0646074B1B6813F4807F7E
:10114400CBD1FFF797FE801B6428F5D90320BCE0C0
:101154000010024000004242007000405F4A136ADF
:1011640043F001031362E36833B3FFF783FE0646DB
:101174005A4B1B6A13F0020F2FD1FFF77BFE801B23
:1011840041F288339842F3D903209EE0052B09D01D
:10119400524B1A6A22F001021A621A6A22F00402FD
:1011A4001A62E0E74D4B1A6A42F004021A621A6AA4
:1011B40042F001021A62D6E7FFF75CFE0646474B8F
:1011C4001B6A13F0020F08D0FFF754FE801B41F294
:1011D40088339842F3D9032077E0E5B9E369002B1B
:1011E40072D03E4A526802F00C02082A56D0022BF2
:1011F40017D03B4B00221A66FFF73CFE0446374BE0
:101204001B6813F0007F47D0FFF734FE001B022851
:10121400F5D9032059E0314AD36923F08053D361CF
:10122400DCE72F4B00221A66FFF724FE05462B4B02
:101234001B6813F0007F06D0FFF71CFE401B02283A
:10124400F5D9032041E0236AB3F5803F1AD023493E
:101254004B6823F47413226A606A024313434B609D
:101264001F4B01221A66FFF705FE04461B4B1B6841
:1012740013F0007F0ED1FFF7FDFD001B0228F5D906
:10128400032022E0154A536823F40033A1680B437A
:101294005360DCE7002018E0002016E0012B16D094
:1012A4000E4B5B6803F48031226A914211D103F43E
:1012B4007013626A93420ED1002006E00120704749
:1012C400012002E0012000E0002002B070BD0120F6
:1012D400FBE70120F9E70120F7E700BF0010024017
:1012E400000042420F4B5B6803F00C02082A01D055
:1012F4000D487047C3F383420C49885C13F4803F64
:101304000BD0084B5B68C3F34043094AD35C064ADD
:1013140002FB00F0B0FBF3F07047064B03FB00F058
:10132400704700BF0010024000127A00402A0008F3
:10133400502A000800093D00002800F0A08070B584
:101344000D460446524B1B6803F007038B420BD235
:101354004F4A136823F007030B431360136803F029
:1013640007038B4240F08D80236813F0020F17D0DF
:1013740013F0040F04D0474A536843F4E063536006
:10138400236813F0080F04D0424A536843F46053AF
:101394005360404A536823F0F003A1680B43536041
:1013A400236813F0010F31D06368012B20D0022B86
:1013B40025D0384A126812F0020F64D035494A68C1
:1013C40022F0030213434B60FFF754FD0646314BF2
:1013D4005B6803F00C036268B3EB820F16D0FFF76F
:1013E40049FD801B41F288339842F0D9032045E03F
:1013F400284A126812F4003FE0D101203EE0254A59
:10140400126812F0007FD9D1012037E0204B1B680D
:1014140003F00703AB420AD91D4A136823F00703FC
:101424002B431360136803F00703AB422DD12368E9
:1014340013F0040F06D0174A536823F4E063E168FD
:101444000B435360236813F0080F07D0114A536805
:1014540023F46053216943EAC1035360FFF742FF59
:101464000C4B5B68C3F303130B4AD35CD8400B4BA0
:1014740018600B4B1868FFF7B9FC002070BD012001
:1014840070470120FAE70120F8E70120F6E700BFE2
:101494000020024000100240542A000808000020E6
:1014A40004000020014B1868704700BF08000020AA
:1014B40008B5FFF7F7FF044B5B68C3F30223034A45
:1014C400D35CD84008BD00BF00100240642A000865
:1014D40008B5FFF7E7FF044B5B68C3F3C223034A75
:1014E400D35CD84008BD00BF00100240642A000845
:1014F40070B582B00024A446B0E0874DAA4210D053
:1015040007D9864DAA420CD005F58035AA4208D0E9
:1015140013E0A5F58015AA4203D005F57025AA426B
:1015240007D18A68002A62D0012A5BD0436108246B
:1015340003E0A5F58015AA42F3D0BEF1FF0F58D8F9
:101544000646BEF1FF0F56D84FEA8C0233680F25CA
:10155400954023EA050304FA02F2134333604B680F
:1015640013F0805F78D06E4B9A6942F001029A6161
:101574009B6903F001030193019B4FEA9C02951CB4
:10158400684B53F825600CF003039D000F23AB4018
:1015940026EA0306644B984233D003F580639842ED
:1015A40000F0988003F58063984200F0958003F57D
:1015B4008063984200F0928003F58063984200F0C3
:1015C4008F8003F58063984219D006231AE0CC6813
:1015D400B3E7CC680434B0E7CC680834ADE7CC6832
:1015E4000C34AAE703610824A7E70024A5E7042430
:1015F400A3E7061DA5E7ACF108029200A6E70523C0
:1016040000E00023AB4033430232464D45F822301C
:101614004B6813F4801F65D0444A936843EA0E0371
:1016240093604B6813F4001F62D0404AD36843EAC6
:101634000E03D3604B6813F4003F5FD03B4A5368FA
:1016440043EA0E0353604B6813F4803F5CD0374A7F
:10165400136843EA0E0313600CF1010C0A6832FAB2
:101664000CF357D0012303FA0CF302EA030E33EA16
:101674000202F1D14A68122A3FF63FAF122A3FF61E
:101684005CAF01A555F822F027150008D315000812
:10169400DD150008EF1500083F1500083F15000888
:1016A4003F1500083F1500083F1500083F150008C6
:1016B4003F1500083F1500083F1500083F150008B6
:1016C4003F1500083F1500083F150008D71500080E
:1016D400E3150008012395E7022393E7032391E729
:1016E40004238FE7114A936823EA0E03936098E773
:1016F4000E4AD36823EA0E03D3609BE70B4A536870
:1017040023EA0E0353609EE7084A136823EA0E0394
:101714001360A1E702B070BD000022100000311078
:101724000010024000000140000801400004014094
:101734000AB101617047090401617047C36801EA95
:10174400030221EA030141EA0241016170470000FA
:10175400074AD36823F4E0631B041B0C000200F463
:10176400E060034343F0BF6343F40033D360704746
:1017740000ED00E000B5194BDB68C3F30223C3F1AD
:10178400070CBCF1040F28BF4FF0040C03F1040E46
:10179400BEF1060F18D9033B4FF0FF3E0EFA0CFCC6
:1017A40021EA0C0199400EFA03F322EA03031943D8
:1017B40000280BDB0901C9B200F1604000F561406B
:1017C40080F800135DF804FB0023E5E700F00F0048
:1017D4000901C9B2024B1954F4E700BF00ED00E05F
:1017E40014ED00E0002807DB00F01F02400901238C
:1017F4009340024A42F82030704700BF00E100E005
:101804000138B0F1807F0BD24FF0E0235861054AD4
:10181400F02182F823100020986107221A61704792
:101824000120704700ED00E07047000008B50A4849
:101834000A4B03604FF4E133436000238360C360C9
:1018440003610C2242618361C36100F08FF800B927
:1018540008BDFEF7E5FCFBE7DC0000200038014092
:1018640010B586B000230293039304930593026892
:10187400174B9A4201D006B010BD03F558439A693C
:1018840042F480429A619A6902F480420092009A7A
:101894009A6942F004029A619B6903F0040301937C
:1018A400019B4FF4007302930223039303230593D4
:1018B400084C02A92046FFF71BFE4FF480630293F5
:1018C40000230393049302A92046FFF711FED2E7F5
:1018D400003801400008014010B50446026813694D
:1018E40023F44053C1680B431361836802691343B3
:1018F40042691A430168CB6823F4B05323F00C0304
:101904001343CB600268536923F4407381690B432A
:1019140053610268134B9A4220D0FFF7C9FD024677
:1019240002EB820202EB820263689B00B2FBF3F2D9
:101934000D48A0FB02314909642303FB11231B0159
:101944003233A0FB03235B0903F0F00202EB011224
:1019540003F00F03216813448B6010BDFFF7B8FD3B
:101964000246DDE7003801401F85EB5160B310B536
:10197400044690F8413013B3242384F8413022689C
:10198400D36823F40053D3602046FFF7A5FF2268F1
:10199400136923F4904313612268536923F02A03E3
:1019A40053612268D36843F40053D3600020606419
:1019B400202384F8413084F84230606310BD80F8FD
:1019C4004030FFF74DFFD7E701207047FFF72CFFAA
:1019D4000B480C490C4A002302E0D458C450043389
:1019E400C4188C42F9D3094A094C002301E013605E
:1019F4000432A242FBD300F00FF8FEF745FC704717
:101A040000000020700000200C2B00087000002053
:101A140038010020FEE7000070B500260C4D0D4C87
:101A2400641BA410A64209D100F0F4FF00260A4D5D
:101A34000A4C641BA410A64205D170BD55F8043BA2
:101A440098470136EEE755F8043B98470136F2E72C
:101A5400042B0008042B0008042B0008082B0008A2
:101A640003460244934200D1704703F8011BF9E78F
:101A74000FB40A4B13B51C6824B1A36913B92046EB
:101A840000F066F805AB2046049AA168019300F0C3
:101A9400BBF902B0BDE8104004B070470C00002050
:101AA400002310B50446C0E90033C0E90433836061
:101AB40081814366C2818361194608225C30FFF745
:101AC400CFFF054B24626362044BA362044BE362C1
:101AD400044B236310BD00BFB9230008DB230008B7
:101AE4001324000837240008014900F0AFB800BFF0
:101AF40009270008682270B54D1E55430E4605F1AE
:101B0400740100F0E5F8044640B10021C0E9001674
:101B14000C30A06005F16802FFF7A2FF204670BDFB
:101B2400014800F0B3B800BF25010020014800F0CF
:101B3400AEB800BF25010020014800F0A7B800BFDF
:101B440026010020014800F0A2B800BF26010020B1
:101B540010B50446FFF7F0FFA3691BB1BDE81040C0
:101B6400FFF7F0BFC4E912332365134B134A1B6814
:101B7400A262A34208BF0123204608BFA36100F06C
:101B84001FF86060204600F01BF8A060204600F0BB
:101B940017F800220421E0606068FFF781FF01224A
:101BA4000921A068FFF77CFF02221221E068FFF7F9
:101BB40077FF0123A361D1E76C2A0008ED1A00081E
:101BC400F8B50746FFF7ACFF1E4B1E68B36913B99F
:101BD4003046FFF7BDFF4836D6E90134013B03D553
:101BE40033680BB33668F7E7B4F90C50D5B9164B24
:101BF40004F15800E360656600F047F8FFF796FFCC
:101C040008222946C4E90155C4E904552560A561A3
:101C140004F15C00FFF724FFC4E90D55C4E9125533
:101C24002046F8BD6834D9E704213846FFF762FF3F
:101C3400044630600028D5D1FFF778FF0C233B60C1
:101C4400EEE700BF6C2A00080100FFFF2DE9F8430E
:101C540006468846002700F14804D4E90195B9F105
:101C6400010905D52468002CF7D13846BDE8F8836E
:101C7400AB89012B07D9B5F90E30013303D02946BE
:101C84003046C04707436835E9E7704770477047F7
:101C940070B50E4E0C463168054611B900F07AFB5A
:101CA40030602146284600F075FB431C0AD0C41C52
:101CB40024F00304A04207D0211A284600F06AFB4E
:101CC400013001D14FF0FF34204670BD2C010020BB
:101CD4002DE9F041CD1C25F0030508350C2D38BF46
:101CE4000C25002D074601DBA94205D90C2300264B
:101CF4003B603046BDE8F0812E4E00F0C5FD3368F0
:101D04001C4634BB29463846FFF7C2FF431C044631
:101D14004DD134682646002E40D1236831463846DA
:101D240004EB030800F036FB80453AD12168033503
:101D34006D1A25F0030508350C2D38BF0C253846DF
:101D44002946FFF7A5FF01302BD023682B442360DD
:101D54000EE02268521B1ED40B2A16D96119A34225
:101D6400256018BF5960636808BF316062514B60D9
:101D7400384604F10B0600F08DFD26F00706231DFE
:101D8400F21AB6D09B1BA350B3E76268A3420CBF00
:101D940032605A60ECE723466468B2E734467668FA
:101DA400B9E70C2338463B6000F074FDA1E72560D9
:101DB400DEE700BF28010020936810B4013B002B2C
:101DC400936007DA9469A34201DB0A2902D110BCAB
:101DD40000F034BB1368581C10601970084610BC1E
:101DE4007047F8B506460F461446D518AC4201D1E3
:101DF400002007E03A46304614F8011BFFF7DCFFE9
:101E0400431CF3D1F8BD00002DE9F04F0D461446F4
:101E1400984606469DB018B183690BB9FFF798FE42
:101E2400894B9D421BD175686B6ED90705D4AB896C
:101E34009A0502D4A86DFFF729FFAB891B0701D5CA
:101E44002B69EBB92946304600F05CFBC0B16B6EE0
:101E5400DC070ED54FF0FF301DB0BDE8F08F7B4B93
:101E64009D4201D1B568DFE7794B9D4208BFF56813
:101E7400DAE7AB899805EDD4A86DFFF708FFE9E729
:101E84000023099320238DF8293030234FF00109D2
:101E9400CDF80C80DFF8BC818DF82A3023469A46B1
:101EA40013F8012B0AB1252AF9D1BAEB040B0BD094
:101EB4005B46224629463046FFF793FF013000F087
:101EC400AA80099A5A4409929AF80030002B00F02B
:101ED400A28000234FF0FF32CDE905230AF1010A65
:101EE400049307938DF853301A935446052214F83B
:101EF400011B584800F0BAFC049AD8B9D10644BF73
:101F040020238DF85330130744BF2B238DF853300F
:101F14009AF800302A2B15D0544600204FF00A0CB2
:101F2400079A214611F8013B303B092B4ED9B0B139
:101F3400079214E0A0EB080309FA03F31343A24643
:101F44000493D2E7039B191D1B680391002BBBBFAD
:101F54005B4242F0020207930793B8BF04922378CE
:101F64002E2B0CD163782A2B35D1039B02341A1DF6
:101F74001B680392002BB8BF4FF0FF330593DFF8C3
:101F8400D8A003225046217800F070FC40B14023D1
:101F9400A0EB0A0003FA00F0049B0134034304930A
:101FA40014F8011B06222D488DF8281000F05EFC61
:101FB40000283FD02A4B1BBB039B073323F00703A6
:101FC40008330393099B3B44099367E70C460120BC
:101FD4000CFB0232A5E700234FF00A0C194601342A
:101FE4000593204610F8012B303A092A03D9002B17
:101FF400C5D00591C3E7044601230CFB0121F0E79A
:1020040003AB00932A463046164B04A9AFF3008075
:102014000746781CD6D16B6ED90705D4AB899A05CF
:1020240002D4A86DFFF733FEAB895B063FF512AF10
:10203400099811E703AB00932A463046094B04A9DB
:1020440000F082F8E4E700BF902A0008B02A0008F4
:10205400702A0008D02A0008D62A0008DA2A0008C4
:1020640000000000E71D00082DE9F04716469946D8
:102074008A680B6907469342B8BF1346336091F8E8
:1020840043200C46DDF820800AB101333360236815
:10209400990642BF336802333360256815F006059C
:1020A40006D104F1190AE36832689B1AAB4228DCB2
:1020B40094F84320131E226818BF012392062DD4DE
:1020C4004946384604F14302C047013020D0236812
:1020D400E56803F00603042B18BF002532684FF0AF
:1020E4000006A36808BFAD1A226908BF25EAE57592
:1020F4009342C4BF9B1AED181A34B5421AD100207A
:1021040008E00123524649463846C047013003D10E
:102114004FF0FF30BDE8F0870135C4E73020E11807
:1021240081F843005A1C94F845102244023382F883
:102134004310C5E70123224649463846C0470130CB
:10214400E6D00136D9E700002DE9FF470F7E91461E
:10215400782F80460C469A460C9D01F1430207D81D
:10216400622F0AD8002F00F0D980582F00F0A480E5
:1021740004F1420584F842703AE0A7F16303152B99
:10218400F6D801A151F823F0E5210008F92100084F
:1021940075210008752100087521000875210008C3
:1021A400F92100087521000875210008752100082F
:1021B400752100080723000829220008E9220008E5
:1021C40075210008752100082923000875210008DD
:1021D400292200087521000875210008F122000851
:1021E4002B681A1D1B682A6004F1420584F84230EA
:1021F4000123A4E020682968060601F104030AD536
:102204000E682B60002E03DA2D23764284F84330C7
:102214000A235E4819E00E6810F0400F2B6018BFC7
:1022240036B2EFE72B682068191D2960010601D535
:102234001E6802E04606FBD51E886F2F0CBF0823DC
:102244000A235248002184F843106568002DA8BF72
:102254002168A560A4BF21F0040121600EB9002DFE
:102264004DD01546B6FBF3F103FB1167C75D05F8C6
:10227400017D3746BB420E46F4D9082B0BD12368A7
:10228400DE0708D5236961689942DEBF302305F86B
:10229400013C05F1FF35521B22614B462146404665
:1022A400CDF800A003AAFFF7DFFE01304CD14FF0B8
:1022B400FF3004B0BDE8F087344881F845702968E0
:1022C400236851F8046B29601D0614D5DF0744BF49
:1022D40043F0200323601EB9236823F02003236006
:1022E4001023AFE7236843F02003236078232848B2
:1022F40084F84530E3E7590648BFB6B2E6E7154629
:10230400BBE72B682668181D6169286035061B68C1
:1023140001D5196002E07006FBD51980002315462B
:102324002361BAE72B6800211A1D2A601D686268C0
:10233400284600F09BFA08B1401B60606368236183
:10234400002384F84330A8E72A46494640462369D7
:10235400D0470130ABD023689B0713D4E068039BBC
:102364009842B8BF1846A4E701233246494640467E
:10237400D04701309BD00135E36803995B1AAB4227
:10238400F2DCEBE7002504F11906F5E7E12A000881
:10239400F22A000838B50023054D044608462B6090
:1023A40000F022FB431C02D12B6803B1236038BD2B
:1023B4003001002010B50C46B1F90E1000F0B8FA47
:1023C4000028ABBF636DA3891B1823F48053ACBFF3
:1023D4006365A38110BD2DE9F0411F468B89054635
:1023E400DB050C46164605D502230022B1F90E1072
:1023F40000F0C4F9A389324623F48053A38128460C
:102404003B46B4F90E10BDE8F04100F069B810B5D0
:102414000C46B1F90E1000F0B1F9431CA38915BFA5
:10242400606523F4805343F48053A38118BFA381D0
:1024340010BDB1F90E1000F0D3B80000F8B50E4687
:102444001446054618B183690BB9FFF781FB214B8C
:102454009C422BD16C68A369A360A3891A072FD56A
:1024640023696BB323692068F6B2C01A63693746DF
:10247400834204DC2146284600F044F930BBA368BB
:102484000130013BA36023685A1C22601E706369FB
:10249400834204D0A389DB0706D50A2E04D1214642
:1024A400284600F02FF988B93846F8BD0A4B9C42FB
:1024B40001D1AC68CFE7094B9C4208BFEC68CAE77E
:1024C4002146284600F01EF80028CBD04FF0FF37F5
:1024D400EAE700BF902A0008B02A0008702A000822
:1024E40038B50446084611460022054D2A601A46AE
:1024F40000F088FA431C02D12B6803B1236038BD75
:1025040030010020324B70B51D6806460C4625B1DB
:10251400AB6913B92846FFF71BFB2E4B9C420FD126
:102524006C68A389B4F90C2019072CD4DD0611D4E6
:102534000923336042F040034FF0FF30A3813EE0B3
:10254400254B9C4201D1AC68EBE7244B9C4208BF6D
:10255400EC68E6E7580712D5616B41B104F1440316
:10256400994202D0304600F09BF900236363A389AB
:1025740023F02403A3810023636023692360A389D8
:1025840043F00803A38123694BB9A38903F420739F
:10259400B3F5007F03D02146304600F027F9A08927
:1025A400B4F90C2010F001030AD00023A36063697E
:1025B4005B42A361236943B910F08000BAD170BDB6
:1025C400810758BF6369A360F4E70020F7E700BF01
:1025D4000C000020902A0008B02A0008702A000885
:1025E40038B50023054D044608462B6000F0D4F9A5
:1025F400431C02D12B6803B1236038BD3001002095
:102604008A89F8B5054610070C4657D44B68002B49
:1026140004DC0B6C002B01DC0020F8BDE66A002E04
:10262400FAD0002312F480522F682B6032D0606DF0
:10263400A3895A0705D56368C01A636B0BB1236C71
:10264400C01A00230246E66A2846216AB047431CA2
:10265400A38906D129681D292CD8294ACA40D6073E
:1026640028D5002262602269D904226004D5421C64
:1026740001D12B6803B96065616B2F600029CBD051
:1026840004F14403994202D0284600F009F90020DD
:102694006063C2E7216A01232846B047411CC7D1C1
:1026A4002B68002BC4D01D2B01D0162B01D12F6019
:1026B400B2E7A38943F04003A381AEE70F69002F7B
:1026C400AAD0930718BF00230E6808BF4B69F61BF6
:1026D4000F608B60002E9FDD33463A462846216A00
:1026E400D4F828C0E047002806DCA3894FF0FF3067
:1026F40043F04003A38190E70744361AEAE700BF9A
:102704000100402038B50B6905460C4613B9002575
:10271400284638BD18B183690BB9FFF719FA144B71
:102724009C421BD16C68B4F90C30002BEFD0626E64
:10273400D00704D4990502D4A06DFFF7A7FA284660
:102744002146FFF75DFF636E0546DA07E0D4A389EF
:102754009B05DDD4A06DFFF79AFAD9E7054B9C429F
:1027640001D1AC68DFE7044B9C4208BFEC68DAE7B0
:10277400902A0008B02A0008702A000838B50446D8
:10278400084611460022054D2A601A4600F01CF93D
:10279400431C02D12B6803B1236038BD30010020F3
:1027A40070B50E46B1F90E10144600291D4696B0B8
:1027B40008DA0022B6F90C302A601A0610D44FF455
:1027C40080630EE06A4600F0C5F80028F1DB019A48
:1027D40002F47042A2F500535A425A412A60EEE7CD
:1027E40040230020236016B070BD00008B8973B5B0
:1027F4009D0706460C4607D504F147032360236171
:102804000123636102B070BD6A4601ABFFF7C8FFE4
:10281400009905463046FFF75BFA48B9B4F90C3025
:102824009A05EFD423F0030343F00203A381E3E703
:102834000D4BB362A389206043F08003A381009B06
:1028440020616361019B5BB13046B4F90E1000F066
:1028540093F828B1A38923F0030343F00103A38170
:10286400A0890543A581CDE7ED1A0008034610B5FC
:10287400C9B202449342184601D1002003E004780F
:1028840001338C42F6D110BD0148FFF7FFB900BFF8
:10289400240100200148FFF7FAB900BF24010020F9
:1028A40038B50546002940D051F8043C0C1F002BD4
:1028B400B8BFE418FFF7E8FF1C4A136833B9636034
:1028C40014602846BDE83840FFF7E4BFA34208D9A6
:1028D400206821188B4201BF19685B6809182160C0
:1028E400EDE71A465B680BB1A342FAD91168501898
:1028F400A0420BD120680144501883421160E0D1FA
:1029040018685B68014411605360DAE702D90C234C
:102914002B60D6E7206821188B4201BF19685B68D9
:102924000918216063605460CBE738BD280100209A
:1029340038B50446084611460022054D2A601A4659
:1029440000F04AF8431C02D12B6803B1236038BD60
:102954003001002038B50023064D044608461146D0
:102964002B6000F021F8431C02D12B6803B12360D3
:1029740038BD00BF3001002038B50023054D0446A2
:1029840008462B6000F018F8431C02D12B6803B1F1
:10299400236038BD300100205822024B4FF0FF3035
:1029A4001A607047300100205822024B4FF0FF306C
:1029B4001A607047300100205822024B00201A6030
:1029C400704700BF300100205822024B4FF0FF3007
:1029D4001A607047300100205822024B4FF0FF303C
:1029E4001A60704730010020044A05491368002B1F
:1029F40008BF0B4618441060184670473401002085
:102A0400380100205822024B4FF0FF301A60704703
:102A140030010020F8B500BFF8BC08BC9E467047E2
:0C2A2400F8B500BFF8BC08BC9E46704727
:102A3000484947483A25642075730D0A0000000094
:102A400002030405060708090A0B0C0D0E0F1010EF
:102A50000102000000000000000000000102030469
:102A6000060708090000000001020304100000200E
:102A70000000000000000000000000000000000056
:102A80000000000000000000000000000000000046
:102A90000000000000000000000000000000000036
:102AA0000000000000000000000000000000000026
:102AB0000000000000000000000000000000000016
:102AC0000000000000000000000000000000000006
:102AD000232D302B2000686C4C0065666745464707
:102AE000003031323334353637383941424344458A
:102AF00046003031323334353637383961626364F9
:042B00006566000006
:042B040009020008BA
:042B0800E5010008DB
:102B0C00010000001000000000127A0010000020EC
:102B1C0000000000902A0008B02A0008702A000863
:102B2C000000000000000000000000000000000099
:102B3C000000000000000000000000000000000089
:102B4C000000000000000000000000000000000079
:102B5C000000000000000000000000000000000069
:102B6C000000000000000000000000000000000059
:04000005080019D105
:00000001FF
