:020000040800F2
:10000000000001207D1B00081108000813080008EB
:10001000150800081708000819080008000000006B
:100020000000000000000000000000001B080008A5
:100030001D080008000000001F0800082108000833
:10004000C51B0008C51B0008C51B0008C51B000810
:10005000C51B0008C51B0008C51B0008C51B000800
:10006000C51B0008C51B0008C51B0008C51B0008F0
:10007000C51B0008C51B0008C51B0008C51B0008E0
:10008000C51B0008C51B0008C51B0008C51B0008D0
:10009000C51B0008C51B0008C51B0008C51B0008C0
:1000A000C51B0008C51B0008C51B0008C51B0008B0
:1000B000C51B0008C51B0008C51B0008C51B0008A0
:1000C000C51B0008C51B0008C51B0008C51B000890
:1000D000C51B000829080008C51B000839080008CE
:1000E000C51B0008C51B0008C51B0008C51B000870
:1000F000C51B0008C51B0008C51B0008C51B000860
:10010000C51B0008C51B0008C51B0008C51B00084F
:10011000C51B0008C51B0008C51B0008C51B00083F
:10012000C51B0008C51B0008C51B0008C51B00082F
:1001300000000000000000000000000000000000BF
:1001400000000000000000000000000000000000AF
:10015000000000000000000000000000000000009F
:10016000000000000000000000000000000000008F
:10017000000000000000000000000000000000007F
:10018000000000000000000000000000000000006F
:10019000000000000000000000000000000000005F
:1001A000000000000000000000000000000000004F
:1001B000000000000000000000000000000000003F
:1001C000000000000000000000000000000000002F
:1001D000000000000000000000000000000000001F
:0401E0005FF8E0F1F3
:1001E40010B5054C237833B9044B13B10448AFF36D
:1001F40000800123237010BD700000200000000067
:100204005C25000808B5034B1BB103490348AFF351
:10021400008008BD00000000740000205C25000878
:10022400034613F8012B002AFBD1181A0138704732
:1002340000B583B006E00A2301220DF107010D4841
:1002440000F03FFC0C4B1A880C4B1B889BB29A4263
:100254000DD0531C9BB208490B8009498A5C8DF868
:100264000720FF2BE7D9044B00221A80E3E703B0F1
:100274005DF804FB18010020140100203003002065
:100284003002002038B50446FFF7CAFF074D4FF48B
:100294007A7382B22146284600F013FC4FF47A7335
:1002A40002220349284600F00CFC38BD60010020FE
:1002B40074250008F0B5C1B007460E4600F0A8FE4C
:1002C4000546002400F0A4FE401BB04229D2164B80
:1002D4001B889BB2A342F5D0002201E000240A4609
:1002E400114B1B889BB2A3420DD0FE2A0BD8631C72
:1002F4009BB2511C89B20D48005D0DF80200FF2B22
:10030400ECD81C46EBE700230DF80230394668466A
:1003140001F0A4FC18B9044B1C88A4B2D2E7012054
:1003240000E0002041B0F0BD300300203002002086
:1003340010B5A0B00446FFF773FF024612496846A1
:1003440001F06CFC6846FFF79DFF4FF47A710F488B
:10035400FFF7B0FF08B920B010BD642000F05EFEC6
:100364002046FFF75DFF4FF0FF3382B22146084875
:1003740000F0A7FB4FF4FA610648FFF79BFF002843
:10038400E9D00120E7E700BF7825000888250008A8
:10039400600100208C25000810B503E0184B1B6891
:1003A400002B24DC174B1A8892B2174B1B889BB284
:1003B4009A4224D0134A13889BB2591C89B21180E3
:1003C4001249C95C13889BB27F2B02D913460022C1
:1003D4001A800D29E2D00A29E0D0094B1B687E2B34
:1003E400E0D8581C064A1060094AD154DAE7084894
:1003F4000024C454FFF79CFF014B1C60D2E710BDDE
:10040400100100208C0000202E020020AC010020EE
:100414009000002072B6FEE700B591B028220021BA
:1004240006A801F0F3FB00230193029303930493C2
:100434000593012206924FF4803307930A92022215
:100444000D920E934FF4E0130F9306A800F010FEE4
:1004540080B90F23019302210291002303934FF4E7
:1004640080620492059301A801F034F820B911B018
:100474005DF804FBFFF7CEFFFFF7CCFF30B587B084
:1004840000F0A8FDFFF7C8FF344B9A6942F001025F
:100494009A619B6903F001030093009B00F074F8D8
:1004A40000F0A4F800F0C4F82D48FFF7EBFE4FF479
:1004B400FA6000F0B3FD2B48FFF7E4FE4FF4FA6056
:1004C40000F0ACFD002513E02021274801F004FAD8
:1004D4004FF4FA7000F0A2FD0134042CF4DD012283
:1004E4002021214801F0F2F94FF47A7000F096FDD2
:1004F4008DB91E48FFF7C6FE41F288311C48FFF74C
:10050400D9FE054628B100222021174801F0DEF962
:10051400EEE70446E1E71748FFF7B4FE4FF4FA703C
:1005240000F07CFD0722144901A801F077FB01A823
:10053400FFF7A8FE4FF47A711048FFF7BBFE20B90D
:10054400FFF72AFFFFF774FEFAE74FF47A730722E6
:100554000B490C4800F0B5FAF2E700BF0010024066
:1005640094250008B0250008000C0140C0250008AF
:10057400E8250008EC2500087825000888250008EF
:10058400FC2500086001002010B586B0002302930A
:1005940003930493059303F1804303F504339A69A9
:1005A40042F008029A619A6902F008020092009AE5
:1005B4009A6942F004029A619B6903F0040301936F
:1005C400019B094C01222021204601F07FF92023C0
:1005D40002930123039304930323059302A9204662
:1005E40001F054F806B010BD000C014008B50D48E8
:1005F4000D4B03604FF4E133436000238360C36019
:1006040003610C2242618361C36100F02AFA28B9B4
:1006140001220649034800F0A4FC08BDFFF7FAFED6
:10062400F6E700BF18010020003801402C0200202A
:1006340008B50D480D4B03604FF4E13343600023CC
:100644008360C36003610C2242618361C36100F073
:1006540008FA28B901220649034800F082FC08BDC3
:10066400FFF7D8FEF6E700BF600100200048004015
:10067400A801002030B589B00023049305930693A4
:1006840007930368354A934204D0354A934233D0E2
:1006940009B030BD334B9A6942F480429A619A6939
:1006A40002F480420092009A9A6942F004029A612C
:1006B4009B6903F004030193019B4FF400730493BB
:1006C4000223059303230793274D04A9284600F02A
:1006D400DDFF4FF48063049300240594069404A979
:1006E400284600F0D3FF22462146252001F0E8F9F0
:1006F400252001F01DFACBE71A4BDA6942F4802277
:10070400DA61DA6902F480220292029A9A6942F06A
:1007140008029A619B6903F008030393039B4FF457
:100724008063049302230593032307930F4D04A9C5
:10073400284600F0ABFF4FF40063049300240594B3
:10074400069404A9284600F0A1FF2246214627204A
:1007540001F0B6F9272001F0EBF999E700380140E0
:10076400004800400010024000080140000C014015
:1007740010B5044602681B4B9A4204D022681A4BF7
:100784009A4217D010BD194A13889BB2591C89B2DA
:100794001180174908781749C85413889BB27F2BD6
:1007A40002D9134600221A8001221149124800F08E
:1007B400D8FBE3E7114A13889BB2591C89B2118014
:1007C4000F4908780F49C85413889BB2FF2B02D9EC
:1007D400134600221A80012209490B4800F0C1FB8C
:1007E400D0E700BF00380140004800402E0200203E
:1007F4002C020020AC01002018010020300300204E
:10080400A80100203002002060010020FEE7FEE77E
:10081400FEE7FEE7FEE770477047704708B500F053
:10082400EBFB08BD08B5024800F03CFA08BD00BF68
:100834001801002008B5024800F034FA08BD00BFD2
:100844006001002082B00E4B9A6942F001029A6165
:100854009A6902F001020092009ADA6942F0805229
:10086400DA61DB6903F080530193019B054A536805
:1008740023F0E06343F00073536002B0704700BF9D
:100884000010024000000140026802F10C0353E82A
:10089400003F23F490730C3242E800310029F3D175
:1008A400026802F1140353E8003F23F001031432F9
:1008B40042E800310029F3D1036B012B05D020233A
:1008C40080F84230002303637047026802F10C038E
:1008D40053E8003F23F010030C3242E800310029B2
:1008E400F3D1ECE790F84130DBB2212B01D00220A8
:1008F40070478368B3F5805F17D0036A5A1C02629D
:100904001A7803685A60C38C9BB2013B9BB2C384C0
:100914004BB90268D36823F08003D3600268D368BC
:1009240043F04003D360002070470369002BE4D1F7
:10093400036A1B880268C3F308035360036A023323
:100944000362E0E710B504460268136923F44053D8
:10095400C1680B43136183680269134342691A43F4
:100964000168CB6823F4B05323F00C031343CB602A
:100974000268536923F4407381690B43536102682D
:10098400134B9A4220D000F061FE024602EB820231
:1009940002EB820263689B00B2FBF3F20D48A0FBFA
:1009A40002314909642303FB11231B013233A0FBE9
:1009B40003235B0903F0F00202EB011203F00F03BF
:1009C400216813448B6010BD00F050FE0246DDE741
:1009D400003801401F85EB512DE9F04383B00546F3
:1009E4000E4617469946DDF828802C68246836EAB6
:1009F40004030CBF4FF0010C4FF0000CBC4528D190
:100A0400B8F1FF3FF1D000F003FBA0EB0900404533
:100A140023D8B8F1000F22D02B68DA6812F0040F43
:100A2400E3D0802EE1D0402EDFD01A6812F0080FF8
:100A3400DBD0002401941A6801925B680193019B46
:100A44002846FFF721FF08236B6485F84040012006
:100A540000E0002003B0BDE8F0830320FAE70320A0
:100A6400F8E760B310B5044690F8413013B324237B
:100A740084F841302268D36823F40053D3602046BD
:100A8400FFF760FF2268136923F49043136122681F
:100A9400536923F02A0353612268D36843F4005353
:100AA400D36000206064202384F8413084F842300D
:100AB400606310BD80F84030FFF7DCFDD7E701200C
:100AC40070472DE9F04182B01E4690F84130DBB208
:100AD400202B56D104460D469046002955D00AB91C
:100AE40001204FE000234364212380F8413000F0CB
:100AF4008FFA0746A4F82480A4F82680A368B3F5E7
:100B0400805F02D04FF0000814E023692BB34FF04C
:100B140000080FE0202384F84130032032E038F845
:100B2400023B2268C3F308035360E28C92B2013A99
:100B340092B2E284E38C9BB293B100963B460022CE
:100B440080212046FFF748FF0028E3D1002DE6D09E
:100B540015F8012B23685A60E7E7A8460025E9E762
:100B640000963B46002240212046FFF735FF18B986
:100B7400202384F8413005E0202384F84130032009
:100B840000E0022002B0BDE8F0810120FAE77047DE
:100B940008B50168CA6822F04002CA60202280F8C1
:100BA4004120FFF7F4FF002008BD704708B5406AF4
:100BB4000023C385C384FFF7F8FF08BD704790F88E
:100BC4004230DBB2222B69D18368B3F5805F4FD00A
:100BD400826AB3F5805F04D0002B56D10369002BE1
:100BE40053D103685B681370836A01338362C38DD6
:100BF4009BB2013B9BB2C385002B51D100B583B09E
:100C04000268D36823F02003D3600268D36823F416
:100C14008073D3600268536923F001035361202376
:100C240080F8423000234363036B012B33D100234C
:100C34000363026802F10C0353E8003F23F010033E
:100C44000C3242E800310029F3D103681A6812F02B
:100C5400100F06D0002201921A6801925B6801937A
:100C6400019B818DFFF7AAFF002003B05DF804FB10
:100C74000269002AACD1826A03685B68C3F3080383
:100C84001380836A02338362B1E703685B6803F00D
:100C94007F031370A8E7FFF76BFDE5E702207047B9
:100CA4000020704730B583B0044602681368D068EA
:100CB400516913F00F0505D113F0200F02D010F085
:100CC400200F19D12DB111F0010119D110F4907F29
:100CD40016D1216B01297DD013F0800F03D010F0C1
:100CE400800F40F0188113F0400F03D010F0400F34
:100CF40040F0158103B030BD2046FFF760FFF9E7EF
:100D040013F0010F06D010F4807F03D0626C42F020
:100D14000102626413F0040F04D019B1626C42F052
:100D24000202626413F0020F04D019B1626C42F043
:100D34000402626413F0080F07D010F0200F00D1F2
:100D440019B1626C42F008026264626C002AD1D06C
:100D540013F0200F02D010F0200F29D123685B6913
:100D640003F04003626C12F0080F00D163B3204615
:100D7400FFF78AFD23685B6913F0400F20D02268D7
:100D840002F1140353E8003F23F04003143242E815
:100D940000310029F3D1E36B73B1634A5A63E06B0A
:100DA40000F0C6FD0028A5D0E06B436B9847A1E78F
:100DB4002046FFF704FFD1E72046FFF7F6FE99E748
:100DC4002046FFF7F2FE95E72046FFF7EEFE0023EC
:100DD40063648FE713F0100F3FF47EAF10F0100F31
:100DE4003FF47AAF0023019313680193536801938E
:100DF400019B536913F0400F51D0E26B13685B6899
:100E04009BB2002B3FF476AFA18D99427FF672AF6F
:100E1400E3859369202B37D0226802F10C0353E851
:100E2400003F23F480730C3242E800310029F3D1EF
:100E3400226802F1140353E8003F23F00103143243
:100E440042E800310029F3D1226802F1140353E887
:100E5400003F23F04003143242E800310029F3D16B
:100E6400202384F8423000232363226802F10C0318
:100E740053E8003F23F010030C3242E8003100290C
:100E8400F3D1E06B00F031FD02236363A18DE38DA8
:100E94009BB2C91A89B22046FFF790FE2AE7A18DBA
:100EA400E38D9BB2C91A89B2E38D9BB2002B3FF448
:100EB40021AF00293FF41EAF226802F10C0353E86E
:100EC400003F23F490730C3242E800300028F3D141
:100ED400226802F1140353E8003F23F001031432A3
:100EE40042E800300028F3D1202384F84230002364
:100EF4002363226802F10C0353E8003F23F010033C
:100F04000C3242E800300028F3D102236363204608
:100F1400FFF754FEEEE62046FFF7E4FCEAE620463F
:100F2400FFF736FEE6E600BFB10B0008816282855A
:100F3400C28500234364222380F84230036923B12D
:100F44000268D36843F48073D3600268536943F042
:100F5400010353610268D36843F02003D360002087
:100F6400704708B590F84230DBB2202B08D149B164
:100F74000AB9012008BD00230363FFF7D7FFF9E78F
:100F84000220F7E70120F5E710B504460E4B187868
:100F94004FF47A73B3FBF0F30C4A1068B0FBF3F030
:100FA40000F0D4FD68B90F2C01D901200AE0002219
:100FB40021464FF0FF3000F083FD054B1C600020FC
:100FC40000E0012010BD00BF000000200800002048
:100FD4000400002008B5074A136843F010031360A7
:100FE400032000F05BFD0F20FFF7CEFFFFF72AFC84
:100FF400002008BD00200240034A1168034B1B78FF
:101004000B441360704700BF34030020000000202D
:10101400014B1868704700BF3403002038B50446FC
:10102400FFF7F6FF0546B4F1FF3F02D0044B1B78EF
:101034001C44FFF7EDFF401BA042FAD338BD00BFAC
:101044000000002082B0084B1B68084AA2FB03235F
:101054005B0A00FB03F3019300BF019B5A1E01923C
:10106400002BF9D102B0704708000020D34D621064
:10107400002800F0F18170B582B00446036813F0D3
:10108400010F2CD0994B5B6803F00C03042B1DD08B
:10109400964B5B6803F00C03082B12D06368B3F51E
:1010A400803F41D0002B55D103F1804303F5043335
:1010B4001A6822F480321A601A6822F480221A60B4
:1010C40037E08A4B5B6813F4803FE7D0874B1B689B
:1010D40013F4003F03D06368002B00F0BF81236842
:1010E40013F0020F75D0814B5B6813F00C0F5FD0C7
:1010F4007E4B5B6803F00C03082B54D02369002B50
:1011040000F08A807A4B01221A60FFF781FF0546BE
:10111400764B1B6813F0020F75D1FFF779FF401B64
:101124000228F5D903209EE1704A136843F4803302
:101134001360636843B3FFF76BFF05466B4B1B6893
:1011440013F4003FCBD1FFF763FF401B6428F5D9AC
:10115400032088E1B3F5A02F09D0644B1A6822F468
:1011640080321A601A6822F480221A60E1E703F1DF
:101174008043A3F53C331A6842F480221A601A684B
:1011840042F480321A60D4E7FFF742FF0546574B1A
:101194001B6813F4003FA2D0FFF73AFF401B6428FA
:1011A400F5D903205FE1514B5B6813F4803FA5D16F
:1011B4004E4B1B6813F0020F03D02369012B40F040
:1011C4004F814A4A136823F0F803616943EAC10373
:1011D4001360236813F0080F33D0A369002B5CD08D
:1011E400434B0122C3F88024FFF712FF05463F4B0F
:1011F4005B6A13F0020F21D1FFF70AFF401B02289C
:10120400F5D903202FE1394A136823F0F803616903
:1012140043EAC1031360DCE7354B00221A60FFF791
:10122400F7FE0546314B1B6813F0020FD1D0FFF7D0
:10123400EFFE401B0228F5D9032014E10120FFF73B
:1012440001FF236813F0040F00F09680274BDB693D
:1012540013F0805F34D1254BDA6942F08052DA61B1
:10126400DB6903F080530193019B0125214B1B682B
:1012740013F4807F26D0E368012B3DD0002B53D19B
:1012840003F1804303F504331A6A22F001021A625F
:101294001A6A22F004021A6233E0154B0022C3F8E2
:1012A4008024FFF7B5FE0546104B5B6A13F0020F6E
:1012B400C7D0FFF7ADFE401B0228F5D90320D2E0CA
:1012C4000025D3E70B4A136843F480731360FFF7D8
:1012D4009FFE0646074B1B6813F4807FCBD1FFF7B4
:1012E40097FE801B6428F5D90320BCE0001002405F
:1012F40000004242007000405F4A136A43F0010359
:101304001362E36833B3FFF783FE06465A4B1B6A46
:1013140013F0020F2FD1FFF77BFE801B41F28833BD
:101324009842F3D903209EE0052B09D0524B1A6A48
:1013340022F001021A621A6A22F004021A62E0E739
:101344004D4B1A6A42F004021A621A6A42F0010210
:101354001A62D6E7FFF75CFE0646474B1B6A13F09A
:10136400020F08D0FFF754FE801B41F288339842E5
:10137400F3D9032077E0E5B9E369002B72D03E4A44
:10138400526802F00C02082A56D0022B17D03B4BAD
:1013940000221A66FFF73CFE0446374B1B6813F025
:1013A400007F47D0FFF734FE001B0228F5D9032045
:1013B40059E0314AD36923F08053D361DCE72F4BE2
:1013C40000221A66FFF724FE05462B4B1B6813F018
:1013D400007F06D0FFF71CFE401B0228F5D903202E
:1013E40041E0236AB3F5803F1AD023494B6823F4C4
:1013F4007413226A606A024313434B601F4B012239
:101404001A66FFF705FE04461B4B1B6813F0007FAA
:101414000ED1FFF7FDFD001B0228F5D9032022E0C1
:10142400154A536823F40033A1680B435360DCE787
:10143400002018E0002016E0012B16D00E4B5B684C
:1014440003F48031226A914211D103F47013626A69
:1014540093420ED1002006E001207047012002E0F3
:10146400012000E0002002B070BD0120FBE7012054
:10147400F9E70120F7E700BF0010024000004242F4
:101484000F4B5B6803F00C02082A01D00D4870472B
:10149400C3F383420C49885C13F4803F0BD0084BA0
:1014A4005B68C3F34043094AD35C064A02FB00F07D
:1014B400B0FBF3F07047064B03FB00F0704700BF2E
:1014C4000010024000127A000426000814260008C6
:1014D40000093D00002800F0A08070B50D460446C8
:1014E400524B1B6803F007038B420BD24F4A13681D
:1014F40023F007030B431360136803F007038B42C5
:1015040040F08D80236813F0020F17D013F0040FFE
:1015140004D0474A536843F4E0635360236813F0EC
:10152400080F04D0424A536843F460535360404A5E
:10153400536823F0F003A1680B435360236813F04E
:10154400010F31D06368012B20D0022B25D0384AFB
:10155400126812F0020F64D035494A6822F003027F
:1015640013434B60FFF754FD0646314B5B6803F0B1
:101574000C036268B3EB820F16D0FFF749FD801BA2
:1015840041F288339842F0D9032045E0284A126892
:1015940012F4003FE0D101203EE0254A126812F027
:1015A400007FD9D1012037E0204B1B6803F00703EB
:1015B400AB420AD91D4A136823F007032B43136077
:1015C400136803F00703AB422DD1236813F0040F13
:1015D40006D0174A536823F4E063E1680B43536071
:1015E400236813F0080F07D0114A536823F460539B
:1015F400216943EAC1035360FFF742FF0C4B5B6868
:10160400C3F303130B4AD35CD8400B4B18600B4B4A
:101614001868FFF7B9FC002070BD01207047012055
:10162400FAE70120F8E70120F6E700BF00200240B6
:1016340000100240182600080800002004000020C2
:10164400014B1868704700BF0800002008B5FFF779
:10165400F7FF044B5B68C3F30223034AD35CD8400F
:1016640008BD00BF001002402826000808B5FFF797
:10167400E7FF044B5B68C3F3C223034AD35CD8403F
:1016840008BD00BF001002402826000870B582B0D3
:101694000024A446B0E0874DAA4210D007D9864D55
:1016A400AA420CD005F58035AA4208D013E0A5F56E
:1016B4008015AA4203D005F57025AA4207D18A688D
:1016C400002A62D0012A5BD04361082403E0A5F517
:1016D4008015AA42F3D0BEF1FF0F58D80646BEF1DA
:1016E400FF0F56D84FEA8C0233680F25954023EA42
:1016F400050304FA02F2134333604B6813F0805F6E
:1017040078D06E4B9A6942F001029A619B6903F0AA
:1017140001030193019B4FEA9C02951C684B53F80B
:1017240025600CF003039D000F23AB4026EA03065B
:10173400644B984233D003F58063984200F098805C
:1017440003F58063984200F0958003F58063984226
:1017540000F0928003F58063984200F08F8003F5D7
:101764008063984219D006231AE0CC68B3E7CC68AA
:101774000434B0E7CC680834ADE7CC680C34AAE78D
:1017840003610824A7E70024A5E70424A3E7061DB2
:10179400A5E7ACF108029200A6E7052300E00023C8
:1017A400AB4033430232464D45F822304B6813F4C4
:1017B400801F65D0444A936843EA0E0393604B68E4
:1017C40013F4001F62D0404AD36843EA0E03D36087
:1017D4004B6813F4003F5FD03B4A536843EA0E035F
:1017E40053604B6813F4803F5CD0374A136843EA74
:1017F4000E0313600CF1010C0A6832FA0CF357D093
:10180400012303FA0CF302EA030E33EA0202F1D1D4
:101814004A68122A3FF63FAF122A3FF65CAF01A591
:1018240055F822F0C31600086F170008791700084E
:101834008B170008DB160008DB160008DB1600080F
:10184400DB160008DB160008DB160008DB160008B0
:10185400DB160008DB160008DB160008DB160008A0
:10186400DB160008DB160008731700087F17000852
:10187400012395E7022393E7032391E704238FE7EA
:10188400114A936823EA0E03936098E70E4AD368DB
:1018940023EA0E03D3609BE70B4A536823EA0E0343
:1018A40053609EE7084A136823EA0E031360A1E716
:1018B40002B070BD00002210000031100010024080
:1018C4000000014000080140000401400AB1016128
:1018D4007047090401617047C36801EA030221EA01
:1018E400030141EA02410161704790F82130DBB203
:1018F400022B06D004238363002380F820300120C8
:1019040070470268136823F00E03136002681368BB
:1019140023F001031360036CC16B012202FA03F389
:101924004B6080F82120002380F82030184670474F
:1019340008B590F82130DBB2022B03D00423836373
:10194400012008BD0268136823F00E0313600268C7
:10195400136823F00103136003684C4A93424ED981
:10196400783A934224D01432934230D014329342C2
:101974002FD0143293422FD0143293422FD01432EA
:1019840093422FD0143293422FD002F562729342C5
:101994002ED0143293422DD0143293422CD01432D0
:1019A400934202D04FF4803203E04FF4805200E0BF
:1019B4000122374B5A60012380F82130002380F83C
:1019C4002030436B002B5ED098470020B9E71022EB
:1019D400EFE74FF48072ECE74FF48052E9E74FF4FD
:1019E4008032E6E74FF48012E3E74FF08072E0E7DD
:1019F4000122DEE71022DCE74FF48072D9E7254AA2
:101A0400934224D01432934225D01432934224D0EA
:101A14001432934224D01432934224D01432934289
:101A240024D01432934224D002F56272934223D01C
:101A34001432934222D01432934221D0143293426E
:101A440002D04FF4803203E04FF4805200E00122D0
:101A5400114B5A60AFE71022FAE74FF48072F7E7B0
:101A64004FF48052F4E74FF48032F1E74FF48012E0
:101A7400EEE74FF08072EBE70122E9E71022E7E797
:101A84004FF48072E4E700205BE700BF800002406F
:101A9400000402400800024000000240074AD368E4
:101AA40023F4E0631B041B0C000200F4E060034316
:101AB40043F0BF6343F40033D360704700ED00E0AC
:101AC40000B5194BDB68C3F30223C3F1070CBCF167
:101AD400040F28BF4FF0040C03F1040EBEF1060FEF
:101AE40018D9033B4FF0FF3E0EFA0CFC21EA0C011F
:101AF40099400EFA03F322EA0303194300280BDB8F
:101B04000901C9B200F1604000F5614080F800139A
:101B14005DF804FB0023E5E700F00F000901C9B2FA
:101B2400024B1954F4E700BF00ED00E014ED00E0AF
:101B3400002807DB00F01F02400901239340024AFA
:101B440042F82030704700BF00E100E00138B0F1F6
:101B5400807F0BD24FF0E0235861054AF02182F8D0
:101B640023100020986107221A61704701207047F2
:101B740000ED00E070470000FFF7FCFF0B480C4944
:101B84000C4A002302E0D458C4500433C4188C42D5
:101B9400F9D3094A094C002301E013600432A2423C
:101BA400FBD300F00FF8FEF769FC7047000000203B
:101BB400700000206C260008700000204C030020F8
:101BC400FEE7000070B500260C4D0D4C641BA410FC
:101BD400A64209D100F0C0FC00260A4D0A4C641B41
:101BE400A410A64205D170BD55F8043B98470136B0
:101BF400EEE755F8043B98470136F2E764260008FF
:101C04006426000864260008682600080346024487
:101C1400934200D1704703F8011BF9E70EB46FF04B
:101C2400004100B59CB01DAB029006900791049151
:101C34000848094953F8042B0591006802A9019347
:101C440000F07EF80022029B1A701CB05DF804EBD1
:101C540003B070470C0000200802FFFF0A7870B53B
:101C64006AB970BD9A4209D10C46054614F8013F81
:101C7400002BF6D015F8016F9E42F7D0013003789F
:101C8400002BEFD11846ECE72DE9F0478E68824629
:101C94009E420C4690461F4638D88A8912F4906FAB
:101CA40032D0256809690133A5EB010965694B4404
:101CB40005EB450505EBD5756D109D4238BF1D46F6
:101CC400530531D5294600F06FFB064650B90C2365
:101CD4004FF0FF30CAF80030A38943F04003A381DA
:101CE400BDE8F0874A46216900F0CEFAA38923F4BF
:101CF400906343F08003A38126614E4426603E46F0
:101D04006561A5EB0905A560BE4200D93E46324691
:101D14004146206800F0C6FAA36800209B1BA3601C
:101D2400236833442360DBE72A4600F0B1FB064610
:101D34000028E1D15046216900F0CEFAC7E700003F
:101D44002DE9F04F98468B8907461B060D4614462D
:101D54009DB00ED50B6963B9402100F025FB2860C6
:101D6400286120B90C233B604FF0FF30D1E04023C1
:101D74006B610023099320238DF8293030234FF021
:101D84000109CDF80C80DFF8A4818DF82A302346B0
:101D94009A4613F8012B0AB1252AF9D1BAEB040BA0
:101DA4000BD05B46224629463846FFF76DFF0130CB
:101DB40000F0AA80099A5A4409929AF80030002B3C
:101DC40000F0A28000234FF0FF32CDE905230AF191
:101DD400010A049307938DF853301A93544605224D
:101DE40014F8011B514800F041FA049AD8B9D006FE
:101DF40044BF20238DF85330110744BF2B238DF8A3
:101E040053309AF800302A2B15D0544600204FF056
:101E14000A0C079A214611F8013B303B092B4ED995
:101E2400B0B1079214E0A0EB080309FA03F31343DB
:101E3400A2460493D2E7039B191D1B680391002B50
:101E4400BBBF5B4242F0020207930793B8BF049200
:101E540023782E2B0CD163782A2B35D1039B0234A3
:101E64001A1D1B680392002BB8BF4FF0FF33059374
:101E7400DFF8BCA003225046217800F0F7F940B106
:101E84004023A0EB0A0003FA00F0049B013403434F
:101E9400049314F8011B062226488DF8281000F03C
:101EA400E5F9002838D0244B1BBB039B073323F0F0
:101EB400070308330393099B3344099367E70C46EC
:101EC40001200CFB0232A5E700234FF00A0C19464F
:101ED40001340593204610F8012B303A092A03D91E
:101EE400002BC5D00591C3E7044601230CFB012157
:101EF400F0E703AB00932A463846104B04A9AFF32E
:101F04000080421C0646D6D1AB895B063FF52CAF58
:101F140009981DB0BDE8F08F03AB00932A463846FC
:101F2400064B04A900F07CF8EBE700BF302600085C
:101F3400362600083A260008000000008D1C000820
:101F44002DE9F047164699468A680B69074693427D
:101F5400B8BF1346336091F843200C46DDF8208067
:101F64000AB1013333602368990642BF33680233F0
:101F74003360256815F0060506D104F1190AE368F3
:101F840032689B1AAB4228DC94F84320131E226863
:101F940018BF012392062DD44946384604F1430262
:101FA400C047013020D02368E56803F00603042B02
:101FB40018BF002532684FF00006A36808BFAD1AA9
:101FC400226908BF25EAE5759342C4BF9B1AED1840
:101FD4001A34B5421AD1002008E00123524649467A
:101FE4003846C047013003D14FF0FF30BDE8F087D9
:101FF4000135C4E73020E11881F843005A1C94F8F5
:1020040045102244023382F84310C5E701232246D7
:1020140049463846C0470130E6D00136D9E70000CA
:102024002DE9FF470F7E9146782F80460C469A464D
:102034000C9D01F1430207D8622F0AD8002F00F04B
:10204400D980582F00F0A48004F1420584F842702E
:102054003AE0A7F16303152BF6D801A151F823F058
:10206400BD200008D12000084D2000084D200008A4
:102074004D2000084D200008D12000084D20000804
:102084004D2000084D2000084D200008DF210008E5
:1020940001210008C12100084D2000084D2000083E
:1020A400012200084D200008012100084D200008ED
:1020B4004D200008C92100082B681A1D1B682A60DE
:1020C40004F1420584F842300123A4E02068296821
:1020D400060601F104030AD50E682B60002E03DA0C
:1020E4002D23764284F843300A235E4819E00E68B3
:1020F40010F0400F2B6018BF36B2EFE72B68206852
:10210400191D2960010601D51E6802E04606FBD5AB
:102114001E886F2F0CBF08230A235248002184F81D
:1021240043106568002DA8BF2168A560A4BF21F0F5
:10213400040121600EB9002D4DD01546B6FBF3F114
:1021440003FB1167C75D05F8017D3746BB420E46A8
:10215400F4D9082B0BD12368DE0708D523696168FD
:102164009942DEBF302305F8013C05F1FF35521BCF
:1021740022614B4621464046CDF800A003AAFFF752
:10218400DFFE01304CD14FF0FF3004B0BDE8F087E2
:10219400344881F845702968236851F8046B296034
:1021A4001D0614D5DF0744BF43F0200323601EB986
:1021B400236823F0200323601023AFE7236843F050
:1021C400200323607823284884F84530E3E7590640
:1021D40048BFB6B2E6E71546BBE72B682668181D6C
:1021E4006169286035061B6801D5196002E0700634
:1021F400FBD51980002315462361BAE72B6800211B
:102204001A1D2A601D686268284600F02FF808B17C
:10221400401B606063682361002384F84330A8E7AF
:102224002A46494640462369D0470130ABD023684B
:102234009B0713D4E068039B9842B8BF1846A4E7F1
:102244000123324649464046D04701309BD00135F0
:10225400E36803995B1AAB42F2DCEBE7002504F177
:102264001906F5E74126000852260008034610B572
:10227400C9B202449342184601D1002003E0047815
:1022840001338C42F6D110BD0A44914200F1FF3370
:1022940000D1704710B511F8014B914203F8014F7A
:1022A400F9D110BD884210B501EB020402D9844271
:1022B400234607D8431EA14208D011F8012B03F886
:1022C400012FF8E7014602448A4200D110BD13F8F9
:1022D400014D02F8014DF7E738B50546002940D015
:1022E40051F8043C0C1F002BB8BFE41800F010F99F
:1022F4001C4A136833B9636014602846BDE838404B
:1023040000F00CB9A34208D9206821188B4201BF00
:1023140019685B6809182160EDE71A465B680BB120
:10232400A342FAD911685018A0420BD12068014485
:10233400501883421160E0D118685B680144116051
:102344005360DAE702D90C232B60D6E72068211802
:102354008B4201BF19685B6809182160636054608F
:10236400CBE738BD3803002070B50E4E0C463168FB
:10237400054611B900F0BCF830602146284600F04B
:10238400B7F8431C0AD0C41C24F00304A04207D0AD
:10239400211A284600F0ACF8013001D14FF0FF3487
:1023A400204670BD3C0300202DE9F041CD1C25F0F2
:1023B400030508350C2D38BF0C25002D074601DB1D
:1023C400A94205D90C2300263B603046BDE8F081C4
:1023D4002E4E00F09DF833681C4634BB294638461F
:1023E400FFF7C2FF431C04464DD134682646002E35
:1023F40040D123683146384604EB030800F078F8EE
:1024040080453AD1216803356D1A25F00305083556
:102414000C2D38BF0C2538462946FFF7A5FF01309F
:102424002BD023682B4423600EE02268521B1ED459
:102434000B2A16D96119A342256018BF5960636835
:1024440008BF316062514B60384604F10B0600F05E
:1024540065F826F00706231DF21AB6D09B1BA3507D
:10246400B3E76268A3420CBF32605A60ECE72346CC
:102474006468B2E734467668B9E70C2338463B60B3
:1024840000F04CF8A1E72560DEE700BF3803002028
:102494002DE9F041804614460E4621B91146BDE8A7
:1024A400F041FFF781BF2AB9FFF716FF25462846FA
:1024B400BDE8F08100F038F88442074602D8B4EB56
:1024C400500F12D821464046FFF76EFF05460028FC
:1024D400EDD0BC422246314628BF3A46FFF7D4FE2F
:1024E40031464046FFF7F8FEE1E73546DFE70000F6
:1024F40038B50023054D044608462B6000F01EF84D
:10250400431C02D12B6803B1236038BD4003002073
:10251400014800F011B800BF44030020014800F056
:102524000CB800BF4403002051F8043C181F002BD2
:10253400BCBF0B58C018704770477047044A054920
:102544001368002B08BF0B461844106018467047E8
:102554004803002050030020F8B500BFF8BC08BCB5
:102564009E467047F8B500BFF8BC08BC9E4670474D
:102574000D0A000041542B43495053454E443D2518
:10258400640000003E00000053454E44204F4B00C1
:1025940041542B43574A41503D2257484C44222C26
:1025A4002257484C4441444D494E220041542B4348
:1025B400574155544F434F4E4E3D310041542B43E8
:1025C400495053544152543D22544350222C2231F9
:1025D40039322E3136382E35302E323231222C38E3
:1025E400310000004F4B000041542B4349504449F3
:1025F4004E464F3D3100000048656C6C6F0D0A007B
:1026040002030405060708090A0B0C0D0E0F10102F
:1026140001020000000000000000000001020304A9
:10262400060708090000000001020304232D302BD3
:102634002000686C4C0065666745464700303132BF
:102644003334353637383941424344454600303116
:102654003233343536373839616263646566000075
:04266400090200085F
:04266800E501000880
:10266C00010000001000000000127A001000002091
:10267C00000000000000000000000000000000004E
:10268C00000000000000000000000000000000003E
:10269C00000000000000000000000000000000002E
:1026AC00000000000000000000000000000000001E
:1026BC00000000000000000000000000000000000E
:1026CC0000000000000000000000000000000000FE
:0400000508001B7D57
:00000001FF
