:020000040800F2
:100000000000012085240008390800083B0800088A
:100010003D0800083F0800084108000800000000F3
:10002000000000000000000000000000430800087D
:1000300045080008000000004708000849080008BB
:10004000CD240008CD240008CD240008CD240008CC
:10005000CD240008CD240008CD240008CD240008BC
:10006000CD240008CD240008CD240008CD240008AC
:10007000CD240008CD240008CD240008CD2400089C
:10008000CD240008CD240008CD240008CD2400088C
:10009000CD240008CD240008CD240008CD2400087C
:1000A000CD240008CD240008CD240008CD2400086C
:1000B000CD240008CD240008CD240008CD2400085C
:1000C000CD240008CD240008CD240008CD2400084C
:1000D000CD24000851080008CD240008610800085C
:1000E000CD240008CD240008CD240008CD2400082C
:1000F000CD240008CD240008CD240008CD2400081C
:10010000CD240008CD240008CD240008CD2400080B
:10011000CD240008CD240008CD240008CD240008FB
:10012000CD240008CD240008CD240008CD240008EB
:1001300000000000000000000000000000000000BF
:1001400000000000000000000000000000000000AF
:10015000000000000000000000000000000000009F
:10016000000000000000000000000000000000008F
:10017000000000000000000000000000000000007F
:10018000000000000000000000000000000000006F
:10019000000000000000000000000000000000005F
:1001A000000000000000000000000000000000004F
:1001B000000000000000000000000000000000003F
:1001C000000000000000000000000000000000002F
:1001D000000000000000000000000000000000001F
:0401E0005FF8E0F1F3
:1001E40010B5054C237833B9044B13B10448AFF36D
:1001F40000800123237010BD8C000020000000004B
:10020400642E000808B5034B1BB103490348AFF340
:10021400008008BD0000000090000020642E00084B
:10022400034613F8012B002AFBD1181A0138704732
:1002340000B583B006E00A2301220DF107010D4841
:1002440000F053FC0C4B1A880C4B1B889BB29A424F
:100254000DD0531C9BB208490B8009498A5C8DF868
:100264000720FF2BE7D9044B00221A80E3E703B0F1
:100274005DF804FB34010020300100204C03002011
:100284004C02002038B50446FFF7CAFF074D4FF46F
:100294007A7382B22146284600F027FC4FF47A7321
:1002A40002220349284600F020FC38BD7C010020CE
:1002B4007C2E0008F0B5C1B007460E4600F0BCFE27
:1002C4000546002400F0B8FE401BB04229D2164B6C
:1002D4001B889BB2A342F5D0002201E000240A4609
:1002E400114B1B889BB2A3420DD0FE2A0BD8631C72
:1002F4009BB2511C89B20D48005D0DF80200FF2B22
:10030400ECD81C46EBE700230DF80230394668466A
:1003140002F028F918B9044B1C88A4B2D2E70120D2
:1003240000E0002041B0F0BD4C0300204C0200204E
:1003340010B5A0B00446FFF773FF024612496846A1
:1003440002F0F0F86846FFF79DFF4FF47A710F480A
:10035400FFF7B0FF08B920B010BD642000F072FEB2
:100364002046FFF75DFF4FF0FF3382B22146084875
:1003740000F0BBFB4FF4FA610648FFF79BFF00282F
:10038400E9D00120E7E700BF802E0008902E000886
:100394007C010020942E000810B503E0184B1B6864
:1003A400002B24DC174B1A8892B2174B1B889BB284
:1003B4009A4224D0134A13889BB2591C89B21180E3
:1003C4001249C95C13889BB27F2B02D913460022C1
:1003D4001A800D29E2D00A29E0D0094B1B687E2B34
:1003E400E0D8581C064A1060094AD154DAE7084894
:1003F4000024C454FFF79CFF014B1C60D2E710BDDE
:100404002C010020A80000204A020020C80100207E
:10041400AC00002072B6FEE700B591B0282200219E
:1004240006A802F077F80023019302930393049340
:100434000593012206924FF4803307930A92022215
:100444000D920E934FF4E0130F9306A800F024FED0
:1004540080B90F23019302210291002303934FF4E7
:1004640080620492059301A801F048F820B911B004
:100474005DF804FBFFF7CEFFFFF7CCFF30B58BB080
:1004840000F0BCFDFFF7C8FF3D4B9A6942F0010242
:100494009A619B6903F001030093009B00F088F8C4
:1004A40000F0B8F800F0D8F801F07AFB354B0FCB28
:1004B4000AAC04E90F0001F00BFC01F02DFC01F083
:1004C4000EFC3148FFF7DEFE4FF4FA6000F0BAFD8F
:1004D4002E48FFF7D7FE4FF4FA6000F0B3FD002575
:1004E40013E020212A4801F00BFA4FF4FA7000F0CF
:1004F400A9FD0134042CF4DD01222021244801F05B
:10050400F9F94FF47A7000F09DFDBDB92148FFF769
:10051400B9FE41F288312048FFF7CCFE054658B1B8
:10052400002220211A4801F0E5F9102306AA00212F
:10053400084601F055FCE8E70446DBE71748FFF7F7
:10054400A1FE4FF4FA7000F07DFD0722144901A8C2
:1005540001F0E8FF01A8FFF795FE4FF47A71114806
:10056400FFF7A8FE20B9FFF717FFFFF761FEFAE7D0
:100574004FF47A7307220C490C4800F0B6FAF2E7FC
:10058400001002400C2F00089C2E0008B82E000812
:10059400000C0140C82E0008F02E0008F42E0008BC
:1005A400802E0008902E0008042F00087C010020F3
:1005B40010B586B00023029303930493059303F1CB
:1005C400804303F504339A6942F008029A619A69F8
:1005D40002F008020092009A9A6942F004029A61B9
:1005E4009B6903F004030193019B094C0122202120
:1005F400204601F07FF920230293012303930493FF
:100604000323059302A9204601F054F806B010BD57
:10061400000C014008B50D480D4B03604FF4E13365
:10062400436000238360C36003610C2242618361E1
:10063400C36100F02AFA28B901220649034800F0F0
:10064400A4FC08BDFFF7E6FEF6E700BF3401002076
:10065400003801404802002008B50D480D4B0360E6
:100664004FF4E133436000238360C36003610C22D1
:1006740042618361C36100F008FA28B90122064986
:10068400034800F082FC08BDFFF7C4FEF6E700BF94
:100694007C01002000480040C401002030B589B02E
:1006A400002304930593069307930368354A934202
:1006B40004D0354A934233D009B030BD334B9A69E4
:1006C40042F480429A619A6902F480420092009A4C
:1006D4009A6942F004029A619B6903F0040301934E
:1006E400019B4FF4007304930223059303230793A0
:1006F400274D04A9284600F0DDFF4FF480630493DE
:1007040000240594069404A9284600F0D3FF224649
:100714002146252001F0E8F9252001F01DFACBE758
:100724001A4BDA6942F48022DA61DA6902F480222F
:100734000292029A9A6942F008029A619B6903F054
:1007440008030393039B4FF48063049302230593EC
:10075400032307930F4D04A9284600F0ABFF4FF481
:100764000063049300240594069404A9284600F029
:10077400A1FF22462146272001F0B6F9272001F0E7
:10078400EBF999E7003801400048004000100240AE
:1007940000080140000C014010B5044602681B4BE0
:1007A4009A4204D022681A4B9A4217D010BD194AB3
:1007B40013889BB2591C89B21180174908781749CC
:1007C400C85413889BB27F2B02D9134600221A8087
:1007D40001221149124800F0D8FBE3E7114A1388BB
:1007E4009BB2591C89B211800F4908780F49C8542B
:1007F40013889BB2FF2B02D9134600221A800122D0
:1008040009490B4800F0C1FBD0E700BF00380140A4
:10081400004800404A02002048020020C80100208D
:10082400340100204C030020C40100204C020020AD
:100834007C010020FEE7FEE7FEE7FEE7FEE77047E7
:100844007047704708B500F0EBFB08BD08B50248D7
:1008540000F03CFA08BD00BF3401002008B502488E
:1008640000F034FA08BD00BF7C01002082B00E4BBA
:100874009A6942F001029A619A6902F001020092B7
:10088400009ADA6942F08052DA61DB6903F080533E
:100894000193019B054A536823F0E06343F000731E
:1008A400536002B0704700BF0010024000000140D6
:1008B400026802F10C0353E8003F23F490730C32F6
:1008C40042E800310029F3D1026802F1140353E82D
:1008D400003F23F00103143242E800310029F3D130
:1008E400036B012B05D0202380F8423000230363DF
:1008F4007047026802F10C0353E8003F23F0100331
:100904000C3242E800310029F3D1ECE790F8413091
:10091400DBB2212B01D0022070478368B3F5805FDE
:1009240017D0036A5A1C02621A7803685A60C38C8F
:100934009BB2013B9BB2C3844BB90268D36823F0DA
:100944008003D3600268D36843F04003D36000207F
:1009540070470369002BE4D1036A1B880268C3F360
:1009640008035360036A02330362E0E710B50446E8
:100974000268136923F44053C1680B43136183680D
:100984000269134342691A430168CB6823F4B053E4
:1009940023F00C031343CB600268536923F44073C0
:1009A40081690B4353610268134B9A4220D000F0D3
:1009B40061FE024602EB820202EB820263689B0044
:1009C400B2FBF3F20D48A0FB02314909642303FB97
:1009D40011231B013233A0FB03235B0903F0F00254
:1009E40002EB011203F00F03216813448B6010BD66
:1009F40000F050FE0246DDE7003801401F85EB5150
:100A04002DE9F04383B005460E4617469946DDF8B6
:100A140028802C68246836EA04030CBF4FF0010CCC
:100A24004FF0000CBC4528D1B8F1FF3FF1D000F0E5
:100A340003FBA0EB0900404523D8B8F1000F22D0F6
:100A44002B68DA6812F0040FE3D0802EE1D0402E38
:100A5400DFD01A6812F0080FDBD0002401941A6862
:100A640001925B680193019B2846FFF721FF08234D
:100A74006B6485F84040012000E0002003B0BDE82D
:100A8400F0830320FAE70320F8E760B310B50446C7
:100A940090F8413013B3242384F841302268D3689A
:100AA40023F40053D3602046FFF760FF22681369E4
:100AB40023F4904313612268536923F02A0353619A
:100AC4002268D36843F40053D36000206064202379
:100AD40084F8413084F84230606310BD80F84030BF
:100AE400FFF7DCFDD7E7012070472DE9F04182B024
:100AF4001E4690F84130DBB2202B56D104460D46F9
:100B04009046002955D00AB901204FE000234364E0
:100B1400212380F8413000F08FFA0746A4F824809E
:100B2400A4F82680A368B3F5805F02D04FF00008D4
:100B340014E023692BB34FF000080FE0202384F85E
:100B44004130032032E038F8023B2268C3F3080343
:100B54005360E28C92B2013A92B2E284E38C9BB28B
:100B640093B100963B46002280212046FFF748FFC0
:100B74000028E3D1002DE6D015F8012B23685A6034
:100B8400E7E7A8460025E9E700963B460022402116
:100B94002046FFF735FF18B9202384F8413005E0DB
:100BA400202384F84130032000E0022002B0BDE895
:100BB400F0810120FAE7704708B50168CA6822F09D
:100BC4004002CA60202280F84120FFF7F4FF002091
:100BD40008BD704708B5406A0023C385C384FFF786
:100BE400F8FF08BD704790F84230DBB2222B69D180
:100BF4008368B3F5805F4FD0826AB3F5805F04D019
:100C0400002B56D10369002B53D103685B68137022
:100C1400836A01338362C38D9BB2013B9BB2C3855C
:100C2400002B51D100B583B00268D36823F02003B0
:100C3400D3600268D36823F48073D3600268536975
:100C440023F001035361202380F8423000234363DF
:100C5400036B012B33D100230363026802F10C03FD
:100C640053E8003F23F010030C3242E8003100291E
:100C7400F3D103681A6812F0100F06D00022019213
:100C84001A6801925B680193019B818DFFF7AAFFAB
:100C9400002003B05DF804FB0269002AACD1826A2B
:100CA40003685B68C3F308031380836A02338362B7
:100CB400B1E703685B6803F07F031370A8E7FFF7ED
:100CC4006BFDE5E7022070470020704730B583B024
:100CD400044602681368D068516913F00F0505D102
:100CE40013F0200F02D010F0200F19D12DB111F004
:100CF400010119D110F4907F16D1216B01297DD007
:100D040013F0800F03D010F0800F40F0188113F01F
:100D1400400F03D010F0400F40F0158103B030BDF8
:100D24002046FFF760FFF9E713F0010F06D010F437
:100D3400807F03D0626C42F00102626413F0040FFE
:100D440004D019B1626C42F00202626413F0020F23
:100D540004D019B1626C42F00402626413F0080F0B
:100D640007D010F0200F00D119B1626C42F00802D4
:100D74006264626C002AD1D013F0200F02D010F00C
:100D8400200F29D123685B6903F04003626C12F0E1
:100D9400080F00D163B32046FFF78AFD23685B691F
:100DA40013F0400F20D0226802F1140353E8003FEF
:100DB40023F04003143242E800310029F3D1E36BFD
:100DC40073B1634A5A63E06B00F0C6FD0028A5D0F6
:100DD400E06B436B9847A1E72046FFF704FFD1E798
:100DE4002046FFF7F6FE99E72046FFF7F2FE95E767
:100DF4002046FFF7EEFE002363648FE713F0100F25
:100E04003FF47EAF10F0100F3FF47AAF002301934C
:100E14001368019353680193019B536913F0400FC6
:100E240051D0E26B13685B689BB2002B3FF476AF42
:100E3400A18D99427FF672AFE3859369202B37D059
:100E4400226802F10C0353E8003F23F480730C3250
:100E540042E800310029F3D1226802F1140353E877
:100E6400003F23F00103143242E800310029F3D19A
:100E7400226802F1140353E8003F23F040031432C4
:100E840042E800310029F3D1202384F842300023C2
:100E94002363226802F10C0353E8003F23F010039C
:100EA4000C3242E800310029F3D1E06B00F031FD4F
:100EB40002236363A18DE38D9BB2C91A89B22046D4
:100EC400FFF790FE2AE7A18DE38D9BB2C91A89B280
:100ED400E38D9BB2002B3FF421AF00293FF41EAFFA
:100EE400226802F10C0353E8003F23F490730C32A0
:100EF40042E800300028F3D1226802F1140353E8D9
:100F0400003F23F00103143242E800300028F3D1FB
:100F1400202384F8423000232363226802F10C0367
:100F240053E8003F23F010030C3242E8003000285D
:100F3400F3D1022363632046FFF754FEEEE6204616
:100F4400FFF7E4FCEAE62046FFF736FEE6E600BFDC
:100F5400D90B000881628285C28500234364222361
:100F640080F84230036923B10268D36843F4807384
:100F7400D3600268536943F0010353610268D36884
:100F840043F02003D3600020704708B590F8423046
:100F9400DBB2202B08D149B10AB9012008BD0023D6
:100FA4000363FFF7D7FFF9E70220F7E70120F5E72E
:100FB40010B504460E4B18784FF47A73B3FBF0F374
:100FC4000C4A1068B0FBF3F000F0D4FD68B90F2CA4
:100FD40001D901200AE0002221464FF0FF3000F041
:100FE40083FD054B1C60002000E0012010BD00BF04
:100FF40000000020080000200400002008B5074A73
:10100400136843F010031360032000F05BFD0F200E
:10101400FFF7CEFFFFF72AFC002008BD00200240A6
:10102400034A1168034B1B780B441360704700BFDD
:101034005003002000000020014B1868704700BFD7
:101044005003002038B50446FFF7F6FF0546B4F117
:10105400FF3F02D0044B1B781C44FFF7EDFF401BFD
:10106400A042FAD338BD00BF0000002082B0084B74
:101074001B68084AA2FB03235B0A00FB03F30193EA
:1010840000BF019B5A1E0192002BF9D102B0704798
:1010940008000020D34D6210002800F0F18170B5E3
:1010A40082B00446036813F0010F2CD0994B5B689F
:1010B40003F00C03042B1DD0964B5B6803F00C0368
:1010C400082B12D06368B3F5803F41D0002B55D173
:1010D40003F1804303F504331A6822F480321A6062
:1010E4001A6822F480221A6037E08A4B5B6813F492
:1010F400803FE7D0874B1B6813F4003F03D063683D
:10110400002B00F0BF81236813F0020F75D0814BD0
:101114005B6813F00C0F5FD07E4B5B6803F00C032D
:10112400082B54D02369002B00F08A807A4B0122CB
:101134001A60FFF781FF0546764B1B6813F0020F18
:1011440075D1FFF779FF401B0228F5D903209EE1F2
:10115400704A136843F480331360636843B3FFF742
:101164006BFF05466B4B1B6813F4003FCBD1FFF7B5
:1011740063FF401B6428F5D9032088E1B3F5A02F51
:1011840009D0644B1A6822F480321A601A6822F477
:1011940080221A60E1E703F18043A3F53C331A6827
:1011A40042F480221A601A6842F480321A60D4E74A
:1011B400FFF742FF0546574B1B6813F4003FA2D0CC
:1011C400FFF73AFF401B6428F5D903205FE1514B38
:1011D4005B6813F4803FA5D14E4B1B6813F0020FDC
:1011E40003D02369012B40F04F814A4A136823F04E
:1011F400F803616943EAC1031360236813F0080F1D
:1012040033D0A369002B5CD0434B0122C3F8802464
:10121400FFF712FF05463F4B5B6A13F0020F21D123
:10122400FFF70AFF401B0228F5D903202FE1394AB2
:10123400136823F0F803616943EAC1031360DCE730
:10124400354B00221A60FFF7F7FE0546314B1B6849
:1012540013F0020FD1D0FFF7EFFE401B0228F5D99F
:10126400032014E10120FFF701FF236813F0040FAA
:1012740000F09680274BDB6913F0805F34D1254B57
:10128400DA6942F08052DA61DB6903F0805301933A
:10129400019B0125214B1B6813F4807F26D0E36852
:1012A400012B3DD0002B53D103F1804303F50433CC
:1012B4001A6A22F001021A621A6A22F004021A62FD
:1012C40033E0154B0022C3F88024FFF7B5FE054632
:1012D400104B5B6A13F0020FC7D0FFF7ADFE401B43
:1012E4000228F5D90320D2E00025D3E70B4A13687E
:1012F40043F480731360FFF79FFE0646074B1B6899
:1013040013F4807FCBD1FFF797FE801B6428F5D9B7
:101314000320BCE000100240000042420070004084
:101324005F4A136A43F001031362E36833B3FFF7C0
:1013340083FE06465A4B1B6A13F0020F2FD1FFF7A8
:101344007BFE801B41F288339842F3D903209EE050
:10135400052B09D0524B1A6A22F001021A621A6A4A
:1013640022F004021A62E0E74D4B1A6A42F00402CA
:101374001A621A6A42F001021A62D6E7FFF75CFEAB
:101384000646474B1B6A13F0020F08D0FFF754FEC2
:10139400801B41F288339842F3D9032077E0E5B902
:1013A400E369002B72D03E4A526802F00C02082A0C
:1013B40056D0022B17D03B4B00221A66FFF73CFE97
:1013C4000446374B1B6813F0007F47D0FFF734FE09
:1013D400001B0228F5D9032059E0314AD36923F0D0
:1013E4008053D361DCE72F4B00221A66FFF724FEFB
:1013F40005462B4B1B6813F0007F06D0FFF71CFE3D
:10140400401B0228F5D9032041E0236AB3F5803F4D
:101414001AD023494B6823F47413226A606A024386
:1014240013434B601F4B01221A66FFF705FE044667
:101434001B4B1B6813F0007F0ED1FFF7FDFD001B53
:101444000228F5D9032022E0154A536823F4003317
:10145400A1680B435360DCE7002018E0002016E08D
:10146400012B16D00E4B5B6803F48031226A914243
:1014740011D103F47013626A93420ED1002006E086
:1014840001207047012002E0012000E0002002B0AA
:1014940070BD0120FBE70120F9E70120F7E700BF59
:1014A40000100240000042420F4B5B6803F00C0244
:1014B400082A01D00D487047C3F383420C49885C65
:1014C40013F4803F0BD0084B5B68C3F34043094AD5
:1014D400D35C064A02FB00F0B0FBF3F07047064B06
:1014E40003FB00F0704700BF0010024000127A00B6
:1014F4001C2F00082C2F000800093D00002800F0D4
:10150400A08070B50D460446524B1B6803F00703D8
:101514008B420BD24F4A136823F007030B4313602B
:10152400136803F007038B4240F08D80236813F0A7
:10153400020F17D013F0040F04D0474A536843F442
:10154400E0635360236813F0080F04D0424A5368E1
:1015540043F460535360404A536823F0F003A16896
:101564000B435360236813F0010F31D06368012BE0
:1015740020D0022B25D0384A126812F0020F64D012
:1015840035494A6822F0030213434B60FFF754FDC8
:101594000646314B5B6803F00C036268B3EB820FC1
:1015A40016D0FFF749FD801B41F288339842F0D9E9
:1015B400032045E0284A126812F4003FE0D10120DC
:1015C4003EE0254A126812F0007FD9D1012037E0AD
:1015D400204B1B6803F00703AB420AD91D4A13686A
:1015E40023F007032B431360136803F00703AB4294
:1015F4002DD1236813F0040F06D0174A536823F43F
:10160400E063E1680B435360236813F0080F07D0CD
:10161400114A536823F46053216943EAC1035360B8
:10162400FFF742FF0C4B5B68C3F303130B4AD35C15
:10163400D8400B4B18600B4B1868FFF7B9FC00201F
:1016440070BD012070470120FAE70120F8E701206E
:10165400F6E700BF0020024000100240302F0008CF
:101664000800002004000020014B1868704700BFE8
:101674000800002008B5FFF7F7FF044B5B68C3F3CD
:101684000223034AD35CD84008BD00BF00100240C7
:10169400402F000808B5FFF7E7FF044B5B68C3F36E
:1016A400C223034AD35CD84008BD00BF00100240E7
:1016B400402F000870B582B00024A446B0E0874DE6
:1016C400AA4210D007D9864DAA420CD005F5803520
:1016D400AA4208D013E0A5F58015AA4203D005F567
:1016E4007025AA4207D18A68002A62D0012A5BD0F9
:1016F4004361082403E0A5F58015AA42F3D0BEF1A6
:10170400FF0F58D80646BEF1FF0F56D84FEA8C0299
:1017140033680F25954023EA050304FA02F21343C4
:1017240033604B6813F0805F78D06E4B9A6942F057
:1017340001029A619B6903F001030193019B4FEA43
:101744009C02951C684B53F825600CF003039D0024
:101754000F23AB4026EA0306644B984233D003F5CB
:101764008063984200F0988003F58063984200F00B
:10177400958003F58063984200F0928003F58063BE
:10178400984200F08F8003F58063984219D00623B5
:101794001AE0CC68B3E7CC680434B0E7CC6808340A
:1017A400ADE7CC680C34AAE703610824A7E700245A
:1017B400A5E70424A3E7061DA5E7ACF108029200FF
:1017C400A6E7052300E00023AB4033430232464D35
:1017D40045F822304B6813F4801F65D0444A93685F
:1017E40043EA0E0393604B6813F4001F62D0404A2F
:1017F400D36843EA0E03D3604B6813F4003F5FD011
:101804003B4A536843EA0E0353604B6813F4803F2A
:101814005CD0374A136843EA0E0313600CF1010CE1
:101824000A6832FA0CF357D0012303FA0CF302EAE4
:10183400030E33EA0202F1D14A68122A3FF63FAF9F
:10184400122A3FF65CAF01A555F822F0EB1600080A
:1018540097170008A1170008B3170008031700081A
:1018640003170008031700080317000803170008EC
:1018740003170008031700080317000803170008DC
:1018840003170008031700080317000803170008CC
:101894009B170008A7170008012395E7022393E785
:1018A400032391E704238FE7114A936823EA0E0385
:1018B400936098E70E4AD36823EA0E03D3609BE74C
:1018C4000B4A536823EA0E0353609EE7084A1368E1
:1018D40023EA0E031360A1E702B070BD00002210DA
:1018E40000003110001002400000014000080140D7
:1018F400000401400AB101617047090401617047A5
:10190400C36801EA030221EA030141EA02410161D9
:10191400704790F82130DBB2022B06D00423836396
:10192400002380F82030012070470268136823F0F8
:101934000E0313600268136823F001031360036C41
:10194400C16B012202FA03F34B6080F821200023CB
:1019540080F820301846704708B590F82130DBB283
:10196400022B03D004238363012008BD026813689B
:1019740023F00E0313600268136823F0010313605D
:1019840003684C4A93424ED9783A934224D0143295
:10199400934230D0143293422FD0143293422FD03A
:1019A400143293422FD0143293422FD014329342E4
:1019B4002FD002F5627293422ED0143293422DD06E
:1019C400143293422CD01432934202D04FF480321A
:1019D40003E04FF4805200E00122374B5A600123A8
:1019E40080F82130002380F82030436B002B5ED038
:1019F40098470020B9E71022EFE74FF48072ECE734
:101A04004FF48052E9E74FF48032E6E74FF4801256
:101A1400E3E74FF08072E0E70122DEE71022DCE723
:101A24004FF48072D9E7254A934224D0143293426A
:101A340025D01432934224D01432934224D0143249
:101A4400934224D01432934224D01432934224D0AB
:101A540002F56272934223D01432934222D014329C
:101A6400934221D01432934202D04FF4803203E0E7
:101A74004FF4805200E00122114B5A60AFE710226C
:101A8400FAE74FF48072F7E74FF48052F4E74FF42B
:101A94008032F1E74FF48012EEE74FF08072EBE70B
:101AA4000122E9E71022E7E74FF48072E4E700201F
:101AB4005BE700BF800002400004024008000240CF
:101AC40000000240074AD36823F4E0631B041B0CA4
:101AD400000200F4E060034343F0BF6343F40033C7
:101AE400D360704700ED00E000B5194BDB68C3F329
:101AF4000223C3F1070CBCF1040F28BF4FF0040C00
:101B040003F1040EBEF1060F18D9033B4FF0FF3E5C
:101B14000EFA0CFC21EA0C0199400EFA03F322EAB6
:101B24000303194300280BDB0901C9B200F160402B
:101B340000F5614080F800135DF804FB0023E5E73D
:101B440000F00F000901C9B2024B1954F4E700BFB9
:101B540000ED00E014ED00E0002807DB00F01F02B8
:101B6400400901239340024A42F82030704700BFE5
:101B740000E100E00138B0F1807F0BD24FF0E023A8
:101B84005861054AF02182F8231000209861072249
:101B94001A6170470120704700ED00E070470000B3
:101BA40008B50B480B4B03600B4B43600023836069
:101BB400C3604FF48042026143618361C361036285
:101BC40000F0CEFA00B908BDFEF724FCFBE700BF25
:101BD4005403002000540040801A060010B586B05B
:101BE400002302930393049305930268114B9A42D2
:101BF40001D006B010BD104CA36943F00803A361E3
:101C0400A36903F008030093009BC02302931223EB
:101C140003930323059302A90848FFF74BFDE369E7
:101C240043F40013E361E36903F400130193019B9C
:101C3400DFE700BF0054004000100240000C0140E8
:101C440010B584B000240EE04FF480730293012396
:101C54000193074A2244009200227821054800F0AB
:101C64005DFB0134E4B21A2CEED904B010BD00BF00
:101C74000C0000205403002000B587B08DF8170035
:101C84004FF480730293012301930DF11702009224
:101C940000227821024800F041FB07B05DF804FB04
:101CA4005403002000B587B08DF817004FF48073FB
:101CB4000293012301930DF117020092402278212F
:101CC400024800F02BFB07B05DF804FB540300202E
:101CD40008B5C820FFF7B6F9FFF7B2FF08BD38B55D
:101CE400002509E00020FFF7DDFF0134E4B214F021
:101CF400800FF7D00135EDB2072D0CD8A5F15000B7
:101D0400C0B2FFF7B9FF0020FFF7B6FF1020FFF7BE
:101D1400B3FF0024EBE738BD08B58D20FFF7ACFF17
:101D24001420FFF7A9FFAF20FFF7A6FF08BD10B5E9
:101D34000446A1F15000C0B2FFF79EFF200940F015
:101D44001000FFF799FF04F00F00FFF795FF10BD97
:101D5400F8B507460E46203AD5B210F0800F07D1E9
:101D6400102B09D031463846FFF7E1FF002430E05C
:101D74000236F6B20027F3E731463846FFF7D7FFBD
:101D8400002407E004EB0513134AD05CFFF78AFF35
:101D94000134E4B2072CF5D9711CC9B23846FFF7F7
:101DA400C6FF002408E004EB051308330A4AD05C9C
:101DB400FFF778FF0134E4B2072CF4D90BE005EB0C
:101DC4004503064A02EB4303185DFFF76BFF01343A
:101DD400E4B2052CF3D9F8BD70310008482F00088F
:101DE4002DE9F04104460E4617469846002501E0C9
:101DF4000135EDB27A5D62B1434631462046FFF7C4
:101E0400A7FF0834E4B2782CF2D90236F6B20024E3
:101E1400EEE7BDE8F08103685A6912F4806F01D1DE
:101E2400002070476FF480625A610023036320220C
:101E340080F83D2080F83E30026C42F004020264D7
:101E440080F83C30012070472DE9F04106460C46ED
:101E5400174698463BE0FFF7EFF8069BC01A40454B
:101E640002D8B8F1000F32D1012D18D033689B6924
:101E740024EA03039BB2B3FA83F35B099F4226D19E
:101E840000233363202286F83D2086F83E30326CEE
:101E940042F02002326486F83C30012027E03368A7
:101EA4005B6924EA03039BB2B3FA83F35B09E5E7B6
:101EB40033685B6924EA030C1FFA8CFCBCFA8CFCC3
:101EC4004FEA5C1C674511D1B8F1FF3FC3D1C4F39D
:101ED4000745012DECD033689B6924EA030C1FFAF3
:101EE4008CFCBCFA8CFC4FEA5C1CEBE70020BDE8E0
:101EF400F0812DE9F84305460E469046994653E095
:101F04001A6842F400721A602B686FF480625A6196
:101F140000232B63202285F83D2085F83E302A6C6F
:101F240042F004022A6485F83C3001204AE0FFF7BD
:101F340083F8A0EB0900404502D8B8F1000F33D173
:101F4400012F17D02B689B6926EA03039BB2003B41
:101F540018BF012343B300232B63202285F83D20BF
:101F640085F83E302A6C42F020022A6485F83C3021
:101F7400012027E02B685B6926EA03039BB2003B40
:101F840018BF0123E6E72B689C6926EA0404A4B27F
:101F9400003C18BF0124A4B12B685A6912F4806F65
:101FA400AED1B8F1FF3FC2D1C6F30747012FEAD142
:101FB4002B685C6926EA0404A4B2003C18BF01241F
:101FC400E9E70020BDE8F88370B504460D461646DF
:101FD40023685B6913F0800F21D12046FFF71BFFB4
:101FE400F8B9B5F1FF3FF3D0FFF726F8801BA842FC
:101FF40001D8002DECD123685B6913F0800FE7D181
:1020040000232363202284F83D2084F83E30226C90
:1020140042F02002226484F83C30012000E00020D9
:1020240070BD0120FCE700002DE9F04385B00446B3
:102034000D4691461F46DDF830800D9E03681968F1
:1020440041F4807119600096434600224FF001115B
:10205400FFF7FAFE60B9236805F0FE051D613346FB
:10206400424626492046FFF744FF68B1012008E0B4
:1020740023681B6813F4807F02D04FF40073236439
:10208400032005B0BDE8F0830023039323685A6955
:1020940003929B690393039B324641462046FFF714
:1020A40093FF30B9012F0FD123685FFA89F61E61BF
:1020B400E7E7236C042B01D00120E2E722681368D0
:1020C40043F400731360F7E723684FEA19221A6197
:1020D400324641462046FFF777FF20B923685FFA6E
:1020E40089F61E61CDE7236C042B01D00120C8E7DB
:1020F4002268136843F400731360F7E702000100D9
:1021040070B504460D46164623685B6913F0040F48
:1021140021D12046FFF77FFEF8B9B5F1FF3FF3D098
:10212400FEF78AFF801BA84201D8002DECD123685A
:102134005B6913F0040FE7D100232363202284F8A2
:102144003D2084F83E30226C42F02002226484F860
:102154003C30012000E0002070BD0120FCE70000BD
:10216400002800F0CC8070B5044690F83D30002B78
:1021740077D0242384F83D302268136823F00103C8
:1021840013602268136843F40043136022681368E1
:1021940023F400431360FFF76DFA62685A4B9A42C6
:1021A40064D85A4B98428CBF00230123002B40F083
:1021B400A8805749A1FB00318B0C25686A6822F07E
:1021C4003F0242EA91426A6021680A6A22F03F02B1
:1021D40066684D4DAE424FD8013313430B622168FC
:1021E400CA6922F44F4222F0FF026668464B9E42BF
:1021F4004CD8431E7600B3FBF6F3013340F6FC7073
:10220400034278D0C3F30B031343CB6121680B68FB
:1022140023F0C003E269206A024313430B60216880
:102224008B6823F4034323F0FF032269E06802432D
:1022340013438B602168CB6823F0FF036269A069B4
:1022440002431343CB602268136843F00103136015
:1022540000202064202384F83D30206384F83E006D
:1022640070BD80F83C30FFF7B9FC82E7294B9842F7
:102274008CBF0023012399E74FF4967505FB03F304
:10228400254DA5FB03539B090133A6E7A368BBB9FE
:10229400451E06EB460CB5FBFCF50135C5F30B05F5
:1022A400B5FA85F56D0945BBC3B9013806EB46039C
:1022B400B0FBF3F30133C3F30B0343F40043A3E78D
:1022C400451E06EB860C0CEB8C0CB5FBFCF50135BE
:1022D400C5F30B05B5FA85F56D09E4E7013806EB9E
:1022E400860303EB8303B0FBF3F30133C3F30B0364
:1022F40043F4404388E7042386E7012384E701206D
:1023040070470120ACE700BFA08601007F841E0057
:1023140083DE1B43FF083D00D34D62102DE9F043DB
:1023240083B004460F46904699460C9EFEF784FE01
:10233400054694F83D00C0B2202803D0022003B023
:10234400BDE8F0830095192301224B492046FFF78D
:102354007BFD002840F0898094F83C30012B00F08C
:102364008680012384F83C3023681A6812F0010F38
:1023740003D11A6842F001021A602268136823F438
:1023840000631360212384F83D30402384F83E30F9
:10239400002323640A9B6362BDF82C306385638D3C
:1023A4002385364BE362019500964B4642463946F7
:1023B4002046FFF739FE00285BD1238D002B35D052
:1023C4002A4631462046FFF7FFFD20BB626A236898
:1023D40012781A61626A531C6362218D013989B2D1
:1023E4002185638D9BB2013B9BB263852368586949
:1023F40010F0040FE1D00029DFD052781A61636A2B
:1024040001336362238D013B2385638D9BB2013BC2
:102414009BB26385D1E7236C042B01D001208EE7A6
:102424002268136843F400731360F7E72A463146C1
:102434002046FFF765FE50B1236C042B01D0012028
:102444007DE72268136843F400731360F7E722689A
:10245400136843F400731360202384F83D30002391
:1024640084F83E3084F83C3069E7022067E70220B4
:1024740065E7012063E700BF020010000000FFFFD2
:10248400FFF78CFB0B480C490C4A002302E0D4589C
:10249400C4500433C4188C42F9D3094A094C0023AC
:1024A40001E013600432A242FBD300F00FF8FDF701
:1024B400E5FF7047000000208C0000209C370008D6
:1024C4008C000020BC030020FEE7000070B500264D
:1024D4000C4D0D4C641BA410A64209D100F0C0FCA5
:1024E40000260A4D0A4C641BA410A64205D170BDF7
:1024F40055F8043B98470136EEE755F8043B9847F6
:102504000136F2E79437000894370008943700083E
:102514009837000803460244934200D1704703F8F9
:10252400011BF9E70EB46FF0004100B59CB01DAB80
:1025340002900690079104910848094953F8042B26
:102544000591006802A9019300F07EF80022029B25
:102554001A701CB05DF804EB03B07047280000202B
:102564000802FFFF0A7870B56AB970BD9A4209D1B2
:102574000C46054614F8013F002BF6D015F8016F00
:102584009E42F7D001300378002BEFD11846ECE7D8
:102594002DE9F0478E6882469E420C4690461F46BF
:1025A40038D88A8912F4906F32D0256809690133CA
:1025B400A5EB010965694B4405EB450505EBD575AC
:1025C4006D109D4238BF1D46530531D5294600F094
:1025D4006FFB064650B90C234FF0FF30CAF80030A9
:1025E400A38943F04003A381BDE8F0874A462169EB
:1025F40000F0CEFAA38923F4906343F08003A3810F
:1026040026614E4426603E466561A5EB0905A5603A
:10261400BE4200D93E4632464146206800F0C6FA22
:10262400A36800209B1BA360236833442360DBE77B
:102634002A4600F0B1FB06460028E1D15046216944
:1026440000F0CEFAC7E700002DE9F04F98468B89D9
:1026540007461B060D4614469DB00ED50B6963B99B
:10266400402100F025FB2860286120B90C233B6041
:102674004FF0FF30D1E040236B6100230993202306
:102684008DF8293030234FF00109CDF80C80DFF8A4
:10269400A4818DF82A3023469A4613F8012B0AB1F7
:1026A400252AF9D1BAEB040B0BD05B462246294606
:1026B4003846FFF76DFF013000F0AA80099A5A44AA
:1026C40009929AF80030002B00F0A28000234FF00A
:1026D400FF32CDE905230AF1010A049307938DF82B
:1026E40053301A935446052214F8011B514800F044
:1026F40041FA049AD8B9D00644BF20238DF8533048
:10270400110744BF2B238DF853309AF800302A2B3D
:1027140015D0544600204FF00A0C079A214611F8B0
:10272400013B303B092B4ED9B0B1079214E0A0EB2A
:10273400080309FA03F31343A2460493D2E7039B65
:10274400191D1B680391002BBBBF5B4242F00202C0
:1027540007930793B8BF049223782E2B0CD1637888
:102764002A2B35D1039B02341A1D1B680392002BBC
:10277400B8BF4FF0FF330593DFF8BCA003225046E7
:10278400217800F0F7F940B14023A0EB0A0003FAE6
:1027940000F0049B01340343049314F8011B062244
:1027A40026488DF8281000F0E5F9002838D0244B8D
:1027B4001BBB039B073323F0070308330393099BD5
:1027C4003344099367E70C4601200CFB0232A5E76A
:1027D40000234FF00A0C194601340593204610F8E3
:1027E400012B303A092A03D9002BC5D00591C3E740
:1027F400044601230CFB0121F0E703AB00932A46B6
:102804003846104B04A9AFF30080421C0646D6D1CB
:10281400AB895B063FF52CAF09981DB0BDE8F08F7E
:1028240003AB00932A463846064B04A900F07CF813
:10283400EBE700BF60370008663700086A37000816
:1028440000000000952500082DE9F047164699463A
:102854008A680B6907469342B8BF1346336091F800
:1028640043200C46DDF820800AB10133336023682D
:10287400990642BF336802333360256815F00605B4
:1028840006D104F1190AE36832689B1AAB4228DCCA
:1028940094F84320131E226818BF012392062DD4F6
:1028A4004946384604F14302C047013020D023682A
:1028B400E56803F00603042B18BF002532684FF0C7
:1028C4000006A36808BFAD1A226908BF25EAE575AA
:1028D4009342C4BF9B1AED181A34B5421AD1002092
:1028E40008E00123524649463846C047013003D127
:1028F4004FF0FF30BDE8F0870135C4E73020E11820
:1029040081F843005A1C94F845102244023382F89B
:102914004310C5E70123224649463846C0470130E3
:10292400E6D00136D9E700002DE9FF470F7E914636
:10293400782F80460C469A460C9D01F1430207D835
:10294400622F0AD8002F00F0D980582F00F0A480FD
:1029540004F1420584F842703AE0A7F16303152BB1
:10296400F6D801A151F823F0C5290008D929000897
:10297400552900085529000855290008552900083B
:10298400D9290008552900085529000855290008A7
:1029940055290008E72A0008092A0008C92A00085E
:1029A4005529000855290008092B00085529000855
:1029B400092A00085529000855290008D12A0008C9
:1029C4002B681A1D1B682A6004F1420584F8423002
:1029D4000123A4E020682968060601F104030AD54E
:1029E4000E682B60002E03DA2D23764284F84330E0
:1029F4000A235E4819E00E6810F0400F2B6018BFE0
:102A040036B2EFE72B682068191D2960010601D54D
:102A14001E6802E04606FBD51E886F2F0CBF0823F4
:102A24000A235248002184F843106568002DA8BF8A
:102A34002168A560A4BF21F0040121600EB9002D16
:102A44004DD01546B6FBF3F103FB1167C75D05F8DE
:102A5400017D3746BB420E46F4D9082B0BD12368BF
:102A6400DE0708D5236961689942DEBF302305F883
:102A7400013C05F1FF35521B22614B46214640467D
:102A8400CDF800A003AAFFF7DFFE01304CD14FF0D0
:102A9400FF3004B0BDE8F087344881F845702968F8
:102AA400236851F8046B29601D0614D5DF0744BF61
:102AB40043F0200323601EB9236823F0200323601E
:102AC4001023AFE7236843F02003236078232848CA
:102AD40084F84530E3E7590648BFB6B2E6E7154641
:102AE400BBE72B682668181D6169286035061B68DA
:102AF40001D5196002E07006FBD519800023154644
:102B04002361BAE72B6800211A1D2A601D686268D8
:102B1400284600F02FF808B1401B60606368236109
:102B2400002384F84330A8E72A46494640462369EF
:102B3400D0470130ABD023689B0713D4E068039BD4
:102B44009842B8BF1846A4E7012332464946404696
:102B5400D04701309BD00135E36803995B1AAB423F
:102B6400F2DCEBE7002504F11906F5E771370008FC
:102B740082370008034610B5C9B20244934218468E
:102B840001D1002003E0047801338C42F6D110BD5A
:102B94000A44914200F1FF3300D1704710B511F897
:102BA400014B914203F8014FF9D110BD884210B591
:102BB40001EB020402D98442234607D8431EA142F2
:102BC40008D011F8012B03F8012FF8E7014602445D
:102BD4008A4200D110BD13F8014D02F8014DF7E708
:102BE40038B50546002940D051F8043C0C1F002B91
:102BF400B8BFE41800F010F91C4A136833B96360D5
:102C040014602846BDE8384000F00CB9A34208D946
:102C1400206821188B4201BF19685B68091821607C
:102C2400EDE71A465B680BB1A342FAD91168501854
:102C3400A0420BD120680144501883421160E0D1B6
:102C440018685B68014411605360DAE702D90C2309
:102C54002B60D6E7206821188B4201BF19685B6896
:102C64000918216063605460CBE738BDA8030020D5
:102C740070B50E4E0C463168054611B900F0BCF82B
:102C840030602146284600F0B7F8431C0AD0C41C23
:102C940024F00304A04207D0211A284600F0ACF81F
:102CA400013001D14FF0FF34204670BDAC03002049
:102CB4002DE9F041CD1C25F0030508350C2D38BF56
:102CC4000C25002D074601DBA94205D90C2300265B
:102CD4003B603046BDE8F0812E4E00F09DF833682D
:102CE4001C4634BB29463846FFF7C2FF431C044642
:102CF4004DD134682646002E40D1236831463846EB
:102D040004EB030800F078F880453AD121680335D4
:102D14006D1A25F0030508350C2D38BF0C253846EF
:102D24002946FFF7A5FF01302BD023682B442360ED
:102D34000EE02268521B1ED40B2A16D96119A34235
:102D4400256018BF5960636808BF316062514B60E9
:102D5400384604F10B0600F065F826F00706231D3B
:102D6400F21AB6D09B1BA350B3E76268A3420CBF10
:102D740032605A60ECE723466468B2E7344676680A
:102D8400B9E70C2338463B6000F04CF8A1E7256016
:102D9400DEE700BFA80300202DE9F0418046144679
:102DA4000E4621B91146BDE8F041FFF781BF2AB9AB
:102DB400FFF716FF25462846BDE8F08100F038F8F5
:102DC4008442074602D8B4EB500F12D8214640463D
:102DD400FFF76EFF05460028EDD0BC42224631467F
:102DE40028BF3A46FFF7D4FE31464046FFF7F8FEC7
:102DF400E1E73546DFE7000038B50023054D04461A
:102E040008462B6000F01EF8431C02D12B6803B166
:102E1400236038BDB0030020014800F011B800BFA2
:102E2400B4030020014800F00CB800BFB403002034
:102E340051F8043C181F002BBCBF0B58C018704736
:102E440070477047044A05491368002B08BF0B46B6
:102E54001844106018467047B8030020C0030020CF
:102E6400F8B500BFF8BC08BC9E467047F8B500BF73
:082E7400F8BC08BC9E46704743
:102E7C000D0A000041542B43495053454E443D2507
:102E8C00640000003E00000053454E44204F4B00B0
:102E9C0041542B43574A41503D2257484C44222C15
:102EAC002257484C4441444D494E220041542B4337
:102EBC00574155544F434F4E4E3D310041542B43D7
:102ECC00495053544152543D22544350222C2231E8
:102EDC0039322E3136382E35302E323231222C38D2
:102EEC00310000004F4B000041542B4349504449E2
:102EFC004E464F3D3100000048656C6C6F0D0A006A
:102F0C0054435020636F6E6E6563746564212100B9
:102F1C0002030405060708090A0B0C0D0E0F10100E
:102F2C000102000000000000000000000102030488
:102F3C00060708090000000001020304000000005D
:102F4C0000000000002F0000000007000700001424
:102F5C007F147F1400242A7F2A1200626408132332
:102F6C0000364955225000000503000000001C22C9
:102F7C004100000041221C000014083E0814000807
:102F8C00083E0808000000A06000000808080808B7
:102F9C00000060600000002010080402003E51494F
:102FAC00453E0000427F40000042615149460021ED
:102FBC0041454B31001814127F1000274545453907
:102FCC00003C4A4949300001710905030036494962
:102FDC00493600064949291E00003636000000001B
:102FEC005636000000081422410000141414141466
:102FFC00000041221408000201510906003249590F
:10300C00513E007C1211127C007F49494936003E2A
:10301C0041414122007F4141221C007F49494941E5
:10302C00007F09090901003E4149497A007F0808DF
:10303C00087F0000417F4100002040413F01007F9C
:10304C0008142241007F40404040007F020C027F68
:10305C00007F0408107F003E4141413E007F09097A
:10306C000906003E4151215E007F091929460046A0
:10307C00494949310001017F0101003F4040403F77
:10308C00001F2040201F003F4038403F00631408C1
:10309C00146300070870080700615149454300009C
:1030AC007F41410000552A552A55000041417F00BF
:1030BC0000040201020400404040404000000102B4
:1030CC000400002054545478007F4844443800389D
:1030DC004444442000384444487F00385454541825
:1030EC0000087E0901020018A4A4A47C007F080437
:1030FC0004780000447D4000004080847D00007F07
:10310C00102844000000417F4000007C0418047823
:10311C00007C0804047800384444443800FC24241F
:10312C0024180018242418FC007C08040408004807
:10313C005454542000043F444020003C4040207C28
:10314C00001C2040201C003C4030403C0044281017
:10315C002844001CA0A0A07C004464544C441414CB
:10316C001414141400000000000000000000000003
:10317C0000000000000000F8000000000000003318
:10318C003000000000100C06100C060000000000BF
:10319C000000000040C07840C0784000043F0404A8
:1031AC003F040400007088FC08300000001820FF69
:1031BC00211E0000F008F000E018000000211C03A4
:1031CC001E211E0000F00888700000001E21232420
:1031DC001927211010160E0000000000000000003E
:1031EC0000000000000000E01804020000000007CE
:1031FC001820400000020418E000000000402018D5
:10320C0007000000404080F0804040000202010FA7
:10321C0001020200000000F0000000000101011F8B
:10322C0001010100000000000000000080B07000EF
:10323C00000000000000000000000000000101017F
:10324C00010101010000000000000000003030000E
:10325C0000000000000000008060180400601806E8
:10326C000100000000E010080810E000000F102022
:10327C0020100F00001010F8000000000020203F6C
:10328C0020200000007008080888700000302824F6
:10329C002221300000300888884830000018202097
:1032AC0020110E000000C02010F8000000070424BC
:1032BC00243F240000F80888880808000019212001
:1032CC0020110E0000E0108888180000000F11205B
:1032DC0020110E0000380808C83808000000003F14
:1032EC00000000000070880808887000001C222173
:1032FC0021221C0000E010080810E0000000312220
:10330C0022110F00000000C0C000000000000030BF
:10331C003000000000000080000000000000806011
:10332C000000000000008040201008000001020492
:10333C000810200040404040404040000404040479
:10334C000404040000081020408000000020100835
:10335C0004020100007048080808F000000000306A
:10336C0036010000C030C828E810E00007182724F8
:10337C0023140B000000C038E0000000203C2302A6
:10338C000227382008F8888888700000203F202009
:10339C0020110E00C030080808083800071820203B
:1033AC002010080008F808080810E000203F202032
:1033BC0020100F0008F88888E8081000203F202013
:1033CC002320180008F88888E8081000203F200007
:1033DC0003000000C030080808380000071820203F
:1033EC00221E020008F808000008F808203F2101FE
:1033FC0001213F20000808F8080800000020203FA9
:10340C002020000000000808F8080800C080808018
:10341C007F00000008F888C028180800203F200111
:10342C002638200008F8080000000000203F20206B
:10343C002020300008F8F800F8F80800203F003F82
:10344C00003F200008F830C00008F808203F20009A
:10345C0007183F00E01008080810E0000F102020AB
:10346C0020100F0008F808080808F000203F210180
:10347C0001010000E01008080810E0000F182424D7
:10348C0038504F0008F8888888887000203F20004A
:10349C00030C302000708808080838000038202100
:1034AC0021221C00180808F8080818000000203F0A
:1034BC002000000008F808000008F808001F202071
:1034CC0020201F000878880000C838080000073842
:1034DC000E010000F80800F80008F800033C070093
:1034EC00073C0300081868808068180820302C03FB
:1034FC00032C30200838C800C83808000000203FD2
:10350C002000000010080808C838080020382621C0
:10351C0020201800000000FE020202000000007FC4
:10352C0040404000000C30C00000000000000001D2
:10353C000638C00000020202FE00000000404040BD
:10354C007F000000000004020202040000000000E2
:10355C00000000000000000000000000808080805F
:10356C008080808000020204000000000000000047
:10357C0000000000000080808080000000192422E0
:10358C0022223F2008F8008080000000003F11201C
:10359C0020110E000000008080800000000E112021
:1035AC0020201100000000808088F800000E1120FF
:1035BC0020103F200000808080800000001F22220D
:1035CC0022221300008080F0888888180020203F79
:1035DC00202000000000808080808000006B94948C
:1035EC009493600008F8008080800000203F210048
:1035FC0000203F2000809898000000000020203F11
:10360C0020200000000000809898000000C08080FE
:10361C00807F000008F8000080808000203F24029A
:10362C002D302000000808F8000000000020203F8A
:10363C00202000008080808080808000203F20003F
:10364C003F20003F8080008080800000203F2100D0
:10365C0000203F200000808080800000001F202080
:10366C0020201F00808000808000000080FFA120AF
:10367C0020110E000000008080808000000E1120C0
:10368C0020A0FF80808080008080800020203F214F
:10369C002000010000008080808080000033242402
:1036AC0024241900008080E0808000000000001FAE
:1036BC00202000008080000000808000001F20205F
:1036CC0020103F20808080000080808000010E3020
:1036DC000806010080800080008080800F300C0381
:1036EC000C300F0000808000808080000020312E84
:1036FC000E312000808080000080808080818E7060
:10370C001806010000808080808080000021302C11
:10371C002221300000000000807C0202000000002A
:10372C00003F404000000000FF00000000000000CF
:10373C00FF0000000002027C800000000040403FBF
:10374C000000000000060101020204040000000059
:10375C0000000000232D302B2000686C4C006566A7
:10376C0067454647003031323334353637383941C6
:10377C0042434445460030313233343536373839DC
:08378C006162636465660000E0
:04379400090200081E
:04379800E50100083F
:10379C00010000001000000000127A00AE00104082
:1037AC00B081FFA1A6A83FC8D300D580D805D9F118
:1037BC00DA12D8308D14AF002C000020000000006D
:1037CC0000000000000000000000000000000000ED
:1037DC0000000000000000000000000000000000DD
:1037EC0000000000000000000000000000000000CD
:1037FC0000000000000000000000000000000000BD
:10380C0000000000000000000000000000000000AC
:0C381C00000000000000000000000000A0
:040000050800248546
:00000001FF
