:020000040800F2
:100000000000012061170008CD030008CF0300089D
:10001000D1030008D3030008D50300080000000046
:10002000000000000000000000000000D7030008EE
:10003000D903000800000000DB030008DD0300080E
:10004000A9170008A9170008A9170008A917000890
:10005000A9170008A9170008A9170008A917000880
:10006000A9170008A9170008A9170008A917000870
:10007000A9170008A9170008A9170008A917000860
:10008000A9170008A9170008A9170008A917000850
:10009000A9170008A9170008A9170008A917000840
:1000A000A9170008A9170008A9170008A917000830
:1000B000A9170008A9170008A9170008A917000820
:1000C000A9170008A9170008A9170008A917000810
:1000D000A9170008E5030008A9170008A9170008D8
:1000E000A9170008A9170008A9170008A9170008F0
:1000F000A9170008A9170008A9170008A9170008E0
:10010000A9170008A9170008A9170008A9170008CF
:10011000A9170008A9170008A9170008A9170008BF
:10012000A9170008A9170008A9170008A9170008AF
:1001300000000000000000000000000000000000BF
:1001400000000000000000000000000000000000AF
:10015000000000000000000000000000000000009F
:10016000000000000000000000000000000000008F
:10017000000000000000000000000000000000007F
:10018000000000000000000000000000000000006F
:10019000000000000000000000000000000000005F
:1001A000000000000000000000000000000000004F
:1001B000000000000000000000000000000000003F
:1001C000000000000000000000000000000000002F
:1001D000000000000000000000000000000000001F
:0401E0005FF8E0F1F3
:1001E40010B5054C237833B9044B13B10448AFF36D
:1001F40000800123237010BD3000002000000000A7
:100204000418000808B5034B1BB103490348AFF3B6
:10021400008008BD0000000034000020041800081D
:1002240008B502681A4B9A4200D008BD194B1B78D6
:10023400312B12D0322B07D0302B1BD00122154981
:10024400154800F0D4FBF0E7144B01221A700F227A
:100254001349114800F0C6F9F0E700220F4B1A7059
:100264002021104801F078F808220F490A4800F0CC
:10027400B9F9E3E7094B00221A7001222021094849
:1002840001F06AF809220949034800F0ABF9D5E7FF
:10029400003801404C000020540000204D00002094
:1002A40000000020000C01401C0000201000002071
:1002B40008B50268064B9A4200D008BD00222021EE
:1002C400044801F049F8044B01221A70F5E700BF15
:1002D40000380140001801404E00002072B6FEE7CD
:1002E40000B591B02822002106A801F081FA00236C
:1002F40001930293039304930593012206924FF40E
:10030400803307930A9202220D920E934FF4E01366
:100314000F9306A800F0F2FB80B90F23019302218A
:100324000291002303934FF480620492059301A881
:1003340000F016FE20B911B05DF804FBFFF7CEFF04
:10034400FFF7CCFF10B500F08BFBFFF7C9FF01F0FE
:1003540059F901F0A5F901221549164800F047FBA7
:1003640000240AE0642000F09FFB134B1B788BB938
:1003740000F094FB001B312813D8104B1B78002B82
:10038400F0D020210E4800F0EDFF4FF4FA7000F099
:100394008BFBEAE700F082FBC4B2074B00221A7021
:1003A400E6E701222021074800F0D6FFE5E700BF79
:1003B4004C000020540000204E0000204D0000207E
:1003C400000C014000180140FEE7FEE7FEE7FEE7EF
:1003D400FEE770477047704708B500F053FB08BD4F
:1003E40008B5024800F0A4F908BD00BF540000207D
:1003F40082B00E4B9A6942F001029A619A6902F046
:1004040001020092009ADA6942F08052DA61DB69F3
:1004140003F080530193019B054A536823F0E06382
:1004240043F00073536002B0704700BF00100240F5
:1004340000000140026802F10C0353E8003F23F47A
:1004440090730C3242E800310029F3D1026802F1C2
:10045400140353E8003F23F00103143242E800314F
:100464000029F3D1036B012B05D0202380F84230FF
:10047400002303637047026802F10C0353E8003F52
:1004840023F010030C3242E800310029F3D1ECE7E9
:1004940090F84130DBB2212B01D0022070478368F1
:1004A400B3F5805F17D0036A5A1C02621A78036896
:1004B4005A60C38C9BB2013B9BB2C3844BB90268A4
:1004C400D36823F08003D3600268D36843F0400309
:1004D400D360002070470369002BE4D1036A1B88B2
:1004E4000268C3F308035360036A02330362E0E75C
:1004F40010B504460268136923F44053C1680B43E2
:10050400136183680269134342691A430168CB6823
:1005140023F4B05323F00C031343CB6002685369F4
:1005240023F4407381690B4353610268134B9A426D
:1005340020D000F0D1FD024602EB820202EB8202DF
:1005440063689B00B2FBF3F20D48A0FB023149093A
:10055400642303FB11231B013233A0FB03235B0938
:1005640003F0F00202EB011203F00F0321681344BD
:100574008B6010BD00F0C0FD0246DDE7003801408D
:100584001F85EB5160B310B5044690F8413013B3A6
:10059400242384F841302268D36823F40053D360C1
:1005A4002046FFF7A5FF2268136923F490431361E3
:1005B4002268536923F02A0353612268D36843F401
:1005C4000053D36000206064202384F8413084F811
:1005D4004230606310BD80F8403001F07BF8D7E70B
:1005E4000120704790F84130DBB2202B10D189B143
:1005F40092B101628284C28400234364212280F880
:1006040041200168CA6842F08002CA6018467047F7
:1006140002207047012070470120704708B5016827
:10062400CA6822F04002CA60202280F84120FFF705
:100634003FFE002008BD704708B5406A0023C3850B
:10064400C384FFF7F8FF08BD704790F84230DBB26F
:10065400222B69D18368B3F5805F4FD0826AB3F5EA
:10066400805F04D0002B56D10369002B53D103685B
:100674005B681370836A01338362C38D9BB2013B51
:100684009BB2C385002B51D100B583B00268D368F7
:1006940023F02003D3600268D36823F48073D3600B
:1006A4000268536923F001035361202380F8423028
:1006B40000234363036B012B33D1002303630268DC
:1006C40002F10C0353E8003F23F010030C3242E81C
:1006D40000310029F3D103681A6812F0100F06D014
:1006E400002201921A6801925B680193019B818D3B
:1006F400FFF7AAFF002003B05DF804FB0269002A9B
:10070400ACD1826A03685B68C3F308031380836A0D
:1007140002338362B1E703685B6803F07F031370FD
:10072400A8E7FFF77DFDE5E702207047002070474A
:1007340030B583B0044602681368D068516913F079
:100744000F0505D113F0200F02D010F0200F19D19E
:100754002DB111F0010119D110F4907F16D1216B44
:1007640001297DD013F0800F03D010F0800F40F0EA
:10077400188113F0400F03D010F0400F40F01581A2
:1007840003B030BD2046FFF760FFF9E713F0010F17
:1007940006D010F4807F03D0626C42F001026264E0
:1007A40013F0040F04D019B1626C42F002026264C7
:1007B40013F0020F04D019B1626C42F004026264B7
:1007C40013F0080F07D010F0200F00D119B1626C9C
:1007D40042F008026264626C002AD1D013F0200F48
:1007E40002D010F0200F29D123685B6903F0400385
:1007F400626C12F0080F00D163B32046FFF71AFEB3
:1008040023685B6913F0400F20D0226802F11403BF
:1008140053E8003F23F04003143242E8003100293A
:10082400F3D1E36B73B1634A5A63E06B00F0C6FD26
:100834000028A5D0E06B436B9847A1E72046FFF75B
:1008440004FFD1E72046FFF7F6FE99E72046FFF7BD
:10085400F2FE95E72046FFF7EEFE002363648FE780
:1008640013F0100F3FF47EAF10F0100F3FF47AAF87
:10087400002301931368019353680193019B536907
:1008840013F0400F51D0E26B13685B689BB2002BEE
:100894003FF476AFA18D99427FF672AFE3859369F9
:1008A400202B37D0226802F10C0353E8003F23F4D5
:1008B40080730C3242E800310029F3D1226802F13E
:1008C400140353E8003F23F00103143242E80031DB
:1008D4000029F3D1226802F1140353E8003F23F006
:1008E4004003143242E800310029F3D1202384F874
:1008F400423000232363226802F10C0353E8003FD3
:1009040023F010030C3242E800310029F3D1E06BEC
:1009140000F031FD02236363A18DE38D9BB2C91AFC
:1009240089B22046FFF790FE2AE7A18DE38D9BB2A2
:10093400C91A89B2E38D9BB2002B3FF421AF002981
:100944003FF41EAF226802F10C0353E8003F23F486
:1009540090730C3242E800300028F3D1226802F18F
:10096400140353E8003F23F00103143242E800303B
:100974000028F3D1202384F8423000232363226823
:1009840002F10C0353E8003F23F010030C3242E859
:1009940000300028F3D1022363632046FFF754FE9E
:1009A400EEE62046FFF774FDEAE62046FFF736FE42
:1009B400E6E600BF3D06000881628285C285002309
:1009C4004364222380F84230036923B10268D36868
:1009D40043F48073D3600268536943F001035361A5
:1009E4000268D36843F02003D3600020704708B541
:1009F40090F84230DBB2202B08D149B10AB901206A
:100A040008BD00230363FFF7D7FFF9E70220F7E7E8
:100A14000120F5E710B504460E4B18784FF47A73AD
:100A2400B3FBF0F30C4A1068B0FBF3F000F0D4FD14
:100A340068B90F2C01D901200AE0002221464FF0A9
:100A4400FF3000F083FD054B1C60002000E0012016
:100A540010BD00BF250000202C000020280000202D
:100A640008B5074A136843F010031360032000F02D
:100A74005BFD0F20FFF7CEFFFFF7BAFC002008BD97
:100A840000200240034A1168034B1B780B44136097
:100A9400704700BF5000002025000020014B18685B
:100AA400704700BF5000002038B50446FFF7F6FF3A
:100AB4000546B4F1FF3F02D0044B1B781C44FFF7FA
:100AC400EDFF401BA042FAD338BD00BF2500002033
:100AD40082B0084B1B68084AA2FB03235B0A00FB95
:100AE40003F3019300BF019B5A1E0192002BF9D11D
:100AF40002B070472C000020D34D6210002800F093
:100B0400F18170B582B00446036813F0010F2CD054
:100B1400994B5B6803F00C03042B1DD0964B5B6868
:100B240003F00C03082B12D06368B3F5803F41D067
:100B3400002B55D103F1804303F504331A6822F4E2
:100B440080321A601A6822F480221A6037E08A4BD5
:100B54005B6813F4803FE7D0874B1B6813F4003FB6
:100B640003D06368002B00F0BF81236813F0020FE9
:100B740075D0814B5B6813F00C0F5FD07E4B5B68C4
:100B840003F00C03082B54D02369002B00F08A8057
:100B94007A4B01221A60FFF781FF0546764B1B68EA
:100BA40013F0020F75D1FFF779FF401B0228F5D926
:100BB40003209EE1704A136843F480331360636832
:100BC40043B3FFF76BFF05466B4B1B6813F4003F01
:100BD400CBD1FFF763FF401B6428F5D9032088E1DC
:100BE400B3F5A02F09D0644B1A6822F480321A603E
:100BF4001A6822F480221A60E1E703F18043A3F526
:100C04003C331A6842F480221A601A6842F4803233
:100C14001A60D4E7FFF742FF0546574B1B6813F4ED
:100C2400003FA2D0FFF73AFF401B6428F5D9032008
:100C34005FE1514B5B6813F4803FA5D14E4B1B68B9
:100C440013F0020F03D02369012B40F04F814A4A6D
:100C5400136823F0F803616943EAC103136023684E
:100C640013F0080F33D0A369002B5CD0434B01224F
:100C7400C3F88024FFF712FF05463F4B5B6A13F06D
:100C8400020F21D1FFF70AFF401B0228F5D90320E8
:100C94002FE1394A136823F0F803616943EAC10379
:100CA4001360DCE7354B00221A60FFF7F7FE0546B8
:100CB400314B1B6813F0020FD1D0FFF7EFFE401B3E
:100CC4000228F5D9032014E10120FFF701FF23686E
:100CD40013F0040F00F09680274BDB6913F0805F5C
:100CE40034D1254BDA6942F08052DA61DB6903F0D2
:100CF40080530193019B0125214B1B6813F4807FD2
:100D040026D0E368012B3DD0002B53D103F180435F
:100D140003F504331A6A22F001021A621A6A22F0F5
:100D240004021A6233E0154B0022C3F88024FFF753
:100D3400B5FE0546104B5B6A13F0020FC7D0FFF7F0
:100D4400ADFE401B0228F5D90320D2E00025D3E7ED
:100D54000B4A136843F480731360FFF79FFE064643
:100D6400074B1B6813F4807FCBD1FFF797FE801BE2
:100D74006428F5D90320BCE0001002400000424280
:100D8400007000405F4A136A43F001031362E36892
:100D940033B3FFF783FE06465A4B1B6A13F0020F68
:100DA4002FD1FFF77BFE801B41F288339842F3D9A1
:100DB40003209EE0052B09D0524B1A6A22F001024F
:100DC4001A621A6A22F004021A62E0E74D4B1A6AA8
:100DD40042F004021A621A6A42F001021A62D6E769
:100DE400FFF75CFE0646474B1B6A13F0020F08D060
:100DF400FFF754FE801B41F288339842F3D9032055
:100E040077E0E5B9E369002B72D03E4A526802F0FC
:100E14000C02082A56D0022B17D03B4B00221A662C
:100E2400FFF73CFE0446374B1B6813F0007F47D0A6
:100E3400FFF734FE001B0228F5D9032059E0314A9C
:100E4400D36923F08053D361DCE72F4B00221A6669
:100E5400FFF724FE05462B4B1B6813F0007F06D0DA
:100E6400FFF71CFE401B0228F5D9032041E0236A4A
:100E7400B3F5803F1AD023494B6823F47413226AD4
:100E8400606A024313434B601F4B01221A66FFF74B
:100E940005FE04461B4B1B6813F0007F0ED1FFF7C1
:100EA400FDFD001B0228F5D9032022E0154A5368F2
:100EB40023F40033A1680B435360DCE7002018E0FF
:100EC400002016E0012B16D00E4B5B6803F4803132
:100ED400226A914211D103F47013626A93420ED1D3
:100EE400002006E001207047012002E0012000E01C
:100EF400002002B070BD0120FBE70120F9E70120CA
:100F0400F7E700BF00100240000042420F4B5B684D
:100F140003F00C02082A01D00D487047C3F3834242
:100F24000C49885C13F4803F0BD0084B5B68C3F317
:100F34004043094AD35C064A02FB00F0B0FBF3F0DD
:100F44007047064B03FB00F0704700BF00100240DF
:100F540000127A001C1800082C18000800093D0033
:100F6400002800F0A08070B50D460446524B1B6863
:100F740003F007038B420BD24F4A136823F0070395
:100F84000B431360136803F007038B4240F08D801A
:100F9400236813F0020F17D013F0040F04D0474A4C
:100FA400536843F4E0635360236813F0080F04D0DC
:100FB400424A536843F460535360404A536823F0F1
:100FC400F003A1680B435360236813F0010F31D081
:100FD4006368012B20D0022B25D0384A126812F006
:100FE400020F64D035494A6822F0030213434B6070
:100FF400FFF754FD0646314B5B6803F00C0362684F
:10100400B3EB820F16D0FFF749FD801B41F2883302
:101014009842F0D9032045E0284A126812F4003FB0
:10102400E0D101203EE0254A126812F0007FD9D1B8
:10103400012037E0204B1B6803F00703AB420AD9B9
:101044001D4A136823F007032B431360136803F04E
:101054000703AB422DD1236813F0040F06D0174ABF
:10106400536823F4E063E1680B435360236813F08F
:10107400080F07D0114A536823F46053216943EAE7
:10108400C1035360FFF742FF0C4B5B68C3F30313C8
:101094000B4AD35CD8400B4B18600B4B1868FFF716
:1010A400B9FC002070BD012070470120FAE701203F
:1010B400F8E70120F6E700BF0020024000100240DC
:1010C400301800082C00002028000020014B18686C
:1010D400704700BF2C00002008B5FFF7F7FF044B52
:1010E4005B68C3F30223034AD35CD84008BD00BF46
:1010F400001002404018000808B5FFF7E7FF044B52
:101104005B68C3F3C223034AD35CD84008BD00BF65
:10111400001002404018000870B582B00024A446B4
:10112400B0E0874DAA4210D007D9864DAA420CD010
:1011340005F58035AA4208D013E0A5F58015AA422A
:1011440003D005F57025AA4207D18A68002A62D027
:10115400012A5BD04361082403E0A5F58015AA4267
:10116400F3D0BEF1FF0F58D80646BEF1FF0F56D894
:101174004FEA8C0233680F25954023EA050304FAED
:1011840002F2134333604B6813F0805F78D06E4BE8
:101194009A6942F001029A619B6903F00103019389
:1011A400019B4FEA9C02951C684B53F825600CF098
:1011B40003039D000F23AB4026EA0306644B9842C9
:1011C40033D003F58063984200F0988003F5806380
:1011D400984200F0958003F58063984200F0928075
:1011E40003F58063984200F08F8003F58063984292
:1011F40019D006231AE0CC68B3E7CC680434B0E70E
:10120400CC680834ADE7CC680C34AAE70361082441
:10121400A7E70024A5E70424A3E7061DA5E7ACF18E
:1012240008029200A6E7052300E00023AB40334305
:101234000232464D45F822304B6813F4801F65D0C6
:10124400444A936843EA0E0393604B6813F4001F07
:1012540062D0404AD36843EA0E03D3604B6813F468
:10126400003F5FD03B4A536843EA0E0353604B6828
:1012740013F4803F5CD0374A136843EA0E031360CB
:101284000CF1010C0A6832FA0CF357D0012303FA6B
:101294000CF302EA030E33EA0202F1D14A68122A7D
:1012A4003FF63FAF122A3FF65CAF01A555F822F096
:1012B4004F110008FB11000805120008171200085E
:1012C400671100086711000867110008671100081A
:1012D400671100086711000867110008671100080A
:1012E40067110008671100086711000867110008FA
:1012F40067110008FF1100080B120008012395E78D
:10130400022393E7032391E704238FE7114A9368A9
:1013140023EA0E03936098E70E4AD36823EA0E0388
:10132400D3609BE70B4A536823EA0E0353609EE79E
:10133400084A136823EA0E031360A1E702B070BDE4
:101344000000221000003110001002400000014093
:1013540000080140000401400AB10161704709041A
:1013640001617047C36801EA030221EA030141EA0B
:1013740002410161704790F82130DBB2022B06D0A4
:1013840004238363002380F820300120704702681F
:10139400136823F00E0313600268136823F001033B
:1013A4001360036CC16B012202FA03F34B6080F8F3
:1013B4002120002380F820301846704708B590F8A3
:1013C4002130DBB2022B03D004238363012008BD48
:1013D4000268136823F00E0313600268136823F095
:1013E4000103136003684C4A93424ED9783A9342FE
:1013F40024D01432934230D0143293422FD014327A
:1014040093422FD0143293422FD0143293422FD0D0
:10141400143293422FD002F5627293422ED01432CA
:1014240093422DD0143293422CD01432934202D0E2
:101434004FF4803203E04FF4805200E00122374B36
:101444005A60012380F82130002380F82030436B58
:10145400002B5ED098470020B9E71022EFE74FF445
:101464008072ECE74FF48052E9E74FF48032E6E70C
:101474004FF48012E3E74FF08072E0E70122DEE7E9
:101484001022DCE74FF48072D9E7254A934224D036
:101494001432934225D01432934224D0143293420E
:1014A40024D01432934224D01432934224D01432E0
:1014B400934224D002F56272934223D014329342B1
:1014C40022D01432934221D01432934202D04FF4EA
:1014D400803203E04FF4805200E00122114B5A6045
:1014E400AFE71022FAE74FF48072F7E74FF4805227
:1014F400F4E74FF48032F1E74FF48012EEE74FF057
:101504008072EBE70122E9E71022E7E74FF48072EB
:10151400E4E700205BE700BF8000024000040240D3
:101524000800024000000240074AD36823F4E06345
:101534001B041B0C000200F4E060034343F0BF6390
:1015440043F40033D360704700ED00E000B5194B5D
:10155400DB68C3F30223C3F1070CBCF1040F28BFFB
:101564004FF0040C03F1040EBEF1060F18D9033B2F
:101574004FF0FF3E0EFA0CFC21EA0C0199400EFAE2
:1015840003F322EA0303194300280BDB0901C9B260
:1015940000F1604000F5614080F800135DF804FB41
:1015A4000023E5E700F00F000901C9B2024B19540A
:1015B400F4E700BF00ED00E014ED00E0002807DBD5
:1015C40000F01F02400901239340024A42F82030F0
:1015D400704700BF00E100E00138B0F1807F0BD21A
:1015E4004FF0E0235861054AF02182F823100020CF
:1015F400986107221A6170470120704700ED00E0EE
:10160400704700002DE9F04188B00023049305934E
:101614000693079303F1804303F504339A6942F078
:1016240040029A619A6902F040020192019A9A6911
:1016340042F004029A619A6902F004020292029A48
:101644009A6942F008029A619B6903F008030393C4
:10165400039BDFF84480012220214046FFF77CFEF3
:101664000E4D012220212846FFF776FE20270497FD
:101674000124059406940326079604A94046FFF71F
:101684004BFD049705940694079604A92846FFF792
:1016940043FD08B0BDE8F08100180140000C014092
:1016A40008B50A480A4B03604FF4E1334360002352
:1016B4008360C36003610C2242618361C361FEF7EE
:1016C40061FF00B908BDFEF709FEFBE754000020E6
:1016D4000038014030B587B000230293039304938C
:1016E400059302681B4B9A4201D007B030BD03F545
:1016F40058439A6942F480429A619A6902F480429A
:101704000092009A9A6942F004029A619B6903F07C
:1017140004030193019B4FF4007302930223039388
:10172400032305930C4D02A92846FFF7F5FC4FF45B
:101734008063029300240394049402A92846FFF7CB
:10174400EBFC224621462520FFF700FF2520FFF76A
:1017540035FFCAE70038014000080140FFF750FF99
:101764000B480C490C4A002302E0D458C4500433FB
:10177400C4188C42F9D3094A094C002301E01360D0
:101784000432A242FBD300F00FF8FEF7DBFD7047F2
:101794000000002030000020501800083000002015
:1017A4009C000020FEE7000070B500260C4D0D4C97
:1017B400641BA410A64209D100F022F800260A4DA9
:1017C4000A4C641BA410A64205D170BD55F8043B15
:1017D40098470136EEE755F8043B98470136F2E79F
:1017E4004818000848180008481800084C18000851
:1017F40003460244934200D1704703F8011BF9E702
:10180400F8B500BFF8BC08BC9E467047F8B500BFE9
:08181400F8BC08BC9E467047B9
:10181C0002030405060708090A0B0C0D0E0F101025
:10182C00010200000000000000000000010203049F
:0C183C0006070809000000000102030478
:041848000902000889
:04184C00E5010008AA
:10185000426C696E6B204D6F6465204F4E0D0A001F
:101860004C4544204F46460D0A0000004C4544209C
:101870004F4E0D0A000100001000000000127A0017
:040000050800176177
:00000001FF
