:020000040800F2
:10000000000001206D180008510600085306000882
:1000100055060008570600085906000800000000B1
:100020000000000000000000000000005B06000867
:100030005D060008000000005F0600086106000879
:10004000B5180008B5180008B5180008B51800085C
:10005000B5180008B5180008B5180008B51800084C
:10006000B5180008B5180008B5180008B51800083C
:10007000B5180008B5180008B5180008B51800082C
:10008000B5180008B5180008B5180008B51800081C
:10009000B5180008B5180008B5180008B51800080C
:1000A000B5180008B5180008B5180008B5180008FC
:1000B000B5180008B5180008B5180008B5180008EC
:1000C000B5180008B5180008B5180008B5180008DC
:1000D000B5180008B5180008B5180008B5180008CC
:1000E000B5180008B5180008B5180008B5180008BC
:1000F000B5180008B5180008B5180008B5180008AC
:10010000B5180008B518000869060008B5180008F9
:10011000B5180008B5180008B5180008B51800088B
:10012000B5180008B5180008B5180008B51800087B
:1001300000000000000000000000000000000000BF
:1001400000000000000000000000000000000000AF
:10015000000000000000000000000000000000009F
:10016000000000000000000000000000000000008F
:10017000000000000000000000000000000000007F
:10018000000000000000000000000000000000006F
:10019000000000000000000000000000000000005F
:1001A000000000000000000000000000000000004F
:1001B000000000000000000000000000000000003F
:1001C000000000000000000000000000000000002F
:1001D000000000000000000000000000000000001F
:0401E0005FF8E0F1F3
:1001E40010B5054C237833B9044B13B10448AFF36D
:1001F40000800123237010BD700000200000000067
:10020400B428000808B5034B1BB103490348AFF3F6
:10021400008008BD0000000074000020B42800081D
:1002240072B6FEE700B591B02822002106A801F0BD
:1002340065FB002301930293039304930593012226
:1002440006924FF4803307930A9202220D920E9382
:100254004FF4E0130F9306A800F080FE80B90F233B
:10026400019302210291002303934FF480620492CC
:10027400059301A801F0A4F820B911B05DF804FBBE
:10028400FFF7CEFFFFF7CCFF10B500F019FEFFF724
:10029400C9FF00F021F800F0C9F800F053F9002478
:1002A4000CE020210A4801F067FA0CE020210948FB
:1002B40001F062FA00240A2000F026FE002000F07B
:1002C4009FF90028EDD10134E4B20F2CEED0F2E70F
:1002D40000180140000C01402DE9F04188B00023D2
:1002E400049305930693079303F1804303F50433C2
:1002F4009A6942F040029A619A6902F040020092BF
:10030400009A9A6942F010029A619A6902F0100206
:100314000192019A9A6942F004029A619A6902F080
:1003240004020292029A9A6942F008029A619B6955
:1003340003F008030393039BDFF844800122202188
:10034400404601F013FA0F4D01222021284601F006
:100354000DFA202704970124059406940326079692
:1003640004A9404601F0E2F8049705940694079620
:1003740004A9284601F0DAF808B0BDE8F08100BF0E
:1003840000180140000C014070B584B002260096AC
:1003940001240194029403940D4D6946284601F00A
:1003A400C5F800223146284601F0E0F9052000F0A6
:1003B400ABFD084B1A680023136153620096019346
:1003C400029303946946284601F0B0F804B070BD66
:1003D400000801409000002008B5FFF7D5FF094B45
:1003E4001B681A6912F0040F07D1596A4FF60B62A1
:1003F4009142F4D9586A80B202E0034B986B80B200
:1004040008BD00BF90000020000C004038B5002556
:1004140000E02046431EDCB228B1FFF7DDFF854231
:10042400F7D20546F5E7284638BD000000B58BB085
:100434000023069307930893099304930593009369
:100444000193029303932248224A026006224260E7
:1004540083604FF6FF72C26003618023836100F002
:10046400B3FA30BB4FF48053069306A9184800F042
:10047400A5FB08BB164800F0D3FA00BB0023049385
:10048400059304A9124800F0B5FCD8B900230093E1
:100494000122019202930393042269460C4800F05E
:1004A4001FFB90B904210A4800F016FC0BB05DF85C
:1004B40004FBFFF7B5FED5E7FFF7B2FEDAE7FFF777
:1004C400AFFEDBE7FFF7ACFEE0E7FFF7A9FEE9E7E5
:1004D40090000020000C004000B587B00023029378
:1004E4000393049305930268144B9A4202D007B015
:1004F4005DF804FB03F50133DA6942F00802DA61BE
:10050400DA6902F008020092009A9A6942F0040241
:100514009A619B6903F004030193019B02230293F4
:10052400049302A9064801F001F800221146322082
:1005340001F03EF9322001F073F9D8E7000C0040D5
:100544000008014010B586B0FFF770FF00240AE0F0
:10055400FFF742FF06AB03EB440323F8140C0A2015
:1005640000F0D2FC0134092CF2DD00201BE0013341
:10057400092B17DC06AA02EB400232F8142C06A958
:1005840001EB430131F8141C8A42F0D90DF1180C27
:100594000CEB400C2CF8141C06A901EB430121F8C8
:1005A400142CE4E72046082802DC441C2346DFE739
:1005B40002220023072A08DC06A901EB420131F8D4
:1005C400141C0B449BB20132F4E70A4AA2FB032336
:1005D400C3F38F03084C2380218889B2074801F0B4
:1005E40095F9238813F4004F02D1002006B010BD02
:1005F4000120FBE7ABAAAAAA8C000020CC280008A3
:1006040008B5C8B10F4B00221A700620FFF7FEFE92
:100614000D4B1B889BB26433984211DD094B1B7848
:1006240063B10020074B03221A70064B1B7813B1E9
:10063400013B044A137008BD0320E7E70120F1E7FA
:100644000020F2E7D80000208C000020FEE7FEE73F
:10065400FEE7FEE7FEE770477047704708B500F015
:1006640041FC08BD08B5024800F0AAF808BD00BF67
:100674009000002082B00E4B9A6942F001029A6108
:100684009A6902F001020092009ADA6942F08052FB
:10069400DA61DB6903F080530193019B054A5368D7
:1006A40023F0E06343F00073536002B0704700BF6F
:1006B400001002400000014010B4036A046A24F0F0
:1006C40001040462846924F0F00C4CEA021223F061
:1006D4000A030B438261036210BC704730B4056A9D
:1006E400046A24F010040462846924F4407C4CEA13
:1006F400022C2CF4704C1B039BB243EA0C0325F030
:10070400A005090101F0A00129438361016230BC05
:10071400704710B4036A046A24F010040462846904
:1007240024F4704C4CEA023223F0A00343EA011390
:100734008261036210BC704730B4056A046A24F411
:1007440080740462C46924F0030C4CEA020C2CF09B
:10075400F00C1B01DBB243EA0C0325F4007509021B
:1007640001F400712943C361016230BC704730B4A5
:10077400056A046A24F480540462C46924F4407C45
:100784004CEA022C2CF4704C1B039BB243EA0C037E
:1007940025F40055090301F400512943C3610162A2
:1007A40030BC7047836823F070030B4343F00703A6
:1007B4008360704770477047704770477047704751
:1007C40070B504460368DE681D6915F0020F10D089
:1007D40016F0020F0DD06FF002021A6101230377A5
:1007E40003689B6913F0030F5ED0FFF7E6FF002355
:1007F400237715F0040F12D016F0040F0FD02368DE
:100804006FF004021A610223237723689B6913F4AF
:10081400407F4FD02046FFF7D0FF0023237715F009
:10082400080F12D016F0080F0FD023686FF00802DB
:100834001A61042323772368DB6913F0030F40D084
:100844002046FFF7BAFF0023237715F0100F12D0CC
:1008540016F0100F0FD023686FF010021A610823EE
:1008640023772368DB6913F4407F31D02046FFF7F8
:10087400A4FF0023237715F0010F02D016F0010F17
:100884002DD115F0800F02D016F0800F2FD115F066
:10089400400F02D016F0400F31D115F0200F02D0D6
:1008A40016F0200F33D170BDFFF786FF2046FFF707
:1008B40085FF9CE72046FFF77FFF2046FFF77EFF7A
:1008C400ABE72046FFF778FF2046FFF777FFBAE74C
:1008D4002046FFF771FF2046FFF770FFC9E7236842
:1008E4006FF001021A612046FFF765FFC9E723682C
:1008F4006FF080021A61204600F0BBFAC7E7236854
:100904006FF040021A612046FFF759FFC5E72368DC
:100914006FF020021A61204600F0AAFAC3E7000033
:100924000368284A904212D002F5006290420ED029
:10093400B0F1804F0BD0A2F59832904207D002F567
:100944008062904203D002F58062904203D123F08A
:1009540070034A6813431B4A904212D002F50062A6
:1009640090420ED0B0F1804F0BD0A2F59832904255
:1009740007D002F58062904203D002F58062904273
:1009840003D123F44073CA68134323F080034A69F4
:10099400134303608B68C3620B688362094B9842FC
:1009A40003D003F50063984201D10B69036301236B
:1009B4004361036913F0010F03D0036923F00103BA
:1009C40003617047002C014040B310B5044690F811
:1009D4003D30F3B1022384F83D30214651F8040B35
:1009E400FFF79EFF012384F8463084F83E3084F8F4
:1009F4003F3084F8403084F8413084F8423084F841
:100A0400433084F8443084F8453084F83D30002085
:100A140010BD80F83C30FFF75FFDDBE70120704735
:100A240040B310B5044690F83D30F3B1022384F886
:100A34003D30214651F8040BFFF772FF012384F87F
:100A4400463084F83E3084F83F3084F8403084F8EF
:100A5400413084F8423084F8433084F8443084F8D8
:100A6400453084F83D30002010BD80F83C30FFF75D
:100A7400A1FEDBE70120704770B4066A046A24F023
:100A8400010404628469154DA84215D005F500657A
:100A9400A84211D0B0F1804F0ED0A5F59835A842E8
:100AA4000AD005F58065A84206D005F58065A84200
:100AB40002D044F0010202E024F00304224322F0B5
:100AC400F0021B01DBB2134326F00A0201F00A0113
:100AD40011438361016270BC704700BF002C014068
:100AE40038B590F83C30012B5AD004460D4601230A
:100AF40080F83C3052B1042A1AD0082A2BD00C2A90
:100B04003BD00120002384F83C3038BDCB684A68D0
:100B140009680068FFF7B0FF2268936923F00C03AB
:100B2400936122689369A9680B4393610020E9E704
:100B3400CB684A6809680068FFF7D0FD22689369AA
:100B440023F44063936122689369A96843EA01230B
:100B540093610020D6E7CB684A6809680068FFF70C
:100B6400EBFD2268D36923F00C03D3612268D369B7
:100B7400A9680B43D3610020C4E7CB684A680968BD
:100B84000068FFF7F4FD2268D36923F44063D3615E
:100B94002268D369A96843EA0123D3610020B1E73D
:100BA4000220B2E710B4846824F47F4C42EA0322A2
:100BB4000A4342EA0C02826010BC704790F83C3051
:100BC400012B78D010B50446012380F83C30022371
:100BD40080F83D300268936823F47F4323F0770361
:100BE40093600B68602B4CD029D8402B54D00CD97F
:100BF400502B22D1CA6849680068FFF75DFD502177
:100C04002068FFF7CFFD002005E0202B0DD009D987
:100C1400302B0AD00120012384F83D30002384F8CE
:100C24003C3010BD0BB1102B05D119462068FFF7DD
:100C3400B9FD0020EFE70120EDE70120EBE7B3F574
:100C4400805F34D0B3F5005F0CD1CB684A68896803
:100C54000068FFF7A7FF2268936843F4804393601A
:100C64000020D8E7702B24D1CB684A6889680068D3
:100C7400FFF798FF2268936843F07703936000209E
:100C8400C9E7CA6849680068FFF743FD6021206826
:100C9400FFF788FD0020BEE7CA6849680068FFF7CF
:100CA4000BFD40212068FFF77DFD0020B3E7002005
:100CB400B1E70120AFE70220704701F01F010123D3
:100CC40003FA01FC036A23EA0C030362036A02FACF
:100CD40001F10B430362704710B504460B4600292B
:100CE40037D190F83E00C0B2002B42D194F8422094
:100CF400D2B2012878D1012A77D1002B49D102221E
:100D040084F83E20002B54D1022284F84220012290
:100D140019462068FFF7D1FF2368354A934258D01B
:100D240002F50062934254D0B3F1804F51D0A2F542
:100D3400983293424DD002F58062934249D002F535
:100D44008062934245D01A6842F001021A60002082
:100D54004BE0042905D0082907D090F84100C0B21F
:100D6400C2E790F83F00C0B2BEE790F84000C0B2BE
:100D7400BAE7042B05D0082B07D094F84520D2B24B
:100D8400B7E794F84320D2B2B3E794F84420D2B240
:100D9400AFE7042B05D0082B07D0022284F84120AA
:100DA400B0E7022284F83F20ACE7022284F8402016
:100DB400A8E7042B05D0082B07D0022284F845208D
:100DC400A5E7022284F84320A1E7022284F8442004
:100DD4009DE79A6802F00702062A07D01A6842F0D3
:100DE40001021A60002000E0012010BD0020FCE791
:100DF400002C014090F83C30012B34D010B4012376
:100E040080F83C30022380F83D3003685A689C68BF
:100E140022F0700C0A6842EA0C025A600368134A12
:100E2400934212D002F5006293420ED0B3F1804F88
:100E34000BD0A2F59832934207D002F58062934218
:100E440003D002F58062934204D124F080044A68FE
:100E540014439C60012380F83D30002380F83C302B
:100E6400184610BC70470220704700BF002C014098
:100E74007047704710B504460E4B18784FF47A73D8
:100E8400B3FBF0F30C4A1068B0FBF3F000F0D6FCAF
:100E940068B90F2C01D901200AE0002221464FF045
:100EA400FF3000F085FC054B1C60002000E00120B1
:100EB40010BD00BF00000020080000200400002036
:100EC40008B5074A136843F010031360032000F0C9
:100ED4005DFC0F20FFF7CEFFFFF7CCFB002008BD21
:100EE40000200240034A1168034B1B780B44136033
:100EF400704700BFDC00002000000020014B186890
:100F0400704700BFDC00002038B50446FFF7F6FF49
:100F14000546B4F1FF3F02D0044B1B781C44FFF795
:100F2400EDFF401BA042FAD338BD00BF00000020F3
:100F340082B0084B1B68084AA2FB03235B0A00FB30
:100F440003F3019300BF019B5A1E0192002BF9D1B8
:100F540002B0704708000020D34D6210002800F052
:100F6400F18170B582B00446036813F0010F2CD0F0
:100F7400994B5B6803F00C03042B1DD0964B5B6804
:100F840003F00C03082B12D06368B3F5803F41D003
:100F9400002B55D103F1804303F504331A6822F47E
:100FA40080321A601A6822F480221A6037E08A4B71
:100FB4005B6813F4803FE7D0874B1B6813F4003F52
:100FC40003D06368002B00F0BF81236813F0020F85
:100FD40075D0814B5B6813F00C0F5FD07E4B5B6860
:100FE40003F00C03082B54D02369002B00F08A80F3
:100FF4007A4B01221A60FFF781FF0546764B1B6886
:1010040013F0020F75D1FFF779FF401B0228F5D9C1
:1010140003209EE1704A136843F4803313606368CD
:1010240043B3FFF76BFF05466B4B1B6813F4003F9C
:10103400CBD1FFF763FF401B6428F5D9032088E177
:10104400B3F5A02F09D0644B1A6822F480321A60D9
:101054001A6822F480221A60E1E703F18043A3F5C1
:101064003C331A6842F480221A601A6842F48032CF
:101074001A60D4E7FFF742FF0546574B1B6813F489
:10108400003FA2D0FFF73AFF401B6428F5D90320A4
:101094005FE1514B5B6813F4803FA5D14E4B1B6855
:1010A40013F0020F03D02369012B40F04F814A4A09
:1010B400136823F0F803616943EAC10313602368EA
:1010C40013F0080F33D0A369002B5CD0434B0122EB
:1010D400C3F88024FFF712FF05463F4B5B6A13F009
:1010E400020F21D1FFF70AFF401B0228F5D9032084
:1010F4002FE1394A136823F0F803616943EAC10315
:101104001360DCE7354B00221A60FFF7F7FE054653
:10111400314B1B6813F0020FD1D0FFF7EFFE401BD9
:101124000228F5D9032014E10120FFF701FF236809
:1011340013F0040F00F09680274BDB6913F0805FF7
:1011440034D1254BDA6942F08052DA61DB6903F06D
:1011540080530193019B0125214B1B6813F4807F6D
:1011640026D0E368012B3DD0002B53D103F18043FB
:1011740003F504331A6A22F001021A621A6A22F091
:1011840004021A6233E0154B0022C3F88024FFF7EF
:10119400B5FE0546104B5B6A13F0020FC7D0FFF78C
:1011A400ADFE401B0228F5D90320D2E00025D3E789
:1011B4000B4A136843F480731360FFF79FFE0646DF
:1011C400074B1B6813F4807FCBD1FFF797FE801B7E
:1011D4006428F5D90320BCE000100240000042421C
:1011E400007000405F4A136A43F001031362E3682E
:1011F40033B3FFF783FE06465A4B1B6A13F0020F04
:101204002FD1FFF77BFE801B41F288339842F3D93C
:1012140003209EE0052B09D0524B1A6A22F00102EA
:101224001A621A6A22F004021A62E0E74D4B1A6A43
:1012340042F004021A621A6A42F001021A62D6E704
:10124400FFF75CFE0646474B1B6A13F0020F08D0FB
:10125400FFF754FE801B41F288339842F3D90320F0
:1012640077E0E5B9E369002B72D03E4A526802F098
:101274000C02082A56D0022B17D03B4B00221A66C8
:10128400FFF73CFE0446374B1B6813F0007F47D042
:10129400FFF734FE001B0228F5D9032059E0314A38
:1012A400D36923F08053D361DCE72F4B00221A6605
:1012B400FFF724FE05462B4B1B6813F0007F06D076
:1012C400FFF71CFE401B0228F5D9032041E0236AE6
:1012D400B3F5803F1AD023494B6823F47413226A70
:1012E400606A024313434B601F4B01221A66FFF7E7
:1012F40005FE04461B4B1B6813F0007F0ED1FFF75D
:10130400FDFD001B0228F5D9032022E0154A53688D
:1013140023F40033A1680B435360DCE7002018E09A
:10132400002016E0012B16D00E4B5B6803F48031CD
:10133400226A914211D103F47013626A93420ED16E
:10134400002006E001207047012002E0012000E0B7
:10135400002002B070BD0120FBE70120F9E7012065
:10136400F7E700BF00100240000042420F4B5B68E9
:1013740003F00C02082A01D00D487047C3F38342DE
:101384000C49885C13F4803F0BD0084B5B68C3F3B3
:101394004043094AD35C064A02FB00F0B0FBF3F079
:1013A4007047064B03FB00F0704700BF001002407B
:1013B40000127A00E4280008F428000800093D001F
:1013C400002800F0A08070B50D460446524B1B68FF
:1013D40003F007038B420BD24F4A136823F0070331
:1013E4000B431360136803F007038B4240F08D80B6
:1013F400236813F0020F17D013F0040F04D0474AE8
:10140400536843F4E0635360236813F0080F04D077
:10141400424A536843F460535360404A536823F08C
:10142400F003A1680B435360236813F0010F31D01C
:101434006368012B20D0022B25D0384A126812F0A1
:10144400020F64D035494A6822F0030213434B600B
:10145400FFF754FD0646314B5B6803F00C036268EA
:10146400B3EB820F16D0FFF749FD801B41F288339E
:101474009842F0D9032045E0284A126812F4003F4C
:10148400E0D101203EE0254A126812F0007FD9D154
:10149400012037E0204B1B6803F00703AB420AD955
:1014A4001D4A136823F007032B431360136803F0EA
:1014B4000703AB422DD1236813F0040F06D0174A5B
:1014C400536823F4E063E1680B435360236813F02B
:1014D400080F07D0114A536823F46053216943EA83
:1014E400C1035360FFF742FF0C4B5B68C3F3031364
:1014F4000B4AD35CD8400B4B18600B4B1868FFF7B2
:10150400B9FC002070BD012070470120FAE70120DA
:10151400F8E70120F6E700BF002002400010024077
:10152400F8280008080000200400002070B582B0EC
:101534000024A446B0E0874DAA4210D007D9864DB6
:10154400AA420CD005F58035AA4208D013E0A5F5CF
:101554008015AA4203D005F57025AA4207D18A68EE
:10156400002A62D0012A5BD04361082403E0A5F578
:101574008015AA42F3D0BEF1FF0F58D80646BEF13B
:10158400FF0F56D84FEA8C0233680F25954023EAA3
:10159400050304FA02F2134333604B6813F0805FCF
:1015A40078D06E4B9A6942F001029A619B6903F00C
:1015B40001030193019B4FEA9C02951C684B53F86D
:1015C40025600CF003039D000F23AB4026EA0306BD
:1015D400644B984233D003F58063984200F09880BE
:1015E40003F58063984200F0958003F58063984288
:1015F40000F0928003F58063984200F08F8003F539
:101604008063984219D006231AE0CC68B3E7CC680B
:101614000434B0E7CC680834ADE7CC680C34AAE7EE
:1016240003610824A7E70024A5E70424A3E7061D13
:10163400A5E7ACF108029200A6E7052300E0002329
:10164400AB4033430232464D45F822304B6813F425
:10165400801F65D0444A936843EA0E0393604B6845
:1016640013F4001F62D0404AD36843EA0E03D360E8
:101674004B6813F4003F5FD03B4A536843EA0E03C0
:1016840053604B6813F4803F5CD0374A136843EAD5
:101694000E0313600CF1010C0A6832FA0CF357D0F4
:1016A400012303FA0CF302EA030E33EA0202F1D136
:1016B4004A68122A3FF63FAF122A3FF65CAF01A5F3
:1016C40055F822F0631500080F16000819160008D3
:1016D4002B1600087B1500087B1500087B150008F5
:1016E4007B1500087B1500087B1500087B15000896
:1016F4007B1500087B1500087B1500087B15000886
:101704007B1500087B150008131600081F16000837
:10171400012395E7022393E7032391E704238FE74B
:10172400114A936823EA0E03936098E70E4AD3683C
:1017340023EA0E03D3609BE70B4A536823EA0E03A4
:1017440053609EE7084A136823EA0E031360A1E777
:1017540002B070BD000022100000311000100240E1
:101764000000014000080140000401400AB1016189
:101774007047090401617047C36801EA030221EA62
:10178400030141EA0241016170470000074AD3683E
:1017940023F4E0631B041B0C000200F4E060034329
:1017A40043F0BF6343F40033D360704700ED00E0BF
:1017B40000B5194BDB68C3F30223C3F1070CBCF17A
:1017C400040F28BF4FF0040C03F1040EBEF1060F02
:1017D40018D9033B4FF0FF3E0EFA0CFC21EA0C0132
:1017E40099400EFA03F322EA0303194300280BDBA2
:1017F4000901C9B200F1604000F5614080F80013AE
:101804005DF804FB0023E5E700F00F000901C9B20D
:10181400024B1954F4E700BF00ED00E014ED00E0C2
:10182400002807DB00F01F02400901239340024A0D
:1018340042F82030704700BF00E100E00138B0F109
:10184400807F0BD24FF0E0235861054AF02182F8E3
:1018540023100020986107221A6170470120704705
:1018640000ED00E070470000FFF7FCFF0B480C4957
:101874000C4A002302E0D458C4500433C4188C42E8
:10188400F9D3094A094C002301E013600432A2424F
:10189400FBD300F00FF8FEF7F7FC704700000020C0
:1018A40070000020A829000870000020F400002027
:1018B400FEE7000070B500260C4D0D4C641BA4100F
:1018C400A64209D100F0F4FF00260A4D0A4C641B1D
:1018D400A410A64205D170BD55F8043B98470136C3
:1018E400EEE755F8043B98470136F2E7A0290008D3
:1018F400A0290008A0290008A429000803460244DE
:10190400934200D1704703F8011BF9E70FB40A4B67
:1019140013B51C6824B1A36913B9204600F066F816
:1019240005AB2046049AA168019300F0BBF902B00C
:10193400BDE8104004B070470C000020002310B52F
:101944000446C0E90033C0E90433836081814366FF
:10195400C2818361194608225C30FFF7CFFF054B33
:1019640024626362044BA362044BE362044B23636B
:1019740010BD00BF5522000877220008AF220008DE
:10198400D3220008014900F0AFB800BFA525000824
:10199400682270B54D1E55430E4605F1740100F0E2
:1019A400E5F8044640B10021C0E900160C30A060FF
:1019B40005F16802FFF7A2FF204670BD014800F060
:1019C400B3B800BFE1000020014800F0AEB800BF8A
:1019D400E1000020014800F0A7B800BFE2000020A9
:1019E400014800F0A2B800BFE200002010B5044690
:1019F400FFF7F0FFA3691BB1BDE81040FFF7F0BF8C
:101A0400C4E912332365134B134A1B68A262A34231
:101A140008BF0123204608BFA36100F01FF86060DF
:101A2400204600F01BF8A060204600F017F80022C2
:101A34000421E0606068FFF781FF01220921A068AA
:101A4400FFF77CFF02221221E068FFF777FF0123F2
:101A5400A361D1E70829000889190008F8B50746E9
:101A6400FFF7ACFF1E4B1E68B36913B93046FFF78E
:101A7400BDFF4836D6E90134013B03D533680BB3C7
:101A84003668F7E7B4F90C50D5B9164B04F1580091
:101A9400E360656600F047F8FFF796FF08222946E1
:101AA400C4E90155C4E904552560A56104F15C004D
:101AB400FFF724FFC4E90D55C4E912552046F8BDCB
:101AC4006834D9E704213846FFF762FF04463060E2
:101AD4000028D5D1FFF778FF0C233B60EEE700BF69
:101AE400082900080100FFFF2DE9F843064688464F
:101AF400002700F14804D4E90195B9F1010905D59D
:101B04002468002CF7D13846BDE8F883AB89012B53
:101B140007D9B5F90E30013303D029463046C04702
:101B240007436835E9E770477047704770B50E4E54
:101B34000C463168054611B900F07AFB3060214645
:101B4400284600F075FB431C0AD0C41C24F003048F
:101B5400A04207D0211A284600F06AFB013001D1C7
:101B64004FF0FF34204670BDE80000202DE9F0411D
:101B7400CD1C25F0030508350C2D38BF0C25002D90
:101B8400074601DBA94205D90C2300263B603046F9
:101B9400BDE8F0812E4E00F0C5FD33681C4634BB11
:101BA40029463846FFF7C2FF431C04464DD134682A
:101BB4002646002E40D123683146384604EB0308FC
:101BC40000F036FB80453AD1216803356D1A25F0C3
:101BD400030508350C2D38BF0C2538462946FFF778
:101BE400A5FF01302BD023682B4423600EE022682C
:101BF400521B1ED40B2A16D96119A342256018BFA3
:101C04005960636808BF316062514B60384604F123
:101C14000B0600F08DFD26F00706231DF21AB6D040
:101C24009B1BA350B3E76268A3420CBF32605A60A7
:101C3400ECE723466468B2E734467668B9E70C23D8
:101C440038463B6000F074FDA1E72560DEE700BF85
:101C5400E4000020936810B4013B002B936007DA82
:101C64009469A34201DB0A2902D110BC00F034BB01
:101C74001368581C10601970084610BC7047F8B5FA
:101C840006460F461446D518AC4201D1002007E0A1
:101C94003A46304614F8011BFFF7DCFF431CF3D12E
:101CA400F8BD00002DE9F04F0D461446984606464F
:101CB4009DB018B183690BB9FFF798FE894B9D421B
:101CC4001BD175686B6ED90705D4AB899A0502D40C
:101CD400A86DFFF729FFAB891B0701D52B69EBB969
:101CE4002946304600F05CFBC0B16B6EDC070ED5B4
:101CF4004FF0FF301DB0BDE8F08F7B4B9D4201D10A
:101D0400B568DFE7794B9D4208BFF568DAE7AB8930
:101D14009805EDD4A86DFFF708FFE9E700230993C0
:101D240020238DF8293030234FF00109CDF80C80A1
:101D3400DFF8BC818DF82A3023469A4613F8012B2C
:101D44000AB1252AF9D1BAEB040B0BD05B46224623
:101D540029463046FFF793FF013000F0AA80099A24
:101D64005A4409929AF80030002B00F0A280002314
:101D74004FF0FF32CDE905230AF1010A04930793DA
:101D84008DF853301A935446052214F8011B584811
:101D940000F0BAFC049AD8B9D10644BF20238DF8C8
:101DA4005330130744BF2B238DF853309AF8003077
:101DB4002A2B15D0544600204FF00A0C079A2146CE
:101DC40011F8013B303B092B4ED9B0B1079214E016
:101DD400A0EB080309FA03F31343A2460493D2E7E2
:101DE400039B191D1B680391002BBBBF5B4242F090
:101DF400020207930793B8BF049223782E2B0CD1C9
:101E040063782A2B35D1039B02341A1D1B68039275
:101E1400002BB8BF4FF0FF330593DFF8D8A003229F
:101E24005046217800F070FC40B14023A0EB0A003A
:101E340003FA00F0049B01340343049314F8011BD8
:101E440006222D488DF8281000F05EFC00283FD0B3
:101E54002A4B1BBB039B073323F00703083303936D
:101E6400099B3B44099367E70C4601200CFB0232B3
:101E7400A5E700234FF00A0C1946013405932046C8
:101E840010F8012B303A092A03D9002BC5D005914B
:101E9400C3E7044601230CFB0121F0E703AB0093E5
:101EA4002A463046164B04A9AFF300800746781C37
:101EB400D6D16B6ED90705D4AB899A0502D4A86D27
:101EC400FFF733FEAB895B063FF512AF099811E7C4
:101ED40003AB00932A463046094B04A900F082F86C
:101EE400E4E700BF2C2900084C2900080C2900084D
:101EF4006C290008722900087629000800000000F7
:101F0400831C00082DE9F047164699468A680B6938
:101F140007469342B8BF1346336091F843200C46FA
:101F2400DDF820800AB1013333602368990642BF8B
:101F3400336802333360256815F0060506D104F1D1
:101F4400190AE36832689B1AAB4228DC94F84320F0
:101F5400131E226818BF012392062DD44946384621
:101F640004F14302C047013020D02368E56803F040
:101F74000603042B18BF002532684FF00006A3683F
:101F840008BFAD1A226908BF25EAE5759342C4BFAC
:101F94009B1AED181A34B5421AD1002008E0012327
:101FA400524649463846C047013003D14FF0FF300E
:101FB400BDE8F0870135C4E73020E11881F843001B
:101FC4005A1C94F845102244023382F84310C5E7A2
:101FD4000123224649463846C0470130E6D001363F
:101FE400D9E700002DE9FF470F7E9146782F804600
:101FF4000C469A460C9D01F1430207D8622F0AD879
:10200400002F00F0D980582F00F0A48004F142057D
:1020140084F842703AE0A7F16303152BF6D801A1C6
:1020240051F823F0812000089520000811200008B1
:102034001120000811200008112000089520000834
:1020440011200008112000081120000811200008A8
:10205400A3210008C52000088521000811200008DC
:1020640011200008C521000811200008C52000081F
:1020740011200008112000088D2100082B681A1D6A
:102084001B682A6004F1420584F842300123A4E06D
:1020940020682968060601F104030AD50E682B603E
:1020A400002E03DA2D23764284F843300A235E4857
:1020B40019E00E6810F0400F2B6018BF36B2EFE73E
:1020C4002B682068191D2960010601D51E6802E0ED
:1020D4004606FBD51E886F2F0CBF08230A235248DF
:1020E400002184F843106568002DA8BF2168A5600D
:1020F400A4BF21F0040121600EB9002D4DD0154676
:10210400B6FBF3F103FB1167C75D05F8017D3746A4
:10211400BB420E46F4D9082B0BD12368DE0708D541
:10212400236961689942DEBF302305F8013C05F15B
:10213400FF35521B22614B4621464046CDF800A094
:1021440003AAFFF7DFFE01304CD14FF0FF3004B09B
:10215400BDE8F087344881F845702968236851F850
:10216400046B29601D0614D5DF0744BF43F0200328
:1021740023601EB9236823F0200323601023AFE7F4
:10218400236843F0200323607823284884F84530EB
:10219400E3E7590648BFB6B2E6E71546BBE72B6846
:1021A4002668181D6169286035061B6801D5196009
:1021B40002E07006FBD51980002315462361BAE7B7
:1021C4002B6800211A1D2A601D686268284600F0E9
:1021D4009BFA08B1401B606063682361002384F8A4
:1021E4004330A8E72A46494640462369D047013090
:1021F400ABD023689B0713D4E068039B9842B8BF15
:102204001846A4E70123324649464046D0470130E8
:102214009BD00135E36803995B1AAB42F2DCEBE730
:10222400002504F11906F5E77D2900088E29000828
:1022340038B50023054D044608462B6000F022FB08
:10224400431C02D12B6803B1236038BDEC0000208D
:1022540010B50C46B1F90E1000F0B8FA0028ABBF67
:10226400636DA3891B1823F48053ACBF6365A381FA
:1022740010BD2DE9F0411F468B890546DB050C4650
:10228400164605D502230022B1F90E1000F0C4F958
:10229400A389324623F48053A38128463B46B4F9EC
:1022A4000E10BDE8F04100F069B810B50C46B1F964
:1022B4000E1000F0B1F9431CA38915BF606523F427
:1022C400805343F48053A38118BFA38110BDB1F997
:1022D4000E1000F0D3B80000F8B50E4614460546BB
:1022E40018B183690BB9FFF781FB214B9C422BD1B9
:1022F4006C68A369A360A3891A072FD523696BB3FC
:1023040023692068F6B2C01A63693746834204DC45
:102314002146284600F044F930BBA3680130013B54
:10232400A36023685A1C22601E706369834204D030
:10233400A389DB0706D50A2E04D12146284600F0DE
:102344002FF988B93846F8BD0A4B9C4201D1AC68D4
:10235400CFE7094B9C4208BFEC68CAE721462846F0
:1023640000F01EF80028CBD04FF0FF37EAE700BF9B
:102374002C2900084C2900080C29000838B504460B
:10238400084611460022054D2A601A4600F088FAD4
:10239400431C02D12B6803B1236038BDEC0000203C
:1023A400324B70B51D6806460C4625B1AB6913B9AE
:1023B4002846FFF71BFB2E4B9C420FD16C68A38968
:1023C400B4F90C2019072CD4DD0611D40923336089
:1023D40042F040034FF0FF30A3813EE0254B9C4286
:1023E40001D1AC68EBE7244B9C4208BFEC68E6E7FC
:1023F400580712D5616B41B104F14403994202D0EC
:10240400304600F09BF900236363A38923F024037F
:10241400A3810023636023692360A38943F0080335
:10242400A38123694BB9A38903F42073B3F5007F17
:1024340003D02146304600F027F9A089B4F90C20D6
:1024440010F001030AD00023A36063695B42A36117
:10245400236943B910F08000BAD170BD810758BF19
:102464006369A360F4E70020F7E700BF0C000020D5
:102474002C2900084C2900080C29000838B5002331
:10248400054D044608462B6000F0D4F9431C02D1E4
:102494002B6803B1236038BDEC0000208A89F8B5AD
:1024A400054610070C4657D44B68002B04DC0B6C14
:1024B400002B01DC0020F8BDE66A002EFAD00023D0
:1024C40012F480522F682B6032D0606DA3895A07B2
:1024D40005D56368C01A636B0BB1236CC01A002363
:1024E4000246E66A2846216AB047431CA38906D1FE
:1024F40029681D292CD8294ACA40D60728D5002284
:1025040062602269D904226004D5421C01D12B687F
:1025140003B96065616B2F600029CBD004F14403DB
:10252400994202D0284600F009F900206063C2E70E
:10253400216A01232846B047411CC7D12B68002BD0
:10254400C4D01D2B01D0162B01D12F60B2E7A38973
:1025540043F04003A381AEE70F69002FAAD093078D
:1025640018BF00230E6808BF4B69F61B0F608B6011
:10257400002E9FDD33463A462846216AD4F828C007
:10258400E047002806DCA3894FF0FF3043F0400306
:10259400A38190E70744361AEAE700BF0100402010
:1025A40038B50B6905460C4613B90025284638BDD5
:1025B40018B183690BB9FFF719FA144B9C421BD16C
:1025C4006C68B4F90C30002BEFD0626ED00704D4E1
:1025D400990502D4A06DFFF7A7FA28462146FFF714
:1025E4005DFF636E0546DA07E0D4A3899B05DDD45D
:1025F400A06DFFF79AFAD9E7054B9C4201D1AC686C
:10260400DFE7044B9C4208BFEC68DAE72C2900089A
:102614004C2900080C29000838B504460846114620
:102624000022054D2A601A4600F01CF9431C02D111
:102634002B6803B1236038BDEC00002070B50E4652
:10264400B1F90E10144600291D4696B008DA00228E
:10265400B6F90C302A601A0610D44FF480630EE0E9
:102664006A4600F0C5F80028F1DB019A02F47042D2
:10267400A2F500535A425A412A60EEE74023002053
:10268400236016B070BD00008B8973B59D070646A4
:102694000C4607D504F147032360236101236361DA
:1026A40002B070BD6A4601ABFFF7C8FF009905464A
:1026B4003046FFF75BFA48B9B4F90C309A05EFD409
:1026C40023F0030343F00203A381E3E70D4BB3625A
:1026D400A389206043F08003A381009B2061636190
:1026E400019B5BB13046B4F90E1000F093F828B1A9
:1026F400A38923F0030343F00103A381A0890543C5
:10270400A581CDE789190008034610B5C9B2024472
:102714009342184601D1002003E0047801338C422F
:10272400F6D110BD0148FFF7FFB900BFE00000205B
:102734000148FFF7FAB900BFE000002038B50546AC
:10274400002940D051F8043C0C1F002BB8BFE418FA
:10275400FFF7E8FF1C4A136833B963601460284626
:10276400BDE83840FFF7E4BFA34208D92068211828
:102774008B4201BF19685B6809182160EDE71A46AE
:102784005B680BB1A342FAD911685018A0420BD16F
:1027940020680144501883421160E0D118685B68D6
:1027A400014411605360DAE702D90C232B60D6E7A9
:1027B400206821188B4201BF19685B6809182160E1
:1027C40063605460CBE738BDE400002038B50446AC
:1027D400084611460022054D2A601A4600F04AF8C0
:1027E400431C02D12B6803B1236038BDEC000020E8
:1027F40038B50023064D0446084611462B6000F008
:1028040021F8431C02D12B6803B1236038BD00BFFB
:10281400EC00002038B50023054D044608462B6023
:1028240000F018F8431C02D12B6803B1236038BDB3
:10283400EC0000205822024B4FF0FF301A60704722
:10284400EC0000205822024B4FF0FF301A60704712
:10285400EC0000205822024B00201A60704700BF91
:10286400EC0000205822024B4FF0FF301A607047F2
:10287400EC0000205822024B4FF0FF301A607047E2
:10288400EC000020044A05491368002B08BF0B46DE
:102894001844106018467047F0000020F80000202B
:1028A4005822024B4FF0FF301A607047EC000020B2
:1028B400F8B500BFF8BC08BC9E467047F8B500BF29
:0828C400F8BC08BC9E467047F9
:1028CC00747061642064656661756C742076616CEB
:1028DC003A2025640A0000000203040506070809D3
:1028EC000A0B0C0D0E0F101001020000000000006E
:1028FC000000000001020304060708091000002074
:10290C0000000000000000000000000000000000BB
:10291C0000000000000000000000000000000000AB
:10292C00000000000000000000000000000000009B
:10293C00000000000000000000000000000000008B
:10294C00000000000000000000000000000000007B
:10295C00000000000000000000000000000000006B
:10296C00232D302B2000686C4C006566674546476C
:10297C0000303132333435363738394142434445EF
:10298C00460030313233343536373839616263645E
:04299C00656600006C
:0429A0000902000820
:0429A400E501000841
:1029A800010000001000000000127A001000002052
:1029B800000000002C2900084C2900080C290008F8
:1029C80000000000000000000000000000000000FF
:1029D80000000000000000000000000000000000EF
:1029E80000000000000000000000000000000000DF
:1029F80000000000000000000000000000000000CF
:102A080000000000000000000000000000000000BE
:040000050800186D6A
:00000001FF
