:020000040800F2
:10000000000001204D170008C9040008CB040008B7
:10001000CD040008CF040008D1040008000000004F
:10002000000000000000000000000000D3040008F1
:10003000D504000800000000D7040008D904000817
:1000400095170008951700089517000895170008E0
:1000500095170008951700089517000895170008D0
:1000600095170008951700089517000895170008C0
:1000700095170008951700089517000895170008B0
:1000800095170008951700089517000895170008A0
:100090009517000895170008951700089517000890
:1000A0009517000895170008951700089517000880
:1000B00095170008E1040008951700089517000837
:1000C0009517000895170008951700089517000860
:1000D0009517000895170008951700089517000850
:1000E0009517000895170008951700089517000840
:1000F0009517000895170008951700089517000830
:10010000951700089517000895170008951700081F
:10011000951700089517000895170008951700080F
:1001200095170008951700089517000895170008FF
:1001300000000000000000000000000000000000BF
:1001400000000000000000000000000000000000AF
:10015000000000000000000000000000000000009F
:10016000000000000000000000000000000000008F
:10017000000000000000000000000000000000007F
:10018000000000000000000000000000000000006F
:10019000000000000000000000000000000000005F
:1001A000000000000000000000000000000000004F
:1001B000000000000000000000000000000000003F
:1001C000000000000000000000000000000000002F
:1001D000000000000000000000000000000000001F
:0401E0005FF8E0F1F3
:1001E40010B5054C237833B9044B13B10448AFF36D
:1001F40000800123237010BD0C00002000000000CB
:10020400F017000808B5034B1BB103490348AFF3CB
:10021400008008BD0000000010000020F017000856
:1002240072B6FEE700B591B02822002106A801F0BD
:10023400D5FA0023019302930393049305930122B7
:1002440006924FF4803307930A9202220D920E9382
:100254004FF4E0130F9306A800F0FAFD80B90F23C2
:10026400019302210291002303934FF480620492CC
:10027400059301A801F01EF820B911B05DF804FB44
:10028400FFF7CEFFFFF7CCFF70B500F093FDFFF74B
:10029400C9FF00F02DF800F0BBF8134C04212046F0
:1002A40000F0A8FC2368DE6A00252C4612E0013C1D
:1002B40013E00125142000F0A1FD06FB04F30B4A12
:1002C400A2FB03235809084A1268916BB1EB531F30
:1002D40000D09063002DEAD10134632CE9D8002CBE
:1002E400E8D12546E6E700BF280000201F85EB5132
:1002F40010B588B00023049305930693079303F184
:10030400804303F504339A6942F040029A619A6982
:1003140002F040020192019A9A6942F004029A6141
:100324009A6902F004020292029A9A6942F008025F
:100334009A619B6903F008030393039B094C012210
:100344002021204601F08CF92023049301230593F6
:1003540006930323079304A9204601F061F808B02B
:1003640010BD00BF0018014002680E4B9A4200D035
:10037400704700B583B003F50333DA6942F0020233
:10038400DA61DB6903F002030193019B002201217E
:100394001D2001F07DF91D2001F0B2F903B05DF8D4
:1003A40004FB00BF0004004000B587B000230293A3
:1003B4000393049305930268124B9A4202D007B048
:1003C4005DF804FB03F503339A6942F008029A616D
:1003D4009B6903F008030193019B202302930223EA
:1003E40003930323059302A9074801F019F8074A68
:1003F400536823F4406343F0E06343F400635360C1
:10040400DDE700BF00040040000C01400000014093
:1004140000B58FB000230A930B930C930D930893AC
:10042400099301930293039304930593069307930B
:100434002248234A026047224260836040F2F3125A
:10044400C26003618023836100F03CFA38BB4FF43F
:1004540080530A930AA9194800F03EFB10BB1748C1
:1004640000F05CFA08BB00230893099308A9134819
:1004740000F03AFCE0B960230193F92302930023CE
:100484000393059304220DEB02010C4800F0AAFA31
:1004940088B90A48FFF788FF0FB05DF804FBFFF73F
:1004A400BFFED4E7FFF7BCFED9E7FFF7B9FEDAE7F2
:1004B400FFF7B6FEDFE7FFF7B3FEEAE72800002008
:1004C40000040040FEE7FEE7FEE7FEE7FEE77047B4
:1004D4007047704708B500F07FFC08BD08B50248B6
:1004E40000F0EDF808BD00BF2800002082B00E4BDC
:1004F4009A6942F001029A619A6902F0010200923B
:10050400009ADA6942F08052DA61DB6903F08053C1
:100514000193019B054A536823F0E06343F00073A1
:10052400536002B0704700BF001002400000014059
:1005340030B4036A026A22F00102026242688469EA
:1005440024F073040D682C4323F0020C8B6843EAF7
:100554000C03104DA84203D005F50065A84205D14F
:1005640023F00803CD682B4323F00403094DA8426C
:1005740003D005F50065A84205D122F440724D6907
:100584002A438D692A43426084614A684263036254
:1005940030BC7047002C014030B4036A026A22F474
:1005A400807202624268C46924F0730C0C6844EAE5
:1005B4000C0523F400738C6843EA0423114CA04215
:1005C40003D004F50064A04206D123F40063CC6890
:1005D40043EA042323F480630A4CA04203D004F5C5
:1005E4000064A04207D122F440524C6942EA04124A
:1005F4008C6942EA04124260C5614A68C2630362BC
:1006040030BC7047002C014030B4036A026A22F403
:10061400805202624468C26922F4E6420D6842EAEA
:10062400052223F400538D6843EA0533094DA8429B
:1006340003D005F50065A84204D124F480444D6933
:1006440044EA85144460C2614A680264036230BCAF
:10065400704700BF002C014010B4036A046A24F000
:1006640001040462846924F0F00C4CEA021223F0C1
:100674000A030B438261036210BC704710B4036A1F
:10068400046A24F010040462846924F4704C4CEA73
:10069400023223F0A00343EA01138261036210BC17
:1006A4007047836823F070030B4343F007038360B0
:1006B400704770477047704770477047704770B510
:1006C40004460368DE681D6915F0020F10D016F0A9
:1006D400020F0DD06FF002021A6101230377036841
:1006E4009B6913F0030F5ED0FFF7E6FF0023237727
:1006F40015F0040F12D016F0040F0FD023686FF01A
:1007040004021A610223237723689B6913F4407F50
:100714004FD02046FFF7D0FF0023237715F0080FB2
:1007240012D016F0080F0FD023686FF008021A6178
:10073400042323772368DB6913F0030F40D020469A
:10074400FFF7BAFF0023237715F0100F12D016F02D
:10075400100F0FD023686FF010021A61082323775B
:100764002368DB6913F4407F31D02046FFF7A4FFF0
:100774000023237715F0010F02D016F0010F2DD1BD
:1007840015F0800F02D016F0800F2FD115F0400F16
:1007940002D016F0400F31D115F0200F02D016F020
:1007A400200F33D170BDFFF786FF2046FFF785FF8A
:1007B4009CE72046FFF77FFF2046FFF77EFFABE76D
:1007C4002046FFF778FF2046FFF777FFBAE7204679
:1007D400FFF771FF2046FFF770FFC9E723686FF04A
:1007E40001021A612046FFF765FFC9E723686FF02D
:1007F40080021A61204600F0B6FAC7E723686FF05A
:1008040040021A612046FFF759FFC5E723686FF0DD
:1008140020021A61204600F0A5FAC3E70368284ABB
:10082400904212D002F5006290420ED0B0F1804F97
:100834000BD0A2F59832904207D002F58062904224
:1008440003D002F58062904203D123F070034A681A
:1008540013431B4A904212D002F5006290420ED01C
:10086400B0F1804F0BD0A2F59832904207D002F538
:100874008062904203D002F58062904203D123F457
:100884004073CA68134323F080034A691343036027
:100894008B68C3620B688362094B984203D003F5EB
:1008A4000063984201D10B69036301234361036927
:1008B40013F0010F03D0036923F0010303617047B0
:1008C400002C014040B310B5044690F83D30F3B11C
:1008D400022384F83D30214651F8040BFFF79EFFB4
:1008E400012384F8463084F83E3084F83F3084F89D
:1008F400403084F8413084F8423084F8433084F83E
:10090400443084F8453084F83D30002010BD80F830
:100914003C30FFF729FDDBE70120704740B310B5F9
:10092400044690F83D30F3B1022384F83D3021466B
:1009340051F8040BFFF772FF012384F8463084F862
:100944003E3084F83F3084F8403084F8413084F8F5
:10095400423084F8433084F8443084F8453084F8D5
:100964003D30002010BD80F83C30FFF7A2FEDBE7ED
:100974000120704730B4036A026A22F01002026256
:100984004468826922F4E6420D6842EA052223F0B3
:1009940020038D6843EA0513114DA84203D005F5E1
:1009A4000065A84206D123F08003CD6843EA05130D
:1009B40023F040030A4DA84203D005F50065A84280
:1009C40007D124F440644D6944EA85048D6944EAFE
:1009D4008504446082614A688263036230BC704764
:1009E400002C014038B590F83C30012B66D0044609
:1009F4000D46012380F83C300C2A5AD8DFE802F077
:100A0400075959591B5959593059595944000068C3
:100A1400FFF78EFD2268936943F00803936122680F
:100A2400936923F0040393612268936929690B4352
:100A3400936100203EE00068FFF79CFF2268936901
:100A440043F4006393612268936923F480639361A0
:100A540022689369296943EA01239361002029E00C
:100A64000068FFF799FD2268D36943F00803D36156
:100A74002268D36923F00403D3612268D369296906
:100A84000B43D361002015E00068FFF7BDFD226829
:100A9400D36943F40063D3612268D36923F4806388
:100AA400D3612268D369296943EA0123D361002011
:100AB40000E00120002384F83C3038BD0220FCE72C
:100AC40010B4846824F47F4C42EA03220A4342EAC5
:100AD4000C02826010BC704790F83C30012B78D037
:100AE40010B50446012380F83C30022380F83D30E1
:100AF4000268936823F47F4323F0770393600B68C1
:100B0400602B4CD029D8402B54D00CD9502B22D157
:100B1400CA6849680068FFF79FFD50212068FFF705
:100B2400C0FD002005E0202B0DD009D9302B0AD0C0
:100B34000120012384F83D30002384F83C3010BDAB
:100B44000BB1102B05D119462068FFF7AAFD002030
:100B5400EFE70120EDE70120EBE7B3F5805F34D048
:100B6400B3F5005F0CD1CB684A6889680068FFF769
:100B7400A7FF2268936843F4804393600020D8E77A
:100B8400702B24D1CB684A6889680068FFF798FF06
:100B94002268936843F0770393600020C9E7CA682A
:100BA40049680068FFF76AFD60212068FFF779FD56
:100BB4000020BEE7CA6849680068FFF74DFD402180
:100BC4002068FFF76EFD0020B3E70020B1E70120A5
:100BD400AFE70220704701F01F01012303FA01FC73
:100BE400036A23EA0C030362036A02FA01F10B436A
:100BF4000362704710B50446084600293AD194F8B8
:100C04003E30DBB2013B18BF0123002B66D1002824
:100C140049D1022384F83E30012201462068FFF7BF
:100C2400DAFF23682F4A934203D002F5006293420D
:100C340003D15A6C42F400425A642368294A93420D
:100C440041D002F5006293423DD0B3F1804F3AD0D7
:100C5400A2F59832934236D002F58062934232D0A4
:100C640002F5806293422ED01A6842F001021A60A3
:100C7400002032E0042908D008290DD094F841302E
:100C8400DBB2013B18BF0123BFE794F83F30DBB26E
:100C9400013B18BF0123B8E794F84030DBB2013BB5
:100CA40018BF0123B1E7042805D0082807D0022380
:100CB40084F84130B0E7022384F83F30ACE70223E4
:100CC40084F84030A8E79A6802F00702062A07D0A1
:100CD4001A6842F001021A60002010BD0120FCE7EE
:100CE4000020FAE7002C014090F83C30012B34D06E
:100CF40010B4012380F83C30022380F83D300368AF
:100D04005A689C6822F0700C0A6842EA0C025A6025
:100D14000368134A934212D002F5006293420ED044
:100D2400B3F1804F0BD0A2F59832934207D002F56D
:100D34008062934203D002F58062934204D124F08E
:100D440080044A6814439C60012380F83D300023EA
:100D540080F83C30184610BC70470220704700BF32
:100D6400002C01407047704710B504460E4B1878AC
:100D74004FF47A73B3FBF0F30C4A1068B0FBF3F052
:100D840000F0CCFC68B90F2C01D901200AE0002244
:100D940021464FF0FF3000F07BFC054B1C60002027
:100DA40000E0012010BD00BF00000020080000206A
:100DB4000400002008B5074A136843F010031360C9
:100DC400032000F053FC0F20FFF7CEFFFFF78EFB4C
:100DD400002008BD00200240034A1168034B1B7821
:100DE4000B441360704700BF700000200000002017
:100DF400014B1868704700BF7000002038B50446E6
:100E0400FFF7F6FF0546B4F1FF3F02D0044B1B7811
:100E14001C44FFF7EDFF401BA042FAD338BD00BFCE
:100E24000000002082B0084B1B68084AA2FB032381
:100E34005B0A00FB03F3019300BF019B5A1E01925E
:100E4400002BF9D102B0704708000020D34D621086
:100E5400002800F0F18170B582B00446036813F0F5
:100E6400010F2CD0994B5B6803F00C03042B1DD0AD
:100E7400964B5B6803F00C03082B12D06368B3F540
:100E8400803F41D0002B55D103F1804303F5043357
:100E94001A6822F480321A601A6822F480221A60D6
:100EA40037E08A4B5B6813F4803FE7D0874B1B68BD
:100EB40013F4003F03D06368002B00F0BF81236864
:100EC40013F0020F75D0814B5B6813F00C0F5FD0E9
:100ED4007E4B5B6803F00C03082B54D02369002B72
:100EE40000F08A807A4B01221A60FFF781FF0546E1
:100EF400764B1B6813F0020F75D1FFF779FF401B87
:100F04000228F5D903209EE1704A136843F4803324
:100F14001360636843B3FFF76BFF05466B4B1B68B5
:100F240013F4003FCBD1FFF763FF401B6428F5D9CE
:100F3400032088E1B3F5A02F09D0644B1A6822F48A
:100F440080321A601A6822F480221A60E1E703F101
:100F54008043A3F53C331A6842F480221A601A686D
:100F640042F480321A60D4E7FFF742FF0546574B3C
:100F74001B6813F4003FA2D0FFF73AFF401B64281C
:100F8400F5D903205FE1514B5B6813F4803FA5D191
:100F94004E4B1B6813F0020F03D02369012B40F062
:100FA4004F814A4A136823F0F803616943EAC10395
:100FB4001360236813F0080F33D0A369002B5CD0AF
:100FC400434B0122C3F88024FFF712FF05463F4B31
:100FD4005B6A13F0020F21D1FFF70AFF401B0228BE
:100FE400F5D903202FE1394A136823F0F803616926
:100FF40043EAC1031360DCE7354B00221A60FFF7B4
:10100400F7FE0546314B1B6813F0020FD1D0FFF7F2
:10101400EFFE401B0228F5D9032014E10120FFF75D
:1010240001FF236813F0040F00F09680274BDB695F
:1010340013F0805F34D1254BDA6942F08052DA61D3
:10104400DB6903F080530193019B0125214B1B684D
:1010540013F4807F26D0E368012B3DD0002B53D1BD
:1010640003F1804303F504331A6A22F001021A6281
:101074001A6A22F004021A6233E0154B0022C3F804
:101084008024FFF7B5FE0546104B5B6A13F0020F90
:10109400C7D0FFF7ADFE401B0228F5D90320D2E0EC
:1010A4000025D3E70B4A136843F480731360FFF7FA
:1010B4009FFE0646074B1B6813F4807FCBD1FFF7D6
:1010C40097FE801B6428F5D90320BCE00010024081
:1010D40000004242007000405F4A136A43F001037B
:1010E4001362E36833B3FFF783FE06465A4B1B6A69
:1010F40013F0020F2FD1FFF77BFE801B41F28833E0
:101104009842F3D903209EE0052B09D0524B1A6A6A
:1011140022F001021A621A6A22F004021A62E0E75B
:101124004D4B1A6A42F004021A621A6A42F0010232
:101134001A62D6E7FFF75CFE0646474B1B6A13F0BC
:10114400020F08D0FFF754FE801B41F28833984207
:10115400F3D9032077E0E5B9E369002B72D03E4A66
:10116400526802F00C02082A56D0022B17D03B4BCF
:1011740000221A66FFF73CFE0446374B1B6813F047
:10118400007F47D0FFF734FE001B0228F5D9032067
:1011940059E0314AD36923F08053D361DCE72F4B04
:1011A40000221A66FFF724FE05462B4B1B6813F03A
:1011B400007F06D0FFF71CFE401B0228F5D9032050
:1011C40041E0236AB3F5803F1AD023494B6823F4E6
:1011D4007413226A606A024313434B601F4B01225B
:1011E4001A66FFF705FE04461B4B1B6813F0007FCD
:1011F4000ED1FFF7FDFD001B0228F5D9032022E0E4
:10120400154A536823F40033A1680B435360DCE7A9
:10121400002018E0002016E0012B16D00E4B5B686E
:1012240003F48031226A914211D103F47013626A8B
:1012340093420ED1002006E001207047012002E015
:10124400012000E0002002B070BD0120FBE7012076
:10125400F9E70120F7E700BF001002400000424216
:101264000F4B5B6803F00C02082A01D00D4870474D
:10127400C3F383420C49885C13F4803F0BD0084BC2
:101284005B68C3F34043094AD35C064A02FB00F09F
:10129400B0FBF3F07047064B03FB00F0704700BF50
:1012A4000010024000127A000818000818180008FC
:1012B40000093D00002800F0A08070B50D460446EA
:1012C400524B1B6803F007038B420BD24F4A13683F
:1012D40023F007030B431360136803F007038B42E7
:1012E40040F08D80236813F0020F17D013F0040F21
:1012F40004D0474A536843F4E0635360236813F00F
:10130400080F04D0424A536843F460535360404A80
:10131400536823F0F003A1680B435360236813F070
:10132400010F31D06368012B20D0022B25D0384A1D
:10133400126812F0020F64D035494A6822F00302A1
:1013440013434B60FFF754FD0646314B5B6803F0D3
:101354000C036268B3EB820F16D0FFF749FD801BC4
:1013640041F288339842F0D9032045E0284A1268B4
:1013740012F4003FE0D101203EE0254A126812F049
:10138400007FD9D1012037E0204B1B6803F007030D
:10139400AB420AD91D4A136823F007032B43136099
:1013A400136803F00703AB422DD1236813F0040F35
:1013B40006D0174A536823F4E063E1680B43536093
:1013C400236813F0080F07D0114A536823F46053BD
:1013D400216943EAC1035360FFF742FF0C4B5B688A
:1013E400C3F303130B4AD35CD8400B4B18600B4B6D
:1013F4001868FFF7B9FC002070BD01207047012078
:10140400FAE70120F8E70120F6E700BF00200240D8
:10141400001002401C1800080800002004000020EE
:1014240070B582B00024A446B0E0874DAA4210D023
:1014340007D9864DAA420CD005F58035AA4208D0BA
:1014440013E0A5F58015AA4203D005F57025AA423C
:1014540007D18A68002A62D0012A5BD0436108243C
:1014640003E0A5F58015AA42F3D0BEF1FF0F58D8CA
:101474000646BEF1FF0F56D84FEA8C0233680F259B
:10148400954023EA050304FA02F2134333604B68E0
:1014940013F0805F78D06E4B9A6942F001029A6132
:1014A4009B6903F001030193019B4FEA9C02951C85
:1014B400684B53F825600CF003039D000F23AB40E9
:1014C40026EA0306644B984233D003F580639842BE
:1014D40000F0988003F58063984200F0958003F54E
:1014E4008063984200F0928003F58063984200F094
:1014F4008F8003F58063984219D006231AE0CC68E4
:10150400B3E7CC680434B0E7CC680834ADE7CC6802
:101514000C34AAE703610824A7E70024A5E7042400
:10152400A3E7061DA5E7ACF108029200A6E7052390
:1015340000E00023AB4033430232464D45F82230ED
:101544004B6813F4801F65D0444A936843EA0E0342
:1015540093604B6813F4001F62D0404AD36843EA97
:101564000E03D3604B6813F4003F5FD03B4A5368CB
:1015740043EA0E0353604B6813F4803F5CD0374A50
:10158400136843EA0E0313600CF1010C0A6832FA83
:101594000CF357D0012303FA0CF302EA030E33EAE7
:1015A4000202F1D14A68122A3FF63FAF122A3FF6EF
:1015B4005CAF01A555F822F0571400080315000884
:1015C4000D1500081F1500086F1400086F1400089B
:1015D4006F1400086F1400086F1400086F140008DB
:1015E4006F1400086F1400086F1400086F140008CB
:1015F4006F1400086F1400086F1400080715000822
:1016040013150008012395E7022393E7032391E7C9
:1016140004238FE7114A936823EA0E03936098E743
:101624000E4AD36823EA0E03D3609BE70B4A536840
:1016340023EA0E0353609EE7084A136823EA0E0365
:101644001360A1E702B070BD000022100000311049
:101654000010024000000140000801400004014065
:101664000AB101617047090401617047074AD368F0
:1016740023F4E0631B041B0C000200F4E06003434A
:1016840043F0BF6343F40033D360704700ED00E0E0
:1016940000B5194BDB68C3F30223C3F1070CBCF19B
:1016A400040F28BF4FF0040C03F1040EBEF1060F23
:1016B40018D9033B4FF0FF3E0EFA0CFC21EA0C0153
:1016C40099400EFA03F322EA0303194300280BDBC3
:1016D4000901C9B200F1604000F5614080F80013CF
:1016E4005DF804FB0023E5E700F00F000901C9B22F
:1016F400024B1954F4E700BF00ED00E014ED00E0E4
:10170400002807DB00F01F02400901239340024A2E
:1017140042F82030704700BF00E100E00138B0F12A
:10172400807F0BD24FF0E0235861054AF02182F804
:1017340023100020986107221A6170470120704726
:1017440000ED00E070470000FFF7FCFF0B480C4978
:101754000C4A002302E0D458C4500433C4188C4209
:10176400F9D3094A094C002301E013600432A24270
:10177400FBD300F00FF8FEF787FD70470000002050
:101784000C000020341800080C0000207400002015
:10179400FEE7000070B500260C4D0D4C641BA41030
:1017A400A64209D100F022F800260A4D0A4C641B17
:1017B400A410A64205D170BD55F8043B98470136E4
:1017C400EEE755F8043B98470136F2E72C18000879
:1017D4002C1800082C18000830180008034602448E
:1017E400934200D1704703F8011BF9E7F8B500BF35
:1017F400F8BC08BC9E467047F8B500BFF8BC08BCEE
:041804009E46704745
:1018080002030405060708090A0B0C0D0E0F101039
:1018180001020000000000000000000001020304B3
:04182800060708099E
:04182C0009020008A5
:04183000E5010008C6
:0C183400010000001000000000127A000B
:040000050800174D8B
:00000001FF
